{
	"contracts/Names.sol": {
		"Names": {
			"abi": [
				{
					"inputs": [
						{
							"internalType": "string",
							"name": "_ownerName",
							"type": "string"
						},
						{
							"internalType": "int256",
							"name": "_luckyNumber",
							"type": "int256"
						}
					],
					"stateMutability": "nonpayable",
					"type": "constructor"
				},
				{
					"inputs": [
						{
							"internalType": "address",
							"name": "owner",
							"type": "address"
						}
					],
					"name": "OwnableInvalidOwner",
					"type": "error"
				},
				{
					"inputs": [
						{
							"internalType": "address",
							"name": "account",
							"type": "address"
						}
					],
					"name": "OwnableUnauthorizedAccount",
					"type": "error"
				},
				{
					"anonymous": false,
					"inputs": [
						{
							"indexed": true,
							"internalType": "address",
							"name": "previousOwner",
							"type": "address"
						},
						{
							"indexed": true,
							"internalType": "address",
							"name": "newOwner",
							"type": "address"
						}
					],
					"name": "OwnershipTransferred",
					"type": "event"
				},
				{
					"inputs": [
						{
							"internalType": "string",
							"name": "_myName",
							"type": "string"
						}
					],
					"name": "addMyName",
					"outputs": [],
					"stateMutability": "nonpayable",
					"type": "function"
				},
				{
					"inputs": [
						{
							"internalType": "string",
							"name": "_ownerName",
							"type": "string"
						}
					],
					"name": "changeOwnersName",
					"outputs": [],
					"stateMutability": "nonpayable",
					"type": "function"
				},
				{
					"inputs": [],
					"name": "getNames",
					"outputs": [
						{
							"internalType": "string[]",
							"name": "",
							"type": "string[]"
						}
					],
					"stateMutability": "view",
					"type": "function"
				},
				{
					"inputs": [
						{
							"internalType": "string",
							"name": "_name",
							"type": "string"
						}
					],
					"name": "isAdded",
					"outputs": [
						{
							"internalType": "bool",
							"name": "",
							"type": "bool"
						}
					],
					"stateMutability": "view",
					"type": "function"
				},
				{
					"inputs": [],
					"name": "nameCount",
					"outputs": [
						{
							"internalType": "uint256",
							"name": "",
							"type": "uint256"
						}
					],
					"stateMutability": "view",
					"type": "function"
				},
				{
					"inputs": [
						{
							"internalType": "uint256",
							"name": "",
							"type": "uint256"
						}
					],
					"name": "names",
					"outputs": [
						{
							"internalType": "string",
							"name": "",
							"type": "string"
						}
					],
					"stateMutability": "view",
					"type": "function"
				},
				{
					"inputs": [],
					"name": "owner",
					"outputs": [
						{
							"internalType": "address",
							"name": "",
							"type": "address"
						}
					],
					"stateMutability": "view",
					"type": "function"
				},
				{
					"inputs": [],
					"name": "ownerName",
					"outputs": [
						{
							"internalType": "string",
							"name": "",
							"type": "string"
						}
					],
					"stateMutability": "view",
					"type": "function"
				},
				{
					"inputs": [],
					"name": "renounceOwnership",
					"outputs": [],
					"stateMutability": "nonpayable",
					"type": "function"
				},
				{
					"inputs": [
						{
							"internalType": "address",
							"name": "newOwner",
							"type": "address"
						}
					],
					"name": "transferOwnership",
					"outputs": [],
					"stateMutability": "nonpayable",
					"type": "function"
				}
			],
			"devdoc": {
				"errors": {
					"OwnableInvalidOwner(address)": [
						{
							"details": "The owner is not a valid owner account. (eg. `address(0)`)"
						}
					],
					"OwnableUnauthorizedAccount(address)": [
						{
							"details": "The caller account is not authorized to perform an operation."
						}
					]
				},
				"kind": "dev",
				"methods": {
					"owner()": {
						"details": "Returns the address of the current owner."
					},
					"renounceOwnership()": {
						"details": "Leaves the contract without owner. It will not be possible to call `onlyOwner` functions. Can only be called by the current owner. NOTE: Renouncing ownership will leave the contract without an owner, thereby disabling any functionality that is only available to the owner."
					},
					"transferOwnership(address)": {
						"details": "Transfers ownership of the contract to a new account (`newOwner`). Can only be called by the current owner."
					}
				},
				"version": 1
			},
			"evm": {
				"assembly": "    /* \"contracts/Names.sol\":124:1180  contract Names is Ownable {... */\n  mstore(0x40, 0x80)\n    /* \"contracts/Names.sol\":250:440  constructor(string memory _ownerName, int256 _luckyNumber) Ownable(msg.sender) {... */\n  callvalue\n  dup1\n  iszero\n  tag_1\n  jumpi\n  0x00\n  dup1\n  revert\ntag_1:\n  pop\n  mload(0x40)\n  sub(codesize, bytecodeSize)\n  dup1\n  bytecodeSize\n  dup4\n  codecopy\n  dup2\n  dup2\n  add\n  0x40\n  mstore\n  dup2\n  add\n  swap1\n  tag_2\n  swap2\n  swap1\n  tag_3\n  jump\t// in\ntag_2:\n    /* \"contracts/Names.sol\":317:327  msg.sender */\n  caller\n    /* \"@openzeppelin/contracts/access/Ownable.sol\":1297:1298  0 */\n  0x00\n    /* \"@openzeppelin/contracts/access/Ownable.sol\":1273:1299  initialOwner == address(0) */\n  0xffffffffffffffffffffffffffffffffffffffff\n  and\n    /* \"@openzeppelin/contracts/access/Ownable.sol\":1273:1285  initialOwner */\n  dup2\n    /* \"@openzeppelin/contracts/access/Ownable.sol\":1273:1299  initialOwner == address(0) */\n  0xffffffffffffffffffffffffffffffffffffffff\n  and\n  sub\n    /* \"@openzeppelin/contracts/access/Ownable.sol\":1269:1364  if (initialOwner == address(0)) {... */\n  tag_7\n  jumpi\n    /* \"@openzeppelin/contracts/access/Ownable.sol\":1350:1351  0 */\n  0x00\n    /* \"@openzeppelin/contracts/access/Ownable.sol\":1322:1353  OwnableInvalidOwner(address(0)) */\n  mload(0x40)\n  0x1e4fbdf700000000000000000000000000000000000000000000000000000000\n  dup2\n  mstore\n  0x04\n  add\n  tag_8\n  swap2\n  swap1\n  tag_9\n  jump\t// in\ntag_8:\n  mload(0x40)\n  dup1\n  swap2\n  sub\n  swap1\n  revert\n    /* \"@openzeppelin/contracts/access/Ownable.sol\":1269:1364  if (initialOwner == address(0)) {... */\ntag_7:\n    /* \"@openzeppelin/contracts/access/Ownable.sol\":1373:1405  _transferOwnership(initialOwner) */\n  tag_10\n    /* \"@openzeppelin/contracts/access/Ownable.sol\":1392:1404  initialOwner */\n  dup2\n    /* \"@openzeppelin/contracts/access/Ownable.sol\":1373:1391  _transferOwnership */\n  shl(0x20, tag_11)\n    /* \"@openzeppelin/contracts/access/Ownable.sol\":1373:1405  _transferOwnership(initialOwner) */\n  0x20\n  shr\n  jump\t// in\ntag_10:\n    /* \"@openzeppelin/contracts/access/Ownable.sol\":1225:1412  constructor(address initialOwner) {... */\n  pop\n    /* \"contracts/Names.sol\":352:362  _ownerName */\n  dup2\n    /* \"contracts/Names.sol\":340:349  ownerName */\n  0x01\n    /* \"contracts/Names.sol\":340:362  ownerName = _ownerName */\n  swap1\n  dup2\n  tag_13\n  swap2\n  swap1\n  tag_14\n  jump\t// in\ntag_13:\n  pop\n    /* \"contracts/Names.sol\":373:378  names */\n  0x02\n    /* \"contracts/Names.sol\":384:394  _ownerName */\n  dup3\n    /* \"contracts/Names.sol\":373:395  names.push(_ownerName) */\n  swap1\n  dup1\n  0x01\n  dup2\n  sload\n  add\n  dup1\n  dup3\n  sstore\n  dup1\n  swap2\n  pop\n  pop\n  0x01\n  swap1\n  sub\n  swap1\n  0x00\n  mstore\n  keccak256(0x00, 0x20)\n  add\n  0x00\n  swap1\n  swap2\n  swap1\n  swap2\n  swap1\n  swap2\n  pop\n  swap1\n  dup2\n  tag_16\n  swap2\n  swap1\n  tag_14\n  jump\t// in\ntag_16:\n  pop\n    /* \"contracts/Names.sol\":420:432  _luckyNumber */\n  dup1\n    /* \"contracts/Names.sol\":406:417  luckyNumber */\n  0x03\n    /* \"contracts/Names.sol\":406:432  luckyNumber = _luckyNumber */\n  dup2\n  swap1\n  sstore\n  pop\n    /* \"contracts/Names.sol\":250:440  constructor(string memory _ownerName, int256 _luckyNumber) Ownable(msg.sender) {... */\n  pop\n  pop\n    /* \"contracts/Names.sol\":124:1180  contract Names is Ownable {... */\n  jump(tag_17)\n    /* \"@openzeppelin/contracts/access/Ownable.sol\":2912:3099  function _transferOwnership(address newOwner) internal virtual {... */\ntag_11:\n    /* \"@openzeppelin/contracts/access/Ownable.sol\":2985:3001  address oldOwner */\n  0x00\n    /* \"@openzeppelin/contracts/access/Ownable.sol\":3004:3010  _owner */\n  dup1\n  0x00\n  swap1\n  sload\n  swap1\n  0x0100\n  exp\n  swap1\n  div\n  0xffffffffffffffffffffffffffffffffffffffff\n  and\n    /* \"@openzeppelin/contracts/access/Ownable.sol\":2985:3010  address oldOwner = _owner */\n  swap1\n  pop\n    /* \"@openzeppelin/contracts/access/Ownable.sol\":3029:3037  newOwner */\n  dup2\n    /* \"@openzeppelin/contracts/access/Ownable.sol\":3020:3026  _owner */\n  0x00\n  dup1\n    /* \"@openzeppelin/contracts/access/Ownable.sol\":3020:3037  _owner = newOwner */\n  0x0100\n  exp\n  dup2\n  sload\n  dup2\n  0xffffffffffffffffffffffffffffffffffffffff\n  mul\n  not\n  and\n  swap1\n  dup4\n  0xffffffffffffffffffffffffffffffffffffffff\n  and\n  mul\n  or\n  swap1\n  sstore\n  pop\n    /* \"@openzeppelin/contracts/access/Ownable.sol\":3083:3091  newOwner */\n  dup2\n    /* \"@openzeppelin/contracts/access/Ownable.sol\":3052:3092  OwnershipTransferred(oldOwner, newOwner) */\n  0xffffffffffffffffffffffffffffffffffffffff\n  and\n    /* \"@openzeppelin/contracts/access/Ownable.sol\":3073:3081  oldOwner */\n  dup2\n    /* \"@openzeppelin/contracts/access/Ownable.sol\":3052:3092  OwnershipTransferred(oldOwner, newOwner) */\n  0xffffffffffffffffffffffffffffffffffffffff\n  and\n  0x8be0079c531659141344cd1fd0a4f28419497f9722a3daafe3b4186f6b6457e0\n  mload(0x40)\n  mload(0x40)\n  dup1\n  swap2\n  sub\n  swap1\n  log3\n    /* \"@openzeppelin/contracts/access/Ownable.sol\":2975:3099  {... */\n  pop\n    /* \"@openzeppelin/contracts/access/Ownable.sol\":2912:3099  function _transferOwnership(address newOwner) internal virtual {... */\n  pop\n  jump\t// out\n    /* \"#utility.yul\":7:82   */\ntag_19:\n    /* \"#utility.yul\":40:46   */\n  0x00\n    /* \"#utility.yul\":73:75   */\n  0x40\n    /* \"#utility.yul\":67:76   */\n  mload\n    /* \"#utility.yul\":57:76   */\n  swap1\n  pop\n    /* \"#utility.yul\":7:82   */\n  swap1\n  jump\t// out\n    /* \"#utility.yul\":88:205   */\ntag_20:\n    /* \"#utility.yul\":197:198   */\n  0x00\n    /* \"#utility.yul\":194:195   */\n  dup1\n    /* \"#utility.yul\":187:199   */\n  revert\n    /* \"#utility.yul\":211:328   */\ntag_21:\n    /* \"#utility.yul\":320:321   */\n  0x00\n    /* \"#utility.yul\":317:318   */\n  dup1\n    /* \"#utility.yul\":310:322   */\n  revert\n    /* \"#utility.yul\":334:451   */\ntag_22:\n    /* \"#utility.yul\":443:444   */\n  0x00\n    /* \"#utility.yul\":440:441   */\n  dup1\n    /* \"#utility.yul\":433:445   */\n  revert\n    /* \"#utility.yul\":457:574   */\ntag_23:\n    /* \"#utility.yul\":566:567   */\n  0x00\n    /* \"#utility.yul\":563:564   */\n  dup1\n    /* \"#utility.yul\":556:568   */\n  revert\n    /* \"#utility.yul\":580:682   */\ntag_24:\n    /* \"#utility.yul\":621:627   */\n  0x00\n    /* \"#utility.yul\":672:674   */\n  0x1f\n    /* \"#utility.yul\":668:675   */\n  not\n    /* \"#utility.yul\":663:665   */\n  0x1f\n    /* \"#utility.yul\":656:661   */\n  dup4\n    /* \"#utility.yul\":652:666   */\n  add\n    /* \"#utility.yul\":648:676   */\n  and\n    /* \"#utility.yul\":638:676   */\n  swap1\n  pop\n    /* \"#utility.yul\":580:682   */\n  swap2\n  swap1\n  pop\n  jump\t// out\n    /* \"#utility.yul\":688:868   */\ntag_25:\n    /* \"#utility.yul\":736:813   */\n  0x4e487b7100000000000000000000000000000000000000000000000000000000\n    /* \"#utility.yul\":733:734   */\n  0x00\n    /* \"#utility.yul\":726:814   */\n  mstore\n    /* \"#utility.yul\":833:837   */\n  0x41\n    /* \"#utility.yul\":830:831   */\n  0x04\n    /* \"#utility.yul\":823:838   */\n  mstore\n    /* \"#utility.yul\":857:861   */\n  0x24\n    /* \"#utility.yul\":854:855   */\n  0x00\n    /* \"#utility.yul\":847:862   */\n  revert\n    /* \"#utility.yul\":874:1155   */\ntag_26:\n    /* \"#utility.yul\":957:984   */\n  tag_66\n    /* \"#utility.yul\":979:983   */\n  dup3\n    /* \"#utility.yul\":957:984   */\n  tag_24\n  jump\t// in\ntag_66:\n    /* \"#utility.yul\":949:955   */\n  dup2\n    /* \"#utility.yul\":945:985   */\n  add\n    /* \"#utility.yul\":1087:1093   */\n  dup2\n    /* \"#utility.yul\":1075:1085   */\n  dup2\n    /* \"#utility.yul\":1072:1094   */\n  lt\n    /* \"#utility.yul\":1051:1069   */\n  0xffffffffffffffff\n    /* \"#utility.yul\":1039:1049   */\n  dup3\n    /* \"#utility.yul\":1036:1070   */\n  gt\n    /* \"#utility.yul\":1033:1095   */\n  or\n    /* \"#utility.yul\":1030:1118   */\n  iszero\n  tag_67\n  jumpi\n    /* \"#utility.yul\":1098:1116   */\n  tag_68\n  tag_25\n  jump\t// in\ntag_68:\n    /* \"#utility.yul\":1030:1118   */\ntag_67:\n    /* \"#utility.yul\":1138:1148   */\n  dup1\n    /* \"#utility.yul\":1134:1136   */\n  0x40\n    /* \"#utility.yul\":1127:1149   */\n  mstore\n    /* \"#utility.yul\":917:1155   */\n  pop\n    /* \"#utility.yul\":874:1155   */\n  pop\n  pop\n  jump\t// out\n    /* \"#utility.yul\":1161:1290   */\ntag_27:\n    /* \"#utility.yul\":1195:1201   */\n  0x00\n    /* \"#utility.yul\":1222:1242   */\n  tag_70\n  tag_19\n  jump\t// in\ntag_70:\n    /* \"#utility.yul\":1212:1242   */\n  swap1\n  pop\n    /* \"#utility.yul\":1251:1284   */\n  tag_71\n    /* \"#utility.yul\":1279:1283   */\n  dup3\n    /* \"#utility.yul\":1271:1277   */\n  dup3\n    /* \"#utility.yul\":1251:1284   */\n  tag_26\n  jump\t// in\ntag_71:\n    /* \"#utility.yul\":1161:1290   */\n  swap2\n  swap1\n  pop\n  jump\t// out\n    /* \"#utility.yul\":1296:1604   */\ntag_28:\n    /* \"#utility.yul\":1358:1362   */\n  0x00\n    /* \"#utility.yul\":1448:1466   */\n  0xffffffffffffffff\n    /* \"#utility.yul\":1440:1446   */\n  dup3\n    /* \"#utility.yul\":1437:1467   */\n  gt\n    /* \"#utility.yul\":1434:1490   */\n  iszero\n  tag_73\n  jumpi\n    /* \"#utility.yul\":1470:1488   */\n  tag_74\n  tag_25\n  jump\t// in\ntag_74:\n    /* \"#utility.yul\":1434:1490   */\ntag_73:\n    /* \"#utility.yul\":1508:1537   */\n  tag_75\n    /* \"#utility.yul\":1530:1536   */\n  dup3\n    /* \"#utility.yul\":1508:1537   */\n  tag_24\n  jump\t// in\ntag_75:\n    /* \"#utility.yul\":1500:1537   */\n  swap1\n  pop\n    /* \"#utility.yul\":1592:1596   */\n  0x20\n    /* \"#utility.yul\":1586:1590   */\n  dup2\n    /* \"#utility.yul\":1582:1597   */\n  add\n    /* \"#utility.yul\":1574:1597   */\n  swap1\n  pop\n    /* \"#utility.yul\":1296:1604   */\n  swap2\n  swap1\n  pop\n  jump\t// out\n    /* \"#utility.yul\":1610:1749   */\ntag_29:\n    /* \"#utility.yul\":1699:1705   */\n  dup3\n    /* \"#utility.yul\":1694:1697   */\n  dup2\n    /* \"#utility.yul\":1689:1692   */\n  dup4\n    /* \"#utility.yul\":1683:1706   */\n  mcopy\n    /* \"#utility.yul\":1740:1741   */\n  0x00\n    /* \"#utility.yul\":1731:1737   */\n  dup4\n    /* \"#utility.yul\":1726:1729   */\n  dup4\n    /* \"#utility.yul\":1722:1738   */\n  add\n    /* \"#utility.yul\":1715:1742   */\n  mstore\n    /* \"#utility.yul\":1610:1749   */\n  pop\n  pop\n  pop\n  jump\t// out\n    /* \"#utility.yul\":1755:2189   */\ntag_30:\n    /* \"#utility.yul\":1844:1849   */\n  0x00\n    /* \"#utility.yul\":1869:1935   */\n  tag_78\n    /* \"#utility.yul\":1885:1934   */\n  tag_79\n    /* \"#utility.yul\":1927:1933   */\n  dup5\n    /* \"#utility.yul\":1885:1934   */\n  tag_28\n  jump\t// in\ntag_79:\n    /* \"#utility.yul\":1869:1935   */\n  tag_27\n  jump\t// in\ntag_78:\n    /* \"#utility.yul\":1860:1935   */\n  swap1\n  pop\n    /* \"#utility.yul\":1958:1964   */\n  dup3\n    /* \"#utility.yul\":1951:1956   */\n  dup2\n    /* \"#utility.yul\":1944:1965   */\n  mstore\n    /* \"#utility.yul\":1996:2000   */\n  0x20\n    /* \"#utility.yul\":1989:1994   */\n  dup2\n    /* \"#utility.yul\":1985:2001   */\n  add\n    /* \"#utility.yul\":2034:2037   */\n  dup5\n    /* \"#utility.yul\":2025:2031   */\n  dup5\n    /* \"#utility.yul\":2020:2023   */\n  dup5\n    /* \"#utility.yul\":2016:2032   */\n  add\n    /* \"#utility.yul\":2013:2038   */\n  gt\n    /* \"#utility.yul\":2010:2122   */\n  iszero\n  tag_80\n  jumpi\n    /* \"#utility.yul\":2041:2120   */\n  tag_81\n  tag_23\n  jump\t// in\ntag_81:\n    /* \"#utility.yul\":2010:2122   */\ntag_80:\n    /* \"#utility.yul\":2131:2183   */\n  tag_82\n    /* \"#utility.yul\":2176:2182   */\n  dup5\n    /* \"#utility.yul\":2171:2174   */\n  dup3\n    /* \"#utility.yul\":2166:2169   */\n  dup6\n    /* \"#utility.yul\":2131:2183   */\n  tag_29\n  jump\t// in\ntag_82:\n    /* \"#utility.yul\":1850:2189   */\n  pop\n    /* \"#utility.yul\":1755:2189   */\n  swap4\n  swap3\n  pop\n  pop\n  pop\n  jump\t// out\n    /* \"#utility.yul\":2209:2564   */\ntag_31:\n    /* \"#utility.yul\":2276:2281   */\n  0x00\n    /* \"#utility.yul\":2325:2328   */\n  dup3\n    /* \"#utility.yul\":2318:2322   */\n  0x1f\n    /* \"#utility.yul\":2310:2316   */\n  dup4\n    /* \"#utility.yul\":2306:2323   */\n  add\n    /* \"#utility.yul\":2302:2329   */\n  slt\n    /* \"#utility.yul\":2292:2414   */\n  tag_84\n  jumpi\n    /* \"#utility.yul\":2333:2412   */\n  tag_85\n  tag_22\n  jump\t// in\ntag_85:\n    /* \"#utility.yul\":2292:2414   */\ntag_84:\n    /* \"#utility.yul\":2443:2449   */\n  dup2\n    /* \"#utility.yul\":2437:2450   */\n  mload\n    /* \"#utility.yul\":2468:2558   */\n  tag_86\n    /* \"#utility.yul\":2554:2557   */\n  dup5\n    /* \"#utility.yul\":2546:2552   */\n  dup3\n    /* \"#utility.yul\":2539:2543   */\n  0x20\n    /* \"#utility.yul\":2531:2537   */\n  dup7\n    /* \"#utility.yul\":2527:2544   */\n  add\n    /* \"#utility.yul\":2468:2558   */\n  tag_30\n  jump\t// in\ntag_86:\n    /* \"#utility.yul\":2459:2558   */\n  swap2\n  pop\n    /* \"#utility.yul\":2282:2564   */\n  pop\n    /* \"#utility.yul\":2209:2564   */\n  swap3\n  swap2\n  pop\n  pop\n  jump\t// out\n    /* \"#utility.yul\":2570:2646   */\ntag_32:\n    /* \"#utility.yul\":2606:2613   */\n  0x00\n    /* \"#utility.yul\":2635:2640   */\n  dup2\n    /* \"#utility.yul\":2624:2640   */\n  swap1\n  pop\n    /* \"#utility.yul\":2570:2646   */\n  swap2\n  swap1\n  pop\n  jump\t// out\n    /* \"#utility.yul\":2652:2772   */\ntag_33:\n    /* \"#utility.yul\":2724:2747   */\n  tag_89\n    /* \"#utility.yul\":2741:2746   */\n  dup2\n    /* \"#utility.yul\":2724:2747   */\n  tag_32\n  jump\t// in\ntag_89:\n    /* \"#utility.yul\":2717:2722   */\n  dup2\n    /* \"#utility.yul\":2714:2748   */\n  eq\n    /* \"#utility.yul\":2704:2766   */\n  tag_90\n  jumpi\n    /* \"#utility.yul\":2762:2763   */\n  0x00\n    /* \"#utility.yul\":2759:2760   */\n  dup1\n    /* \"#utility.yul\":2752:2764   */\n  revert\n    /* \"#utility.yul\":2704:2766   */\ntag_90:\n    /* \"#utility.yul\":2652:2772   */\n  pop\n  jump\t// out\n    /* \"#utility.yul\":2778:2919   */\ntag_34:\n    /* \"#utility.yul\":2834:2839   */\n  0x00\n    /* \"#utility.yul\":2865:2871   */\n  dup2\n    /* \"#utility.yul\":2859:2872   */\n  mload\n    /* \"#utility.yul\":2850:2872   */\n  swap1\n  pop\n    /* \"#utility.yul\":2881:2913   */\n  tag_92\n    /* \"#utility.yul\":2907:2912   */\n  dup2\n    /* \"#utility.yul\":2881:2913   */\n  tag_33\n  jump\t// in\ntag_92:\n    /* \"#utility.yul\":2778:2919   */\n  swap3\n  swap2\n  pop\n  pop\n  jump\t// out\n    /* \"#utility.yul\":2925:3603   */\ntag_3:\n    /* \"#utility.yul\":3013:3019   */\n  0x00\n    /* \"#utility.yul\":3021:3027   */\n  dup1\n    /* \"#utility.yul\":3070:3072   */\n  0x40\n    /* \"#utility.yul\":3058:3067   */\n  dup4\n    /* \"#utility.yul\":3049:3056   */\n  dup6\n    /* \"#utility.yul\":3045:3068   */\n  sub\n    /* \"#utility.yul\":3041:3073   */\n  slt\n    /* \"#utility.yul\":3038:3157   */\n  iszero\n  tag_94\n  jumpi\n    /* \"#utility.yul\":3076:3155   */\n  tag_95\n  tag_20\n  jump\t// in\ntag_95:\n    /* \"#utility.yul\":3038:3157   */\ntag_94:\n    /* \"#utility.yul\":3217:3218   */\n  0x00\n    /* \"#utility.yul\":3206:3215   */\n  dup4\n    /* \"#utility.yul\":3202:3219   */\n  add\n    /* \"#utility.yul\":3196:3220   */\n  mload\n    /* \"#utility.yul\":3247:3265   */\n  0xffffffffffffffff\n    /* \"#utility.yul\":3239:3245   */\n  dup2\n    /* \"#utility.yul\":3236:3266   */\n  gt\n    /* \"#utility.yul\":3233:3350   */\n  iszero\n  tag_96\n  jumpi\n    /* \"#utility.yul\":3269:3348   */\n  tag_97\n  tag_21\n  jump\t// in\ntag_97:\n    /* \"#utility.yul\":3233:3350   */\ntag_96:\n    /* \"#utility.yul\":3374:3448   */\n  tag_98\n    /* \"#utility.yul\":3440:3447   */\n  dup6\n    /* \"#utility.yul\":3431:3437   */\n  dup3\n    /* \"#utility.yul\":3420:3429   */\n  dup7\n    /* \"#utility.yul\":3416:3438   */\n  add\n    /* \"#utility.yul\":3374:3448   */\n  tag_31\n  jump\t// in\ntag_98:\n    /* \"#utility.yul\":3364:3448   */\n  swap3\n  pop\n    /* \"#utility.yul\":3167:3458   */\n  pop\n    /* \"#utility.yul\":3497:3499   */\n  0x20\n    /* \"#utility.yul\":3523:3586   */\n  tag_99\n    /* \"#utility.yul\":3578:3585   */\n  dup6\n    /* \"#utility.yul\":3569:3575   */\n  dup3\n    /* \"#utility.yul\":3558:3567   */\n  dup7\n    /* \"#utility.yul\":3554:3576   */\n  add\n    /* \"#utility.yul\":3523:3586   */\n  tag_34\n  jump\t// in\ntag_99:\n    /* \"#utility.yul\":3513:3586   */\n  swap2\n  pop\n    /* \"#utility.yul\":3468:3596   */\n  pop\n    /* \"#utility.yul\":2925:3603   */\n  swap3\n  pop\n  swap3\n  swap1\n  pop\n  jump\t// out\n    /* \"#utility.yul\":3609:3735   */\ntag_35:\n    /* \"#utility.yul\":3646:3653   */\n  0x00\n    /* \"#utility.yul\":3686:3728   */\n  0xffffffffffffffffffffffffffffffffffffffff\n    /* \"#utility.yul\":3679:3684   */\n  dup3\n    /* \"#utility.yul\":3675:3729   */\n  and\n    /* \"#utility.yul\":3664:3729   */\n  swap1\n  pop\n    /* \"#utility.yul\":3609:3735   */\n  swap2\n  swap1\n  pop\n  jump\t// out\n    /* \"#utility.yul\":3741:3837   */\ntag_36:\n    /* \"#utility.yul\":3778:3785   */\n  0x00\n    /* \"#utility.yul\":3807:3831   */\n  tag_102\n    /* \"#utility.yul\":3825:3830   */\n  dup3\n    /* \"#utility.yul\":3807:3831   */\n  tag_35\n  jump\t// in\ntag_102:\n    /* \"#utility.yul\":3796:3831   */\n  swap1\n  pop\n    /* \"#utility.yul\":3741:3837   */\n  swap2\n  swap1\n  pop\n  jump\t// out\n    /* \"#utility.yul\":3843:3961   */\ntag_37:\n    /* \"#utility.yul\":3930:3954   */\n  tag_104\n    /* \"#utility.yul\":3948:3953   */\n  dup2\n    /* \"#utility.yul\":3930:3954   */\n  tag_36\n  jump\t// in\ntag_104:\n    /* \"#utility.yul\":3925:3928   */\n  dup3\n    /* \"#utility.yul\":3918:3955   */\n  mstore\n    /* \"#utility.yul\":3843:3961   */\n  pop\n  pop\n  jump\t// out\n    /* \"#utility.yul\":3967:4189   */\ntag_9:\n    /* \"#utility.yul\":4060:4064   */\n  0x00\n    /* \"#utility.yul\":4098:4100   */\n  0x20\n    /* \"#utility.yul\":4087:4096   */\n  dup3\n    /* \"#utility.yul\":4083:4101   */\n  add\n    /* \"#utility.yul\":4075:4101   */\n  swap1\n  pop\n    /* \"#utility.yul\":4111:4182   */\n  tag_106\n    /* \"#utility.yul\":4179:4180   */\n  0x00\n    /* \"#utility.yul\":4168:4177   */\n  dup4\n    /* \"#utility.yul\":4164:4181   */\n  add\n    /* \"#utility.yul\":4155:4161   */\n  dup5\n    /* \"#utility.yul\":4111:4182   */\n  tag_37\n  jump\t// in\ntag_106:\n    /* \"#utility.yul\":3967:4189   */\n  swap3\n  swap2\n  pop\n  pop\n  jump\t// out\n    /* \"#utility.yul\":4195:4294   */\ntag_38:\n    /* \"#utility.yul\":4247:4253   */\n  0x00\n    /* \"#utility.yul\":4281:4286   */\n  dup2\n    /* \"#utility.yul\":4275:4287   */\n  mload\n    /* \"#utility.yul\":4265:4287   */\n  swap1\n  pop\n    /* \"#utility.yul\":4195:4294   */\n  swap2\n  swap1\n  pop\n  jump\t// out\n    /* \"#utility.yul\":4300:4480   */\ntag_39:\n    /* \"#utility.yul\":4348:4425   */\n  0x4e487b7100000000000000000000000000000000000000000000000000000000\n    /* \"#utility.yul\":4345:4346   */\n  0x00\n    /* \"#utility.yul\":4338:4426   */\n  mstore\n    /* \"#utility.yul\":4445:4449   */\n  0x22\n    /* \"#utility.yul\":4442:4443   */\n  0x04\n    /* \"#utility.yul\":4435:4450   */\n  mstore\n    /* \"#utility.yul\":4469:4473   */\n  0x24\n    /* \"#utility.yul\":4466:4467   */\n  0x00\n    /* \"#utility.yul\":4459:4474   */\n  revert\n    /* \"#utility.yul\":4486:4806   */\ntag_40:\n    /* \"#utility.yul\":4530:4536   */\n  0x00\n    /* \"#utility.yul\":4567:4568   */\n  0x02\n    /* \"#utility.yul\":4561:4565   */\n  dup3\n    /* \"#utility.yul\":4557:4569   */\n  div\n    /* \"#utility.yul\":4547:4569   */\n  swap1\n  pop\n    /* \"#utility.yul\":4614:4615   */\n  0x01\n    /* \"#utility.yul\":4608:4612   */\n  dup3\n    /* \"#utility.yul\":4604:4616   */\n  and\n    /* \"#utility.yul\":4635:4653   */\n  dup1\n    /* \"#utility.yul\":4625:4706   */\n  tag_110\n  jumpi\n    /* \"#utility.yul\":4691:4695   */\n  0x7f\n    /* \"#utility.yul\":4683:4689   */\n  dup3\n    /* \"#utility.yul\":4679:4696   */\n  and\n    /* \"#utility.yul\":4669:4696   */\n  swap2\n  pop\n    /* \"#utility.yul\":4625:4706   */\ntag_110:\n    /* \"#utility.yul\":4753:4755   */\n  0x20\n    /* \"#utility.yul\":4745:4751   */\n  dup3\n    /* \"#utility.yul\":4742:4756   */\n  lt\n    /* \"#utility.yul\":4722:4740   */\n  dup2\n    /* \"#utility.yul\":4719:4757   */\n  sub\n    /* \"#utility.yul\":4716:4800   */\n  tag_111\n  jumpi\n    /* \"#utility.yul\":4772:4790   */\n  tag_112\n  tag_39\n  jump\t// in\ntag_112:\n    /* \"#utility.yul\":4716:4800   */\ntag_111:\n    /* \"#utility.yul\":4537:4806   */\n  pop\n    /* \"#utility.yul\":4486:4806   */\n  swap2\n  swap1\n  pop\n  jump\t// out\n    /* \"#utility.yul\":4812:4953   */\ntag_41:\n    /* \"#utility.yul\":4861:4865   */\n  0x00\n    /* \"#utility.yul\":4884:4887   */\n  dup2\n    /* \"#utility.yul\":4876:4887   */\n  swap1\n  pop\n    /* \"#utility.yul\":4907:4910   */\n  dup2\n    /* \"#utility.yul\":4904:4905   */\n  0x00\n    /* \"#utility.yul\":4897:4911   */\n  mstore\n    /* \"#utility.yul\":4941:4945   */\n  0x20\n    /* \"#utility.yul\":4938:4939   */\n  0x00\n    /* \"#utility.yul\":4928:4946   */\n  keccak256\n    /* \"#utility.yul\":4920:4946   */\n  swap1\n  pop\n    /* \"#utility.yul\":4812:4953   */\n  swap2\n  swap1\n  pop\n  jump\t// out\n    /* \"#utility.yul\":4959:5052   */\ntag_42:\n    /* \"#utility.yul\":4996:5002   */\n  0x00\n    /* \"#utility.yul\":5043:5045   */\n  0x20\n    /* \"#utility.yul\":5038:5040   */\n  0x1f\n    /* \"#utility.yul\":5031:5036   */\n  dup4\n    /* \"#utility.yul\":5027:5041   */\n  add\n    /* \"#utility.yul\":5023:5046   */\n  div\n    /* \"#utility.yul\":5013:5046   */\n  swap1\n  pop\n    /* \"#utility.yul\":4959:5052   */\n  swap2\n  swap1\n  pop\n  jump\t// out\n    /* \"#utility.yul\":5058:5165   */\ntag_43:\n    /* \"#utility.yul\":5102:5110   */\n  0x00\n    /* \"#utility.yul\":5152:5157   */\n  dup3\n    /* \"#utility.yul\":5146:5150   */\n  dup3\n    /* \"#utility.yul\":5142:5158   */\n  shl\n    /* \"#utility.yul\":5121:5158   */\n  swap1\n  pop\n    /* \"#utility.yul\":5058:5165   */\n  swap3\n  swap2\n  pop\n  pop\n  jump\t// out\n    /* \"#utility.yul\":5171:5564   */\ntag_44:\n    /* \"#utility.yul\":5240:5246   */\n  0x00\n    /* \"#utility.yul\":5290:5291   */\n  0x08\n    /* \"#utility.yul\":5278:5288   */\n  dup4\n    /* \"#utility.yul\":5274:5292   */\n  mul\n    /* \"#utility.yul\":5313:5410   */\n  tag_117\n    /* \"#utility.yul\":5343:5409   */\n  0xffffffffffffffffffffffffffffffffffffffffffffffffffffffffffffffff\n    /* \"#utility.yul\":5332:5341   */\n  dup3\n    /* \"#utility.yul\":5313:5410   */\n  tag_43\n  jump\t// in\ntag_117:\n    /* \"#utility.yul\":5431:5470   */\n  tag_118\n    /* \"#utility.yul\":5461:5469   */\n  dup7\n    /* \"#utility.yul\":5450:5459   */\n  dup4\n    /* \"#utility.yul\":5431:5470   */\n  tag_43\n  jump\t// in\ntag_118:\n    /* \"#utility.yul\":5419:5470   */\n  swap6\n  pop\n    /* \"#utility.yul\":5503:5507   */\n  dup1\n    /* \"#utility.yul\":5499:5508   */\n  not\n    /* \"#utility.yul\":5492:5497   */\n  dup5\n    /* \"#utility.yul\":5488:5509   */\n  and\n    /* \"#utility.yul\":5479:5509   */\n  swap4\n  pop\n    /* \"#utility.yul\":5552:5556   */\n  dup1\n    /* \"#utility.yul\":5542:5550   */\n  dup7\n    /* \"#utility.yul\":5538:5557   */\n  and\n    /* \"#utility.yul\":5531:5536   */\n  dup5\n    /* \"#utility.yul\":5528:5558   */\n  or\n    /* \"#utility.yul\":5518:5558   */\n  swap3\n  pop\n    /* \"#utility.yul\":5247:5564   */\n  pop\n  pop\n    /* \"#utility.yul\":5171:5564   */\n  swap4\n  swap3\n  pop\n  pop\n  pop\n  jump\t// out\n    /* \"#utility.yul\":5570:5647   */\ntag_45:\n    /* \"#utility.yul\":5607:5614   */\n  0x00\n    /* \"#utility.yul\":5636:5641   */\n  dup2\n    /* \"#utility.yul\":5625:5641   */\n  swap1\n  pop\n    /* \"#utility.yul\":5570:5647   */\n  swap2\n  swap1\n  pop\n  jump\t// out\n    /* \"#utility.yul\":5653:5713   */\ntag_46:\n    /* \"#utility.yul\":5681:5684   */\n  0x00\n    /* \"#utility.yul\":5702:5707   */\n  dup2\n    /* \"#utility.yul\":5695:5707   */\n  swap1\n  pop\n    /* \"#utility.yul\":5653:5713   */\n  swap2\n  swap1\n  pop\n  jump\t// out\n    /* \"#utility.yul\":5719:5861   */\ntag_47:\n    /* \"#utility.yul\":5769:5778   */\n  0x00\n    /* \"#utility.yul\":5802:5855   */\n  tag_122\n    /* \"#utility.yul\":5820:5854   */\n  tag_123\n    /* \"#utility.yul\":5829:5853   */\n  tag_124\n    /* \"#utility.yul\":5847:5852   */\n  dup5\n    /* \"#utility.yul\":5829:5853   */\n  tag_45\n  jump\t// in\ntag_124:\n    /* \"#utility.yul\":5820:5854   */\n  tag_46\n  jump\t// in\ntag_123:\n    /* \"#utility.yul\":5802:5855   */\n  tag_45\n  jump\t// in\ntag_122:\n    /* \"#utility.yul\":5789:5855   */\n  swap1\n  pop\n    /* \"#utility.yul\":5719:5861   */\n  swap2\n  swap1\n  pop\n  jump\t// out\n    /* \"#utility.yul\":5867:5942   */\ntag_48:\n    /* \"#utility.yul\":5910:5913   */\n  0x00\n    /* \"#utility.yul\":5931:5936   */\n  dup2\n    /* \"#utility.yul\":5924:5936   */\n  swap1\n  pop\n    /* \"#utility.yul\":5867:5942   */\n  swap2\n  swap1\n  pop\n  jump\t// out\n    /* \"#utility.yul\":5948:6217   */\ntag_49:\n    /* \"#utility.yul\":6058:6097   */\n  tag_127\n    /* \"#utility.yul\":6089:6096   */\n  dup4\n    /* \"#utility.yul\":6058:6097   */\n  tag_47\n  jump\t// in\ntag_127:\n    /* \"#utility.yul\":6119:6210   */\n  tag_128\n    /* \"#utility.yul\":6168:6209   */\n  tag_129\n    /* \"#utility.yul\":6192:6208   */\n  dup3\n    /* \"#utility.yul\":6168:6209   */\n  tag_48\n  jump\t// in\ntag_129:\n    /* \"#utility.yul\":6160:6166   */\n  dup5\n    /* \"#utility.yul\":6153:6157   */\n  dup5\n    /* \"#utility.yul\":6147:6158   */\n  sload\n    /* \"#utility.yul\":6119:6210   */\n  tag_44\n  jump\t// in\ntag_128:\n    /* \"#utility.yul\":6113:6117   */\n  dup3\n    /* \"#utility.yul\":6106:6211   */\n  sstore\n    /* \"#utility.yul\":6024:6217   */\n  pop\n    /* \"#utility.yul\":5948:6217   */\n  pop\n  pop\n  pop\n  jump\t// out\n    /* \"#utility.yul\":6223:6296   */\ntag_50:\n    /* \"#utility.yul\":6268:6271   */\n  0x00\n    /* \"#utility.yul\":6223:6296   */\n  swap1\n  jump\t// out\n    /* \"#utility.yul\":6302:6491   */\ntag_51:\n    /* \"#utility.yul\":6379:6411   */\n  tag_132\n  tag_50\n  jump\t// in\ntag_132:\n    /* \"#utility.yul\":6420:6485   */\n  tag_133\n    /* \"#utility.yul\":6478:6484   */\n  dup2\n    /* \"#utility.yul\":6470:6476   */\n  dup5\n    /* \"#utility.yul\":6464:6468   */\n  dup5\n    /* \"#utility.yul\":6420:6485   */\n  tag_49\n  jump\t// in\ntag_133:\n    /* \"#utility.yul\":6355:6491   */\n  pop\n    /* \"#utility.yul\":6302:6491   */\n  pop\n  pop\n  jump\t// out\n    /* \"#utility.yul\":6497:6683   */\ntag_52:\n    /* \"#utility.yul\":6557:6677   */\ntag_135:\n    /* \"#utility.yul\":6574:6577   */\n  dup2\n    /* \"#utility.yul\":6567:6572   */\n  dup2\n    /* \"#utility.yul\":6564:6578   */\n  lt\n    /* \"#utility.yul\":6557:6677   */\n  iszero\n  tag_137\n  jumpi\n    /* \"#utility.yul\":6628:6667   */\n  tag_138\n    /* \"#utility.yul\":6665:6666   */\n  0x00\n    /* \"#utility.yul\":6658:6663   */\n  dup3\n    /* \"#utility.yul\":6628:6667   */\n  tag_51\n  jump\t// in\ntag_138:\n    /* \"#utility.yul\":6601:6602   */\n  0x01\n    /* \"#utility.yul\":6594:6599   */\n  dup2\n    /* \"#utility.yul\":6590:6603   */\n  add\n    /* \"#utility.yul\":6581:6603   */\n  swap1\n  pop\n    /* \"#utility.yul\":6557:6677   */\n  jump(tag_135)\ntag_137:\n    /* \"#utility.yul\":6497:6683   */\n  pop\n  pop\n  jump\t// out\n    /* \"#utility.yul\":6689:7232   */\ntag_53:\n    /* \"#utility.yul\":6790:6792   */\n  0x1f\n    /* \"#utility.yul\":6785:6788   */\n  dup3\n    /* \"#utility.yul\":6782:6793   */\n  gt\n    /* \"#utility.yul\":6779:7225   */\n  iszero\n  tag_140\n  jumpi\n    /* \"#utility.yul\":6824:6862   */\n  tag_141\n    /* \"#utility.yul\":6856:6861   */\n  dup2\n    /* \"#utility.yul\":6824:6862   */\n  tag_41\n  jump\t// in\ntag_141:\n    /* \"#utility.yul\":6908:6937   */\n  tag_142\n    /* \"#utility.yul\":6926:6936   */\n  dup5\n    /* \"#utility.yul\":6908:6937   */\n  tag_42\n  jump\t// in\ntag_142:\n    /* \"#utility.yul\":6898:6906   */\n  dup2\n    /* \"#utility.yul\":6894:6938   */\n  add\n    /* \"#utility.yul\":7091:7093   */\n  0x20\n    /* \"#utility.yul\":7079:7089   */\n  dup6\n    /* \"#utility.yul\":7076:7094   */\n  lt\n    /* \"#utility.yul\":7073:7122   */\n  iszero\n  tag_143\n  jumpi\n    /* \"#utility.yul\":7112:7120   */\n  dup2\n    /* \"#utility.yul\":7097:7120   */\n  swap1\n  pop\n    /* \"#utility.yul\":7073:7122   */\ntag_143:\n    /* \"#utility.yul\":7135:7215   */\n  tag_144\n    /* \"#utility.yul\":7191:7213   */\n  tag_145\n    /* \"#utility.yul\":7209:7212   */\n  dup6\n    /* \"#utility.yul\":7191:7213   */\n  tag_42\n  jump\t// in\ntag_145:\n    /* \"#utility.yul\":7181:7189   */\n  dup4\n    /* \"#utility.yul\":7177:7214   */\n  add\n    /* \"#utility.yul\":7164:7175   */\n  dup3\n    /* \"#utility.yul\":7135:7215   */\n  tag_52\n  jump\t// in\ntag_144:\n    /* \"#utility.yul\":6794:7225   */\n  pop\n  pop\n    /* \"#utility.yul\":6779:7225   */\ntag_140:\n    /* \"#utility.yul\":6689:7232   */\n  pop\n  pop\n  pop\n  jump\t// out\n    /* \"#utility.yul\":7238:7355   */\ntag_54:\n    /* \"#utility.yul\":7292:7300   */\n  0x00\n    /* \"#utility.yul\":7342:7347   */\n  dup3\n    /* \"#utility.yul\":7336:7340   */\n  dup3\n    /* \"#utility.yul\":7332:7348   */\n  shr\n    /* \"#utility.yul\":7311:7348   */\n  swap1\n  pop\n    /* \"#utility.yul\":7238:7355   */\n  swap3\n  swap2\n  pop\n  pop\n  jump\t// out\n    /* \"#utility.yul\":7361:7530   */\ntag_55:\n    /* \"#utility.yul\":7405:7411   */\n  0x00\n    /* \"#utility.yul\":7438:7489   */\n  tag_148\n    /* \"#utility.yul\":7486:7487   */\n  0x00\n    /* \"#utility.yul\":7482:7488   */\n  not\n    /* \"#utility.yul\":7474:7479   */\n  dup5\n    /* \"#utility.yul\":7471:7472   */\n  0x08\n    /* \"#utility.yul\":7467:7480   */\n  mul\n    /* \"#utility.yul\":7438:7489   */\n  tag_54\n  jump\t// in\ntag_148:\n    /* \"#utility.yul\":7434:7490   */\n  not\n    /* \"#utility.yul\":7519:7523   */\n  dup1\n    /* \"#utility.yul\":7513:7517   */\n  dup4\n    /* \"#utility.yul\":7509:7524   */\n  and\n    /* \"#utility.yul\":7499:7524   */\n  swap2\n  pop\n    /* \"#utility.yul\":7412:7530   */\n  pop\n    /* \"#utility.yul\":7361:7530   */\n  swap3\n  swap2\n  pop\n  pop\n  jump\t// out\n    /* \"#utility.yul\":7535:7830   */\ntag_56:\n    /* \"#utility.yul\":7611:7615   */\n  0x00\n    /* \"#utility.yul\":7757:7786   */\n  tag_150\n    /* \"#utility.yul\":7782:7785   */\n  dup4\n    /* \"#utility.yul\":7776:7780   */\n  dup4\n    /* \"#utility.yul\":7757:7786   */\n  tag_55\n  jump\t// in\ntag_150:\n    /* \"#utility.yul\":7749:7786   */\n  swap2\n  pop\n    /* \"#utility.yul\":7819:7822   */\n  dup3\n    /* \"#utility.yul\":7816:7817   */\n  0x02\n    /* \"#utility.yul\":7812:7823   */\n  mul\n    /* \"#utility.yul\":7806:7810   */\n  dup3\n    /* \"#utility.yul\":7803:7824   */\n  or\n    /* \"#utility.yul\":7795:7824   */\n  swap1\n  pop\n    /* \"#utility.yul\":7535:7830   */\n  swap3\n  swap2\n  pop\n  pop\n  jump\t// out\n    /* \"#utility.yul\":7835:9230   */\ntag_14:\n    /* \"#utility.yul\":7952:7989   */\n  tag_152\n    /* \"#utility.yul\":7985:7988   */\n  dup3\n    /* \"#utility.yul\":7952:7989   */\n  tag_38\n  jump\t// in\ntag_152:\n    /* \"#utility.yul\":8054:8072   */\n  0xffffffffffffffff\n    /* \"#utility.yul\":8046:8052   */\n  dup2\n    /* \"#utility.yul\":8043:8073   */\n  gt\n    /* \"#utility.yul\":8040:8096   */\n  iszero\n  tag_153\n  jumpi\n    /* \"#utility.yul\":8076:8094   */\n  tag_154\n  tag_25\n  jump\t// in\ntag_154:\n    /* \"#utility.yul\":8040:8096   */\ntag_153:\n    /* \"#utility.yul\":8120:8158   */\n  tag_155\n    /* \"#utility.yul\":8152:8156   */\n  dup3\n    /* \"#utility.yul\":8146:8157   */\n  sload\n    /* \"#utility.yul\":8120:8158   */\n  tag_40\n  jump\t// in\ntag_155:\n    /* \"#utility.yul\":8205:8272   */\n  tag_156\n    /* \"#utility.yul\":8265:8271   */\n  dup3\n    /* \"#utility.yul\":8257:8263   */\n  dup3\n    /* \"#utility.yul\":8251:8255   */\n  dup6\n    /* \"#utility.yul\":8205:8272   */\n  tag_53\n  jump\t// in\ntag_156:\n    /* \"#utility.yul\":8299:8300   */\n  0x00\n    /* \"#utility.yul\":8323:8327   */\n  0x20\n    /* \"#utility.yul\":8310:8327   */\n  swap1\n  pop\n    /* \"#utility.yul\":8355:8357   */\n  0x1f\n    /* \"#utility.yul\":8347:8353   */\n  dup4\n    /* \"#utility.yul\":8344:8358   */\n  gt\n    /* \"#utility.yul\":8372:8373   */\n  0x01\n    /* \"#utility.yul\":8367:8985   */\n  dup2\n  eq\n  tag_158\n  jumpi\n    /* \"#utility.yul\":9029:9030   */\n  0x00\n    /* \"#utility.yul\":9046:9052   */\n  dup5\n    /* \"#utility.yul\":9043:9120   */\n  iszero\n  tag_159\n  jumpi\n    /* \"#utility.yul\":9095:9104   */\n  dup3\n    /* \"#utility.yul\":9090:9093   */\n  dup8\n    /* \"#utility.yul\":9086:9105   */\n  add\n    /* \"#utility.yul\":9080:9106   */\n  mload\n    /* \"#utility.yul\":9071:9106   */\n  swap1\n  pop\n    /* \"#utility.yul\":9043:9120   */\ntag_159:\n    /* \"#utility.yul\":9146:9213   */\n  tag_160\n    /* \"#utility.yul\":9206:9212   */\n  dup6\n    /* \"#utility.yul\":9199:9204   */\n  dup3\n    /* \"#utility.yul\":9146:9213   */\n  tag_56\n  jump\t// in\ntag_160:\n    /* \"#utility.yul\":9140:9144   */\n  dup7\n    /* \"#utility.yul\":9133:9214   */\n  sstore\n    /* \"#utility.yul\":9002:9224   */\n  pop\n    /* \"#utility.yul\":8337:9224   */\n  jump(tag_157)\n    /* \"#utility.yul\":8367:8985   */\ntag_158:\n    /* \"#utility.yul\":8419:8423   */\n  0x1f\n    /* \"#utility.yul\":8415:8424   */\n  not\n    /* \"#utility.yul\":8407:8413   */\n  dup5\n    /* \"#utility.yul\":8403:8425   */\n  and\n    /* \"#utility.yul\":8453:8490   */\n  tag_161\n    /* \"#utility.yul\":8485:8489   */\n  dup7\n    /* \"#utility.yul\":8453:8490   */\n  tag_41\n  jump\t// in\ntag_161:\n    /* \"#utility.yul\":8512:8513   */\n  0x00\n    /* \"#utility.yul\":8526:8734   */\ntag_162:\n    /* \"#utility.yul\":8540:8547   */\n  dup3\n    /* \"#utility.yul\":8537:8538   */\n  dup2\n    /* \"#utility.yul\":8534:8548   */\n  lt\n    /* \"#utility.yul\":8526:8734   */\n  iszero\n  tag_164\n  jumpi\n    /* \"#utility.yul\":8619:8628   */\n  dup5\n    /* \"#utility.yul\":8614:8617   */\n  dup10\n    /* \"#utility.yul\":8610:8629   */\n  add\n    /* \"#utility.yul\":8604:8630   */\n  mload\n    /* \"#utility.yul\":8596:8602   */\n  dup3\n    /* \"#utility.yul\":8589:8631   */\n  sstore\n    /* \"#utility.yul\":8670:8671   */\n  0x01\n    /* \"#utility.yul\":8662:8668   */\n  dup3\n    /* \"#utility.yul\":8658:8672   */\n  add\n    /* \"#utility.yul\":8648:8672   */\n  swap2\n  pop\n    /* \"#utility.yul\":8717:8719   */\n  0x20\n    /* \"#utility.yul\":8706:8715   */\n  dup6\n    /* \"#utility.yul\":8702:8720   */\n  add\n    /* \"#utility.yul\":8689:8720   */\n  swap5\n  pop\n    /* \"#utility.yul\":8563:8567   */\n  0x20\n    /* \"#utility.yul\":8560:8561   */\n  dup2\n    /* \"#utility.yul\":8556:8568   */\n  add\n    /* \"#utility.yul\":8551:8568   */\n  swap1\n  pop\n    /* \"#utility.yul\":8526:8734   */\n  jump(tag_162)\ntag_164:\n    /* \"#utility.yul\":8762:8768   */\n  dup7\n    /* \"#utility.yul\":8753:8760   */\n  dup4\n    /* \"#utility.yul\":8750:8769   */\n  lt\n    /* \"#utility.yul\":8747:8926   */\n  iszero\n  tag_165\n  jumpi\n    /* \"#utility.yul\":8820:8829   */\n  dup5\n    /* \"#utility.yul\":8815:8818   */\n  dup10\n    /* \"#utility.yul\":8811:8830   */\n  add\n    /* \"#utility.yul\":8805:8831   */\n  mload\n    /* \"#utility.yul\":8863:8911   */\n  tag_166\n    /* \"#utility.yul\":8905:8909   */\n  0x1f\n    /* \"#utility.yul\":8897:8903   */\n  dup10\n    /* \"#utility.yul\":8893:8910   */\n  and\n    /* \"#utility.yul\":8882:8891   */\n  dup3\n    /* \"#utility.yul\":8863:8911   */\n  tag_55\n  jump\t// in\ntag_166:\n    /* \"#utility.yul\":8855:8861   */\n  dup4\n    /* \"#utility.yul\":8848:8912   */\n  sstore\n    /* \"#utility.yul\":8770:8926   */\n  pop\n    /* \"#utility.yul\":8747:8926   */\ntag_165:\n    /* \"#utility.yul\":8972:8973   */\n  0x01\n    /* \"#utility.yul\":8968:8969   */\n  0x02\n    /* \"#utility.yul\":8960:8966   */\n  dup9\n    /* \"#utility.yul\":8956:8970   */\n  mul\n    /* \"#utility.yul\":8952:8974   */\n  add\n    /* \"#utility.yul\":8946:8950   */\n  dup9\n    /* \"#utility.yul\":8939:8975   */\n  sstore\n    /* \"#utility.yul\":8374:8985   */\n  pop\n  pop\n  pop\n    /* \"#utility.yul\":8337:9224   */\ntag_157:\n  pop\n    /* \"#utility.yul\":7927:9230   */\n  pop\n  pop\n  pop\n    /* \"#utility.yul\":7835:9230   */\n  pop\n  pop\n  jump\t// out\n    /* \"contracts/Names.sol\":124:1180  contract Names is Ownable {... */\ntag_17:\n  dataSize(sub_0)\n  dup1\n  dataOffset(sub_0)\n  0x00\n  codecopy\n  0x00\n  return\nstop\n\nsub_0: assembly {\n        /* \"contracts/Names.sol\":124:1180  contract Names is Ownable {... */\n      mstore(0x40, 0x80)\n      callvalue\n      dup1\n      iszero\n      tag_1\n      jumpi\n      0x00\n      dup1\n      revert\n    tag_1:\n      pop\n      jumpi(tag_2, lt(calldatasize, 0x04))\n      shr(0xe0, calldataload(0x00))\n      dup1\n      0x8da5cb5b\n      gt\n      tag_13\n      jumpi\n      dup1\n      0x8da5cb5b\n      eq\n      tag_8\n      jumpi\n      dup1\n      0x9681944c\n      eq\n      tag_9\n      jumpi\n      dup1\n      0xb89bca26\n      eq\n      tag_10\n      jumpi\n      dup1\n      0xcd838f0f\n      eq\n      tag_11\n      jumpi\n      dup1\n      0xf2fde38b\n      eq\n      tag_12\n      jumpi\n      jump(tag_2)\n    tag_13:\n      dup1\n      0x2e3d616e\n      eq\n      tag_3\n      jumpi\n      dup1\n      0x4622ab03\n      eq\n      tag_4\n      jumpi\n      dup1\n      0x65ac2320\n      eq\n      tag_5\n      jumpi\n      dup1\n      0x715018a6\n      eq\n      tag_6\n      jumpi\n      dup1\n      0x73ff93a2\n      eq\n      tag_7\n      jumpi\n    tag_2:\n      0x00\n      dup1\n      revert\n        /* \"contracts/Names.sol\":543:865  function isAdded(string memory _name) public view returns (bool) {... */\n    tag_3:\n      tag_14\n      0x04\n      dup1\n      calldatasize\n      sub\n      dup2\n      add\n      swap1\n      tag_15\n      swap2\n      swap1\n      tag_16\n      jump\t// in\n    tag_15:\n      tag_17\n      jump\t// in\n    tag_14:\n      mload(0x40)\n      tag_18\n      swap2\n      swap1\n      tag_19\n      jump\t// in\n    tag_18:\n      mload(0x40)\n      dup1\n      swap2\n      sub\n      swap1\n      return\n        /* \"contracts/Names.sol\":187:208  string[] public names */\n    tag_4:\n      tag_20\n      0x04\n      dup1\n      calldatasize\n      sub\n      dup2\n      add\n      swap1\n      tag_21\n      swap2\n      swap1\n      tag_22\n      jump\t// in\n    tag_21:\n      tag_23\n      jump\t// in\n    tag_20:\n      mload(0x40)\n      tag_24\n      swap2\n      swap1\n      tag_25\n      jump\t// in\n    tag_24:\n      mload(0x40)\n      dup1\n      swap2\n      sub\n      swap1\n      return\n        /* \"contracts/Names.sol\":157:180  string public ownerName */\n    tag_5:\n      tag_26\n      tag_27\n      jump\t// in\n    tag_26:\n      mload(0x40)\n      tag_28\n      swap2\n      swap1\n      tag_25\n      jump\t// in\n    tag_28:\n      mload(0x40)\n      dup1\n      swap2\n      sub\n      swap1\n      return\n        /* \"@openzeppelin/contracts/access/Ownable.sol\":2293:2394  function renounceOwnership() public virtual onlyOwner {... */\n    tag_6:\n      tag_29\n      tag_30\n      jump\t// in\n    tag_29:\n      stop\n        /* \"contracts/Names.sol\":970:1059  function nameCount() public view returns (uint256) {... */\n    tag_7:\n      tag_31\n      tag_32\n      jump\t// in\n    tag_31:\n      mload(0x40)\n      tag_33\n      swap2\n      swap1\n      tag_34\n      jump\t// in\n    tag_33:\n      mload(0x40)\n      dup1\n      swap2\n      sub\n      swap1\n      return\n        /* \"@openzeppelin/contracts/access/Ownable.sol\":1638:1723  function owner() public view virtual returns (address) {... */\n    tag_8:\n      tag_35\n      tag_36\n      jump\t// in\n    tag_35:\n      mload(0x40)\n      tag_37\n      swap2\n      swap1\n      tag_38\n      jump\t// in\n    tag_37:\n      mload(0x40)\n      dup1\n      swap2\n      sub\n      swap1\n      return\n        /* \"contracts/Names.sol\":1067:1177  function changeOwnersName(string memory _ownerName) public onlyOwner {... */\n    tag_9:\n      tag_39\n      0x04\n      dup1\n      calldatasize\n      sub\n      dup2\n      add\n      swap1\n      tag_40\n      swap2\n      swap1\n      tag_16\n      jump\t// in\n    tag_40:\n      tag_41\n      jump\t// in\n    tag_39:\n      stop\n        /* \"contracts/Names.sol\":448:535  function addMyName(string memory _myName) public {... */\n    tag_10:\n      tag_42\n      0x04\n      dup1\n      calldatasize\n      sub\n      dup2\n      add\n      swap1\n      tag_43\n      swap2\n      swap1\n      tag_16\n      jump\t// in\n    tag_43:\n      tag_44\n      jump\t// in\n    tag_42:\n      stop\n        /* \"contracts/Names.sol\":873:962  function getNames() public view returns (string[] memory) {... */\n    tag_11:\n      tag_45\n      tag_46\n      jump\t// in\n    tag_45:\n      mload(0x40)\n      tag_47\n      swap2\n      swap1\n      tag_48\n      jump\t// in\n    tag_47:\n      mload(0x40)\n      dup1\n      swap2\n      sub\n      swap1\n      return\n        /* \"@openzeppelin/contracts/access/Ownable.sol\":2543:2758  function transferOwnership(address newOwner) public virtual onlyOwner {... */\n    tag_12:\n      tag_49\n      0x04\n      dup1\n      calldatasize\n      sub\n      dup2\n      add\n      swap1\n      tag_50\n      swap2\n      swap1\n      tag_51\n      jump\t// in\n    tag_50:\n      tag_52\n      jump\t// in\n    tag_49:\n      stop\n        /* \"contracts/Names.sol\":543:865  function isAdded(string memory _name) public view returns (bool) {... */\n    tag_17:\n        /* \"contracts/Names.sol\":602:606  bool */\n      0x00\n        /* \"contracts/Names.sol\":624:633  uint256 i */\n      dup1\n        /* \"contracts/Names.sol\":636:637  0 */\n      0x00\n        /* \"contracts/Names.sol\":624:637  uint256 i = 0 */\n      swap1\n      pop\n        /* \"contracts/Names.sol\":619:835  for (uint256 i = 0; i < names.length; i++) {... */\n    tag_54:\n        /* \"contracts/Names.sol\":643:648  names */\n      0x02\n        /* \"contracts/Names.sol\":643:655  names.length */\n      dup1\n      sload\n      swap1\n      pop\n        /* \"contracts/Names.sol\":639:640  i */\n      dup2\n        /* \"contracts/Names.sol\":639:655  i < names.length */\n      lt\n        /* \"contracts/Names.sol\":619:835  for (uint256 i = 0; i < names.length; i++) {... */\n      iszero\n      tag_55\n      jumpi\n        /* \"contracts/Names.sol\":784:789  names */\n      0x02\n        /* \"contracts/Names.sol\":790:791  i */\n      dup2\n        /* \"contracts/Names.sol\":784:792  names[i] */\n      dup2\n      sload\n      dup2\n      lt\n      tag_57\n      jumpi\n      tag_58\n      tag_59\n      jump\t// in\n    tag_58:\n    tag_57:\n      swap1\n      0x00\n      mstore\n      keccak256(0x00, 0x20)\n      add\n        /* \"contracts/Names.sol\":766:794  abi.encodePacked((names[i])) */\n      add(0x20, mload(0x40))\n      tag_61\n      swap2\n      swap1\n      tag_62\n      jump\t// in\n    tag_61:\n      mload(0x40)\n      0x20\n      dup2\n      dup4\n      sub\n      sub\n      dup2\n      mstore\n      swap1\n      0x40\n      mstore\n        /* \"contracts/Names.sol\":756:795  keccak256(abi.encodePacked((names[i]))) */\n      dup1\n      mload\n      swap1\n      0x20\n      add\n      keccak256\n        /* \"contracts/Names.sol\":727:732  _name */\n      dup4\n        /* \"contracts/Names.sol\":709:734  abi.encodePacked((_name)) */\n      add(0x20, mload(0x40))\n      tag_63\n      swap2\n      swap1\n      tag_64\n      jump\t// in\n    tag_63:\n      mload(0x40)\n      0x20\n      dup2\n      dup4\n      sub\n      sub\n      dup2\n      mstore\n      swap1\n      0x40\n      mstore\n        /* \"contracts/Names.sol\":699:735  keccak256(abi.encodePacked((_name))) */\n      dup1\n      mload\n      swap1\n      0x20\n      add\n      keccak256\n        /* \"contracts/Names.sol\":699:795  keccak256(abi.encodePacked((_name))) ==... */\n      sub\n        /* \"contracts/Names.sol\":677:822  if (... */\n      tag_65\n      jumpi\n        /* \"contracts/Names.sol\":818:822  true */\n      0x01\n        /* \"contracts/Names.sol\":811:822  return true */\n      swap2\n      pop\n      pop\n      jump(tag_53)\n        /* \"contracts/Names.sol\":677:822  if (... */\n    tag_65:\n        /* \"contracts/Names.sol\":657:660  i++ */\n      dup1\n      dup1\n      0x01\n      add\n      swap2\n      pop\n      pop\n        /* \"contracts/Names.sol\":619:835  for (uint256 i = 0; i < names.length; i++) {... */\n      jump(tag_54)\n    tag_55:\n      pop\n        /* \"contracts/Names.sol\":852:857  false */\n      0x00\n        /* \"contracts/Names.sol\":845:857  return false */\n      swap1\n      pop\n        /* \"contracts/Names.sol\":543:865  function isAdded(string memory _name) public view returns (bool) {... */\n    tag_53:\n      swap2\n      swap1\n      pop\n      jump\t// out\n        /* \"contracts/Names.sol\":187:208  string[] public names */\n    tag_23:\n      0x02\n      dup2\n      dup2\n      sload\n      dup2\n      lt\n      tag_66\n      jumpi\n      0x00\n      dup1\n      revert\n    tag_66:\n      swap1\n      0x00\n      mstore\n      keccak256(0x00, 0x20)\n      add\n      0x00\n      swap2\n      pop\n      swap1\n      pop\n      dup1\n      sload\n      tag_68\n      swap1\n      tag_69\n      jump\t// in\n    tag_68:\n      dup1\n      0x1f\n      add\n      0x20\n      dup1\n      swap2\n      div\n      mul\n      0x20\n      add\n      mload(0x40)\n      swap1\n      dup2\n      add\n      0x40\n      mstore\n      dup1\n      swap3\n      swap2\n      swap1\n      dup2\n      dup2\n      mstore\n      0x20\n      add\n      dup3\n      dup1\n      sload\n      tag_70\n      swap1\n      tag_69\n      jump\t// in\n    tag_70:\n      dup1\n      iszero\n      tag_71\n      jumpi\n      dup1\n      0x1f\n      lt\n      tag_72\n      jumpi\n      0x0100\n      dup1\n      dup4\n      sload\n      div\n      mul\n      dup4\n      mstore\n      swap2\n      0x20\n      add\n      swap2\n      jump(tag_71)\n    tag_72:\n      dup3\n      add\n      swap2\n      swap1\n      0x00\n      mstore\n      keccak256(0x00, 0x20)\n      swap1\n    tag_73:\n      dup2\n      sload\n      dup2\n      mstore\n      swap1\n      0x01\n      add\n      swap1\n      0x20\n      add\n      dup1\n      dup4\n      gt\n      tag_73\n      jumpi\n      dup3\n      swap1\n      sub\n      0x1f\n      and\n      dup3\n      add\n      swap2\n    tag_71:\n      pop\n      pop\n      pop\n      pop\n      pop\n      dup2\n      jump\t// out\n        /* \"contracts/Names.sol\":157:180  string public ownerName */\n    tag_27:\n      0x01\n      dup1\n      sload\n      tag_74\n      swap1\n      tag_69\n      jump\t// in\n    tag_74:\n      dup1\n      0x1f\n      add\n      0x20\n      dup1\n      swap2\n      div\n      mul\n      0x20\n      add\n      mload(0x40)\n      swap1\n      dup2\n      add\n      0x40\n      mstore\n      dup1\n      swap3\n      swap2\n      swap1\n      dup2\n      dup2\n      mstore\n      0x20\n      add\n      dup3\n      dup1\n      sload\n      tag_75\n      swap1\n      tag_69\n      jump\t// in\n    tag_75:\n      dup1\n      iszero\n      tag_76\n      jumpi\n      dup1\n      0x1f\n      lt\n      tag_77\n      jumpi\n      0x0100\n      dup1\n      dup4\n      sload\n      div\n      mul\n      dup4\n      mstore\n      swap2\n      0x20\n      add\n      swap2\n      jump(tag_76)\n    tag_77:\n      dup3\n      add\n      swap2\n      swap1\n      0x00\n      mstore\n      keccak256(0x00, 0x20)\n      swap1\n    tag_78:\n      dup2\n      sload\n      dup2\n      mstore\n      swap1\n      0x01\n      add\n      swap1\n      0x20\n      add\n      dup1\n      dup4\n      gt\n      tag_78\n      jumpi\n      dup3\n      swap1\n      sub\n      0x1f\n      and\n      dup3\n      add\n      swap2\n    tag_76:\n      pop\n      pop\n      pop\n      pop\n      pop\n      dup2\n      jump\t// out\n        /* \"@openzeppelin/contracts/access/Ownable.sol\":2293:2394  function renounceOwnership() public virtual onlyOwner {... */\n    tag_30:\n        /* \"@openzeppelin/contracts/access/Ownable.sol\":1531:1544  _checkOwner() */\n      tag_80\n        /* \"@openzeppelin/contracts/access/Ownable.sol\":1531:1542  _checkOwner */\n      tag_81\n        /* \"@openzeppelin/contracts/access/Ownable.sol\":1531:1544  _checkOwner() */\n      jump\t// in\n    tag_80:\n        /* \"@openzeppelin/contracts/access/Ownable.sol\":2357:2387  _transferOwnership(address(0)) */\n      tag_83\n        /* \"@openzeppelin/contracts/access/Ownable.sol\":2384:2385  0 */\n      0x00\n        /* \"@openzeppelin/contracts/access/Ownable.sol\":2357:2375  _transferOwnership */\n      tag_84\n        /* \"@openzeppelin/contracts/access/Ownable.sol\":2357:2387  _transferOwnership(address(0)) */\n      jump\t// in\n    tag_83:\n        /* \"@openzeppelin/contracts/access/Ownable.sol\":2293:2394  function renounceOwnership() public virtual onlyOwner {... */\n      jump\t// out\n        /* \"contracts/Names.sol\":970:1059  function nameCount() public view returns (uint256) {... */\n    tag_32:\n        /* \"contracts/Names.sol\":1012:1019  uint256 */\n      0x00\n        /* \"contracts/Names.sol\":1039:1044  names */\n      0x02\n        /* \"contracts/Names.sol\":1039:1051  names.length */\n      dup1\n      sload\n      swap1\n      pop\n        /* \"contracts/Names.sol\":1032:1051  return names.length */\n      swap1\n      pop\n        /* \"contracts/Names.sol\":970:1059  function nameCount() public view returns (uint256) {... */\n      swap1\n      jump\t// out\n        /* \"@openzeppelin/contracts/access/Ownable.sol\":1638:1723  function owner() public view virtual returns (address) {... */\n    tag_36:\n        /* \"@openzeppelin/contracts/access/Ownable.sol\":1684:1691  address */\n      0x00\n        /* \"@openzeppelin/contracts/access/Ownable.sol\":1710:1716  _owner */\n      dup1\n      0x00\n      swap1\n      sload\n      swap1\n      0x0100\n      exp\n      swap1\n      div\n      0xffffffffffffffffffffffffffffffffffffffff\n      and\n        /* \"@openzeppelin/contracts/access/Ownable.sol\":1703:1716  return _owner */\n      swap1\n      pop\n        /* \"@openzeppelin/contracts/access/Ownable.sol\":1638:1723  function owner() public view virtual returns (address) {... */\n      swap1\n      jump\t// out\n        /* \"contracts/Names.sol\":1067:1177  function changeOwnersName(string memory _ownerName) public onlyOwner {... */\n    tag_41:\n        /* \"@openzeppelin/contracts/access/Ownable.sol\":1531:1544  _checkOwner() */\n      tag_88\n        /* \"@openzeppelin/contracts/access/Ownable.sol\":1531:1542  _checkOwner */\n      tag_81\n        /* \"@openzeppelin/contracts/access/Ownable.sol\":1531:1544  _checkOwner() */\n      jump\t// in\n    tag_88:\n        /* \"contracts/Names.sol\":1159:1169  _ownerName */\n      dup1\n        /* \"contracts/Names.sol\":1147:1156  ownerName */\n      0x01\n        /* \"contracts/Names.sol\":1147:1169  ownerName = _ownerName */\n      swap1\n      dup2\n      tag_90\n      swap2\n      swap1\n      tag_91\n      jump\t// in\n    tag_90:\n      pop\n        /* \"contracts/Names.sol\":1067:1177  function changeOwnersName(string memory _ownerName) public onlyOwner {... */\n      pop\n      jump\t// out\n        /* \"contracts/Names.sol\":448:535  function addMyName(string memory _myName) public {... */\n    tag_44:\n        /* \"contracts/Names.sol\":508:513  names */\n      0x02\n        /* \"contracts/Names.sol\":519:526  _myName */\n      dup2\n        /* \"contracts/Names.sol\":508:527  names.push(_myName) */\n      swap1\n      dup1\n      0x01\n      dup2\n      sload\n      add\n      dup1\n      dup3\n      sstore\n      dup1\n      swap2\n      pop\n      pop\n      0x01\n      swap1\n      sub\n      swap1\n      0x00\n      mstore\n      keccak256(0x00, 0x20)\n      add\n      0x00\n      swap1\n      swap2\n      swap1\n      swap2\n      swap1\n      swap2\n      pop\n      swap1\n      dup2\n      tag_94\n      swap2\n      swap1\n      tag_91\n      jump\t// in\n    tag_94:\n      pop\n        /* \"contracts/Names.sol\":448:535  function addMyName(string memory _myName) public {... */\n      pop\n      jump\t// out\n        /* \"contracts/Names.sol\":873:962  function getNames() public view returns (string[] memory) {... */\n    tag_46:\n        /* \"contracts/Names.sol\":914:929  string[] memory */\n      0x60\n        /* \"contracts/Names.sol\":949:954  names */\n      0x02\n        /* \"contracts/Names.sol\":942:954  return names */\n      dup1\n      sload\n      dup1\n      0x20\n      mul\n      0x20\n      add\n      mload(0x40)\n      swap1\n      dup2\n      add\n      0x40\n      mstore\n      dup1\n      swap3\n      swap2\n      swap1\n      dup2\n      dup2\n      mstore\n      0x20\n      add\n      0x00\n      swap1\n    tag_96:\n      dup3\n      dup3\n      lt\n      iszero\n      tag_97\n      jumpi\n      dup4\n      dup3\n      swap1\n      0x00\n      mstore\n      keccak256(0x00, 0x20)\n      add\n      dup1\n      sload\n      tag_99\n      swap1\n      tag_69\n      jump\t// in\n    tag_99:\n      dup1\n      0x1f\n      add\n      0x20\n      dup1\n      swap2\n      div\n      mul\n      0x20\n      add\n      mload(0x40)\n      swap1\n      dup2\n      add\n      0x40\n      mstore\n      dup1\n      swap3\n      swap2\n      swap1\n      dup2\n      dup2\n      mstore\n      0x20\n      add\n      dup3\n      dup1\n      sload\n      tag_100\n      swap1\n      tag_69\n      jump\t// in\n    tag_100:\n      dup1\n      iszero\n      tag_101\n      jumpi\n      dup1\n      0x1f\n      lt\n      tag_102\n      jumpi\n      0x0100\n      dup1\n      dup4\n      sload\n      div\n      mul\n      dup4\n      mstore\n      swap2\n      0x20\n      add\n      swap2\n      jump(tag_101)\n    tag_102:\n      dup3\n      add\n      swap2\n      swap1\n      0x00\n      mstore\n      keccak256(0x00, 0x20)\n      swap1\n    tag_103:\n      dup2\n      sload\n      dup2\n      mstore\n      swap1\n      0x01\n      add\n      swap1\n      0x20\n      add\n      dup1\n      dup4\n      gt\n      tag_103\n      jumpi\n      dup3\n      swap1\n      sub\n      0x1f\n      and\n      dup3\n      add\n      swap2\n    tag_101:\n      pop\n      pop\n      pop\n      pop\n      pop\n      dup2\n      mstore\n      0x20\n      add\n      swap1\n      0x01\n      add\n      swap1\n      jump(tag_96)\n    tag_97:\n      pop\n      pop\n      pop\n      pop\n      swap1\n      pop\n        /* \"contracts/Names.sol\":873:962  function getNames() public view returns (string[] memory) {... */\n      swap1\n      jump\t// out\n        /* \"@openzeppelin/contracts/access/Ownable.sol\":2543:2758  function transferOwnership(address newOwner) public virtual onlyOwner {... */\n    tag_52:\n        /* \"@openzeppelin/contracts/access/Ownable.sol\":1531:1544  _checkOwner() */\n      tag_105\n        /* \"@openzeppelin/contracts/access/Ownable.sol\":1531:1542  _checkOwner */\n      tag_81\n        /* \"@openzeppelin/contracts/access/Ownable.sol\":1531:1544  _checkOwner() */\n      jump\t// in\n    tag_105:\n        /* \"@openzeppelin/contracts/access/Ownable.sol\":2647:2648  0 */\n      0x00\n        /* \"@openzeppelin/contracts/access/Ownable.sol\":2627:2649  newOwner == address(0) */\n      0xffffffffffffffffffffffffffffffffffffffff\n      and\n        /* \"@openzeppelin/contracts/access/Ownable.sol\":2627:2635  newOwner */\n      dup2\n        /* \"@openzeppelin/contracts/access/Ownable.sol\":2627:2649  newOwner == address(0) */\n      0xffffffffffffffffffffffffffffffffffffffff\n      and\n      sub\n        /* \"@openzeppelin/contracts/access/Ownable.sol\":2623:2714  if (newOwner == address(0)) {... */\n      tag_107\n      jumpi\n        /* \"@openzeppelin/contracts/access/Ownable.sol\":2700:2701  0 */\n      0x00\n        /* \"@openzeppelin/contracts/access/Ownable.sol\":2672:2703  OwnableInvalidOwner(address(0)) */\n      mload(0x40)\n      0x1e4fbdf700000000000000000000000000000000000000000000000000000000\n      dup2\n      mstore\n      0x04\n      add\n      tag_108\n      swap2\n      swap1\n      tag_38\n      jump\t// in\n    tag_108:\n      mload(0x40)\n      dup1\n      swap2\n      sub\n      swap1\n      revert\n        /* \"@openzeppelin/contracts/access/Ownable.sol\":2623:2714  if (newOwner == address(0)) {... */\n    tag_107:\n        /* \"@openzeppelin/contracts/access/Ownable.sol\":2723:2751  _transferOwnership(newOwner) */\n      tag_109\n        /* \"@openzeppelin/contracts/access/Ownable.sol\":2742:2750  newOwner */\n      dup2\n        /* \"@openzeppelin/contracts/access/Ownable.sol\":2723:2741  _transferOwnership */\n      tag_84\n        /* \"@openzeppelin/contracts/access/Ownable.sol\":2723:2751  _transferOwnership(newOwner) */\n      jump\t// in\n    tag_109:\n        /* \"@openzeppelin/contracts/access/Ownable.sol\":2543:2758  function transferOwnership(address newOwner) public virtual onlyOwner {... */\n      pop\n      jump\t// out\n        /* \"@openzeppelin/contracts/access/Ownable.sol\":1796:1958  function _checkOwner() internal view virtual {... */\n    tag_81:\n        /* \"@openzeppelin/contracts/access/Ownable.sol\":1866:1878  _msgSender() */\n      tag_111\n        /* \"@openzeppelin/contracts/access/Ownable.sol\":1866:1876  _msgSender */\n      tag_112\n        /* \"@openzeppelin/contracts/access/Ownable.sol\":1866:1878  _msgSender() */\n      jump\t// in\n    tag_111:\n        /* \"@openzeppelin/contracts/access/Ownable.sol\":1855:1878  owner() != _msgSender() */\n      0xffffffffffffffffffffffffffffffffffffffff\n      and\n        /* \"@openzeppelin/contracts/access/Ownable.sol\":1855:1862  owner() */\n      tag_113\n        /* \"@openzeppelin/contracts/access/Ownable.sol\":1855:1860  owner */\n      tag_36\n        /* \"@openzeppelin/contracts/access/Ownable.sol\":1855:1862  owner() */\n      jump\t// in\n    tag_113:\n        /* \"@openzeppelin/contracts/access/Ownable.sol\":1855:1878  owner() != _msgSender() */\n      0xffffffffffffffffffffffffffffffffffffffff\n      and\n      eq\n        /* \"@openzeppelin/contracts/access/Ownable.sol\":1851:1952  if (owner() != _msgSender()) {... */\n      tag_114\n      jumpi\n        /* \"@openzeppelin/contracts/access/Ownable.sol\":1928:1940  _msgSender() */\n      tag_115\n        /* \"@openzeppelin/contracts/access/Ownable.sol\":1928:1938  _msgSender */\n      tag_112\n        /* \"@openzeppelin/contracts/access/Ownable.sol\":1928:1940  _msgSender() */\n      jump\t// in\n    tag_115:\n        /* \"@openzeppelin/contracts/access/Ownable.sol\":1901:1941  OwnableUnauthorizedAccount(_msgSender()) */\n      mload(0x40)\n      0x118cdaa700000000000000000000000000000000000000000000000000000000\n      dup2\n      mstore\n      0x04\n      add\n      tag_116\n      swap2\n      swap1\n      tag_38\n      jump\t// in\n    tag_116:\n      mload(0x40)\n      dup1\n      swap2\n      sub\n      swap1\n      revert\n        /* \"@openzeppelin/contracts/access/Ownable.sol\":1851:1952  if (owner() != _msgSender()) {... */\n    tag_114:\n        /* \"@openzeppelin/contracts/access/Ownable.sol\":1796:1958  function _checkOwner() internal view virtual {... */\n      jump\t// out\n        /* \"@openzeppelin/contracts/access/Ownable.sol\":2912:3099  function _transferOwnership(address newOwner) internal virtual {... */\n    tag_84:\n        /* \"@openzeppelin/contracts/access/Ownable.sol\":2985:3001  address oldOwner */\n      0x00\n        /* \"@openzeppelin/contracts/access/Ownable.sol\":3004:3010  _owner */\n      dup1\n      0x00\n      swap1\n      sload\n      swap1\n      0x0100\n      exp\n      swap1\n      div\n      0xffffffffffffffffffffffffffffffffffffffff\n      and\n        /* \"@openzeppelin/contracts/access/Ownable.sol\":2985:3010  address oldOwner = _owner */\n      swap1\n      pop\n        /* \"@openzeppelin/contracts/access/Ownable.sol\":3029:3037  newOwner */\n      dup2\n        /* \"@openzeppelin/contracts/access/Ownable.sol\":3020:3026  _owner */\n      0x00\n      dup1\n        /* \"@openzeppelin/contracts/access/Ownable.sol\":3020:3037  _owner = newOwner */\n      0x0100\n      exp\n      dup2\n      sload\n      dup2\n      0xffffffffffffffffffffffffffffffffffffffff\n      mul\n      not\n      and\n      swap1\n      dup4\n      0xffffffffffffffffffffffffffffffffffffffff\n      and\n      mul\n      or\n      swap1\n      sstore\n      pop\n        /* \"@openzeppelin/contracts/access/Ownable.sol\":3083:3091  newOwner */\n      dup2\n        /* \"@openzeppelin/contracts/access/Ownable.sol\":3052:3092  OwnershipTransferred(oldOwner, newOwner) */\n      0xffffffffffffffffffffffffffffffffffffffff\n      and\n        /* \"@openzeppelin/contracts/access/Ownable.sol\":3073:3081  oldOwner */\n      dup2\n        /* \"@openzeppelin/contracts/access/Ownable.sol\":3052:3092  OwnershipTransferred(oldOwner, newOwner) */\n      0xffffffffffffffffffffffffffffffffffffffff\n      and\n      0x8be0079c531659141344cd1fd0a4f28419497f9722a3daafe3b4186f6b6457e0\n      mload(0x40)\n      mload(0x40)\n      dup1\n      swap2\n      sub\n      swap1\n      log3\n        /* \"@openzeppelin/contracts/access/Ownable.sol\":2975:3099  {... */\n      pop\n        /* \"@openzeppelin/contracts/access/Ownable.sol\":2912:3099  function _transferOwnership(address newOwner) internal virtual {... */\n      pop\n      jump\t// out\n        /* \"@openzeppelin/contracts/utils/Context.sol\":656:752  function _msgSender() internal view virtual returns (address) {... */\n    tag_112:\n        /* \"@openzeppelin/contracts/utils/Context.sol\":709:716  address */\n      0x00\n        /* \"@openzeppelin/contracts/utils/Context.sol\":735:745  msg.sender */\n      caller\n        /* \"@openzeppelin/contracts/utils/Context.sol\":728:745  return msg.sender */\n      swap1\n      pop\n        /* \"@openzeppelin/contracts/utils/Context.sol\":656:752  function _msgSender() internal view virtual returns (address) {... */\n      swap1\n      jump\t// out\n        /* \"#utility.yul\":7:82   */\n    tag_119:\n        /* \"#utility.yul\":40:46   */\n      0x00\n        /* \"#utility.yul\":73:75   */\n      0x40\n        /* \"#utility.yul\":67:76   */\n      mload\n        /* \"#utility.yul\":57:76   */\n      swap1\n      pop\n        /* \"#utility.yul\":7:82   */\n      swap1\n      jump\t// out\n        /* \"#utility.yul\":88:205   */\n    tag_120:\n        /* \"#utility.yul\":197:198   */\n      0x00\n        /* \"#utility.yul\":194:195   */\n      dup1\n        /* \"#utility.yul\":187:199   */\n      revert\n        /* \"#utility.yul\":211:328   */\n    tag_121:\n        /* \"#utility.yul\":320:321   */\n      0x00\n        /* \"#utility.yul\":317:318   */\n      dup1\n        /* \"#utility.yul\":310:322   */\n      revert\n        /* \"#utility.yul\":334:451   */\n    tag_122:\n        /* \"#utility.yul\":443:444   */\n      0x00\n        /* \"#utility.yul\":440:441   */\n      dup1\n        /* \"#utility.yul\":433:445   */\n      revert\n        /* \"#utility.yul\":457:574   */\n    tag_123:\n        /* \"#utility.yul\":566:567   */\n      0x00\n        /* \"#utility.yul\":563:564   */\n      dup1\n        /* \"#utility.yul\":556:568   */\n      revert\n        /* \"#utility.yul\":580:682   */\n    tag_124:\n        /* \"#utility.yul\":621:627   */\n      0x00\n        /* \"#utility.yul\":672:674   */\n      0x1f\n        /* \"#utility.yul\":668:675   */\n      not\n        /* \"#utility.yul\":663:665   */\n      0x1f\n        /* \"#utility.yul\":656:661   */\n      dup4\n        /* \"#utility.yul\":652:666   */\n      add\n        /* \"#utility.yul\":648:676   */\n      and\n        /* \"#utility.yul\":638:676   */\n      swap1\n      pop\n        /* \"#utility.yul\":580:682   */\n      swap2\n      swap1\n      pop\n      jump\t// out\n        /* \"#utility.yul\":688:868   */\n    tag_125:\n        /* \"#utility.yul\":736:813   */\n      0x4e487b7100000000000000000000000000000000000000000000000000000000\n        /* \"#utility.yul\":733:734   */\n      0x00\n        /* \"#utility.yul\":726:814   */\n      mstore\n        /* \"#utility.yul\":833:837   */\n      0x41\n        /* \"#utility.yul\":830:831   */\n      0x04\n        /* \"#utility.yul\":823:838   */\n      mstore\n        /* \"#utility.yul\":857:861   */\n      0x24\n        /* \"#utility.yul\":854:855   */\n      0x00\n        /* \"#utility.yul\":847:862   */\n      revert\n        /* \"#utility.yul\":874:1155   */\n    tag_126:\n        /* \"#utility.yul\":957:984   */\n      tag_183\n        /* \"#utility.yul\":979:983   */\n      dup3\n        /* \"#utility.yul\":957:984   */\n      tag_124\n      jump\t// in\n    tag_183:\n        /* \"#utility.yul\":949:955   */\n      dup2\n        /* \"#utility.yul\":945:985   */\n      add\n        /* \"#utility.yul\":1087:1093   */\n      dup2\n        /* \"#utility.yul\":1075:1085   */\n      dup2\n        /* \"#utility.yul\":1072:1094   */\n      lt\n        /* \"#utility.yul\":1051:1069   */\n      0xffffffffffffffff\n        /* \"#utility.yul\":1039:1049   */\n      dup3\n        /* \"#utility.yul\":1036:1070   */\n      gt\n        /* \"#utility.yul\":1033:1095   */\n      or\n        /* \"#utility.yul\":1030:1118   */\n      iszero\n      tag_184\n      jumpi\n        /* \"#utility.yul\":1098:1116   */\n      tag_185\n      tag_125\n      jump\t// in\n    tag_185:\n        /* \"#utility.yul\":1030:1118   */\n    tag_184:\n        /* \"#utility.yul\":1138:1148   */\n      dup1\n        /* \"#utility.yul\":1134:1136   */\n      0x40\n        /* \"#utility.yul\":1127:1149   */\n      mstore\n        /* \"#utility.yul\":917:1155   */\n      pop\n        /* \"#utility.yul\":874:1155   */\n      pop\n      pop\n      jump\t// out\n        /* \"#utility.yul\":1161:1290   */\n    tag_127:\n        /* \"#utility.yul\":1195:1201   */\n      0x00\n        /* \"#utility.yul\":1222:1242   */\n      tag_187\n      tag_119\n      jump\t// in\n    tag_187:\n        /* \"#utility.yul\":1212:1242   */\n      swap1\n      pop\n        /* \"#utility.yul\":1251:1284   */\n      tag_188\n        /* \"#utility.yul\":1279:1283   */\n      dup3\n        /* \"#utility.yul\":1271:1277   */\n      dup3\n        /* \"#utility.yul\":1251:1284   */\n      tag_126\n      jump\t// in\n    tag_188:\n        /* \"#utility.yul\":1161:1290   */\n      swap2\n      swap1\n      pop\n      jump\t// out\n        /* \"#utility.yul\":1296:1604   */\n    tag_128:\n        /* \"#utility.yul\":1358:1362   */\n      0x00\n        /* \"#utility.yul\":1448:1466   */\n      0xffffffffffffffff\n        /* \"#utility.yul\":1440:1446   */\n      dup3\n        /* \"#utility.yul\":1437:1467   */\n      gt\n        /* \"#utility.yul\":1434:1490   */\n      iszero\n      tag_190\n      jumpi\n        /* \"#utility.yul\":1470:1488   */\n      tag_191\n      tag_125\n      jump\t// in\n    tag_191:\n        /* \"#utility.yul\":1434:1490   */\n    tag_190:\n        /* \"#utility.yul\":1508:1537   */\n      tag_192\n        /* \"#utility.yul\":1530:1536   */\n      dup3\n        /* \"#utility.yul\":1508:1537   */\n      tag_124\n      jump\t// in\n    tag_192:\n        /* \"#utility.yul\":1500:1537   */\n      swap1\n      pop\n        /* \"#utility.yul\":1592:1596   */\n      0x20\n        /* \"#utility.yul\":1586:1590   */\n      dup2\n        /* \"#utility.yul\":1582:1597   */\n      add\n        /* \"#utility.yul\":1574:1597   */\n      swap1\n      pop\n        /* \"#utility.yul\":1296:1604   */\n      swap2\n      swap1\n      pop\n      jump\t// out\n        /* \"#utility.yul\":1610:1758   */\n    tag_129:\n        /* \"#utility.yul\":1708:1714   */\n      dup3\n        /* \"#utility.yul\":1703:1706   */\n      dup2\n        /* \"#utility.yul\":1698:1701   */\n      dup4\n        /* \"#utility.yul\":1685:1715   */\n      calldatacopy\n        /* \"#utility.yul\":1749:1750   */\n      0x00\n        /* \"#utility.yul\":1740:1746   */\n      dup4\n        /* \"#utility.yul\":1735:1738   */\n      dup4\n        /* \"#utility.yul\":1731:1747   */\n      add\n        /* \"#utility.yul\":1724:1751   */\n      mstore\n        /* \"#utility.yul\":1610:1758   */\n      pop\n      pop\n      pop\n      jump\t// out\n        /* \"#utility.yul\":1764:2189   */\n    tag_130:\n        /* \"#utility.yul\":1842:1847   */\n      0x00\n        /* \"#utility.yul\":1867:1933   */\n      tag_195\n        /* \"#utility.yul\":1883:1932   */\n      tag_196\n        /* \"#utility.yul\":1925:1931   */\n      dup5\n        /* \"#utility.yul\":1883:1932   */\n      tag_128\n      jump\t// in\n    tag_196:\n        /* \"#utility.yul\":1867:1933   */\n      tag_127\n      jump\t// in\n    tag_195:\n        /* \"#utility.yul\":1858:1933   */\n      swap1\n      pop\n        /* \"#utility.yul\":1956:1962   */\n      dup3\n        /* \"#utility.yul\":1949:1954   */\n      dup2\n        /* \"#utility.yul\":1942:1963   */\n      mstore\n        /* \"#utility.yul\":1994:1998   */\n      0x20\n        /* \"#utility.yul\":1987:1992   */\n      dup2\n        /* \"#utility.yul\":1983:1999   */\n      add\n        /* \"#utility.yul\":2032:2035   */\n      dup5\n        /* \"#utility.yul\":2023:2029   */\n      dup5\n        /* \"#utility.yul\":2018:2021   */\n      dup5\n        /* \"#utility.yul\":2014:2030   */\n      add\n        /* \"#utility.yul\":2011:2036   */\n      gt\n        /* \"#utility.yul\":2008:2120   */\n      iszero\n      tag_197\n      jumpi\n        /* \"#utility.yul\":2039:2118   */\n      tag_198\n      tag_123\n      jump\t// in\n    tag_198:\n        /* \"#utility.yul\":2008:2120   */\n    tag_197:\n        /* \"#utility.yul\":2129:2183   */\n      tag_199\n        /* \"#utility.yul\":2176:2182   */\n      dup5\n        /* \"#utility.yul\":2171:2174   */\n      dup3\n        /* \"#utility.yul\":2166:2169   */\n      dup6\n        /* \"#utility.yul\":2129:2183   */\n      tag_129\n      jump\t// in\n    tag_199:\n        /* \"#utility.yul\":1848:2189   */\n      pop\n        /* \"#utility.yul\":1764:2189   */\n      swap4\n      swap3\n      pop\n      pop\n      pop\n      jump\t// out\n        /* \"#utility.yul\":2209:2549   */\n    tag_131:\n        /* \"#utility.yul\":2265:2270   */\n      0x00\n        /* \"#utility.yul\":2314:2317   */\n      dup3\n        /* \"#utility.yul\":2307:2311   */\n      0x1f\n        /* \"#utility.yul\":2299:2305   */\n      dup4\n        /* \"#utility.yul\":2295:2312   */\n      add\n        /* \"#utility.yul\":2291:2318   */\n      slt\n        /* \"#utility.yul\":2281:2403   */\n      tag_201\n      jumpi\n        /* \"#utility.yul\":2322:2401   */\n      tag_202\n      tag_122\n      jump\t// in\n    tag_202:\n        /* \"#utility.yul\":2281:2403   */\n    tag_201:\n        /* \"#utility.yul\":2439:2445   */\n      dup2\n        /* \"#utility.yul\":2426:2446   */\n      calldataload\n        /* \"#utility.yul\":2464:2543   */\n      tag_203\n        /* \"#utility.yul\":2539:2542   */\n      dup5\n        /* \"#utility.yul\":2531:2537   */\n      dup3\n        /* \"#utility.yul\":2524:2528   */\n      0x20\n        /* \"#utility.yul\":2516:2522   */\n      dup7\n        /* \"#utility.yul\":2512:2529   */\n      add\n        /* \"#utility.yul\":2464:2543   */\n      tag_130\n      jump\t// in\n    tag_203:\n        /* \"#utility.yul\":2455:2543   */\n      swap2\n      pop\n        /* \"#utility.yul\":2271:2549   */\n      pop\n        /* \"#utility.yul\":2209:2549   */\n      swap3\n      swap2\n      pop\n      pop\n      jump\t// out\n        /* \"#utility.yul\":2555:3064   */\n    tag_16:\n        /* \"#utility.yul\":2624:2630   */\n      0x00\n        /* \"#utility.yul\":2673:2675   */\n      0x20\n        /* \"#utility.yul\":2661:2670   */\n      dup3\n        /* \"#utility.yul\":2652:2659   */\n      dup5\n        /* \"#utility.yul\":2648:2671   */\n      sub\n        /* \"#utility.yul\":2644:2676   */\n      slt\n        /* \"#utility.yul\":2641:2760   */\n      iszero\n      tag_205\n      jumpi\n        /* \"#utility.yul\":2679:2758   */\n      tag_206\n      tag_120\n      jump\t// in\n    tag_206:\n        /* \"#utility.yul\":2641:2760   */\n    tag_205:\n        /* \"#utility.yul\":2827:2828   */\n      0x00\n        /* \"#utility.yul\":2816:2825   */\n      dup3\n        /* \"#utility.yul\":2812:2829   */\n      add\n        /* \"#utility.yul\":2799:2830   */\n      calldataload\n        /* \"#utility.yul\":2857:2875   */\n      0xffffffffffffffff\n        /* \"#utility.yul\":2849:2855   */\n      dup2\n        /* \"#utility.yul\":2846:2876   */\n      gt\n        /* \"#utility.yul\":2843:2960   */\n      iszero\n      tag_207\n      jumpi\n        /* \"#utility.yul\":2879:2958   */\n      tag_208\n      tag_121\n      jump\t// in\n    tag_208:\n        /* \"#utility.yul\":2843:2960   */\n    tag_207:\n        /* \"#utility.yul\":2984:3047   */\n      tag_209\n        /* \"#utility.yul\":3039:3046   */\n      dup5\n        /* \"#utility.yul\":3030:3036   */\n      dup3\n        /* \"#utility.yul\":3019:3028   */\n      dup6\n        /* \"#utility.yul\":3015:3037   */\n      add\n        /* \"#utility.yul\":2984:3047   */\n      tag_131\n      jump\t// in\n    tag_209:\n        /* \"#utility.yul\":2974:3047   */\n      swap2\n      pop\n        /* \"#utility.yul\":2770:3057   */\n      pop\n        /* \"#utility.yul\":2555:3064   */\n      swap3\n      swap2\n      pop\n      pop\n      jump\t// out\n        /* \"#utility.yul\":3070:3160   */\n    tag_132:\n        /* \"#utility.yul\":3104:3111   */\n      0x00\n        /* \"#utility.yul\":3147:3152   */\n      dup2\n        /* \"#utility.yul\":3140:3153   */\n      iszero\n        /* \"#utility.yul\":3133:3154   */\n      iszero\n        /* \"#utility.yul\":3122:3154   */\n      swap1\n      pop\n        /* \"#utility.yul\":3070:3160   */\n      swap2\n      swap1\n      pop\n      jump\t// out\n        /* \"#utility.yul\":3166:3275   */\n    tag_133:\n        /* \"#utility.yul\":3247:3268   */\n      tag_212\n        /* \"#utility.yul\":3262:3267   */\n      dup2\n        /* \"#utility.yul\":3247:3268   */\n      tag_132\n      jump\t// in\n    tag_212:\n        /* \"#utility.yul\":3242:3245   */\n      dup3\n        /* \"#utility.yul\":3235:3269   */\n      mstore\n        /* \"#utility.yul\":3166:3275   */\n      pop\n      pop\n      jump\t// out\n        /* \"#utility.yul\":3281:3491   */\n    tag_19:\n        /* \"#utility.yul\":3368:3372   */\n      0x00\n        /* \"#utility.yul\":3406:3408   */\n      0x20\n        /* \"#utility.yul\":3395:3404   */\n      dup3\n        /* \"#utility.yul\":3391:3409   */\n      add\n        /* \"#utility.yul\":3383:3409   */\n      swap1\n      pop\n        /* \"#utility.yul\":3419:3484   */\n      tag_214\n        /* \"#utility.yul\":3481:3482   */\n      0x00\n        /* \"#utility.yul\":3470:3479   */\n      dup4\n        /* \"#utility.yul\":3466:3483   */\n      add\n        /* \"#utility.yul\":3457:3463   */\n      dup5\n        /* \"#utility.yul\":3419:3484   */\n      tag_133\n      jump\t// in\n    tag_214:\n        /* \"#utility.yul\":3281:3491   */\n      swap3\n      swap2\n      pop\n      pop\n      jump\t// out\n        /* \"#utility.yul\":3497:3574   */\n    tag_134:\n        /* \"#utility.yul\":3534:3541   */\n      0x00\n        /* \"#utility.yul\":3563:3568   */\n      dup2\n        /* \"#utility.yul\":3552:3568   */\n      swap1\n      pop\n        /* \"#utility.yul\":3497:3574   */\n      swap2\n      swap1\n      pop\n      jump\t// out\n        /* \"#utility.yul\":3580:3702   */\n    tag_135:\n        /* \"#utility.yul\":3653:3677   */\n      tag_217\n        /* \"#utility.yul\":3671:3676   */\n      dup2\n        /* \"#utility.yul\":3653:3677   */\n      tag_134\n      jump\t// in\n    tag_217:\n        /* \"#utility.yul\":3646:3651   */\n      dup2\n        /* \"#utility.yul\":3643:3678   */\n      eq\n        /* \"#utility.yul\":3633:3696   */\n      tag_218\n      jumpi\n        /* \"#utility.yul\":3692:3693   */\n      0x00\n        /* \"#utility.yul\":3689:3690   */\n      dup1\n        /* \"#utility.yul\":3682:3694   */\n      revert\n        /* \"#utility.yul\":3633:3696   */\n    tag_218:\n        /* \"#utility.yul\":3580:3702   */\n      pop\n      jump\t// out\n        /* \"#utility.yul\":3708:3847   */\n    tag_136:\n        /* \"#utility.yul\":3754:3759   */\n      0x00\n        /* \"#utility.yul\":3792:3798   */\n      dup2\n        /* \"#utility.yul\":3779:3799   */\n      calldataload\n        /* \"#utility.yul\":3770:3799   */\n      swap1\n      pop\n        /* \"#utility.yul\":3808:3841   */\n      tag_220\n        /* \"#utility.yul\":3835:3840   */\n      dup2\n        /* \"#utility.yul\":3808:3841   */\n      tag_135\n      jump\t// in\n    tag_220:\n        /* \"#utility.yul\":3708:3847   */\n      swap3\n      swap2\n      pop\n      pop\n      jump\t// out\n        /* \"#utility.yul\":3853:4182   */\n    tag_22:\n        /* \"#utility.yul\":3912:3918   */\n      0x00\n        /* \"#utility.yul\":3961:3963   */\n      0x20\n        /* \"#utility.yul\":3949:3958   */\n      dup3\n        /* \"#utility.yul\":3940:3947   */\n      dup5\n        /* \"#utility.yul\":3936:3959   */\n      sub\n        /* \"#utility.yul\":3932:3964   */\n      slt\n        /* \"#utility.yul\":3929:4048   */\n      iszero\n      tag_222\n      jumpi\n        /* \"#utility.yul\":3967:4046   */\n      tag_223\n      tag_120\n      jump\t// in\n    tag_223:\n        /* \"#utility.yul\":3929:4048   */\n    tag_222:\n        /* \"#utility.yul\":4087:4088   */\n      0x00\n        /* \"#utility.yul\":4112:4165   */\n      tag_224\n        /* \"#utility.yul\":4157:4164   */\n      dup5\n        /* \"#utility.yul\":4148:4154   */\n      dup3\n        /* \"#utility.yul\":4137:4146   */\n      dup6\n        /* \"#utility.yul\":4133:4155   */\n      add\n        /* \"#utility.yul\":4112:4165   */\n      tag_136\n      jump\t// in\n    tag_224:\n        /* \"#utility.yul\":4102:4165   */\n      swap2\n      pop\n        /* \"#utility.yul\":4058:4175   */\n      pop\n        /* \"#utility.yul\":3853:4182   */\n      swap3\n      swap2\n      pop\n      pop\n      jump\t// out\n        /* \"#utility.yul\":4188:4287   */\n    tag_137:\n        /* \"#utility.yul\":4240:4246   */\n      0x00\n        /* \"#utility.yul\":4274:4279   */\n      dup2\n        /* \"#utility.yul\":4268:4280   */\n      mload\n        /* \"#utility.yul\":4258:4280   */\n      swap1\n      pop\n        /* \"#utility.yul\":4188:4287   */\n      swap2\n      swap1\n      pop\n      jump\t// out\n        /* \"#utility.yul\":4293:4462   */\n    tag_138:\n        /* \"#utility.yul\":4377:4388   */\n      0x00\n        /* \"#utility.yul\":4411:4417   */\n      dup3\n        /* \"#utility.yul\":4406:4409   */\n      dup3\n        /* \"#utility.yul\":4399:4418   */\n      mstore\n        /* \"#utility.yul\":4451:4455   */\n      0x20\n        /* \"#utility.yul\":4446:4449   */\n      dup3\n        /* \"#utility.yul\":4442:4456   */\n      add\n        /* \"#utility.yul\":4427:4456   */\n      swap1\n      pop\n        /* \"#utility.yul\":4293:4462   */\n      swap3\n      swap2\n      pop\n      pop\n      jump\t// out\n        /* \"#utility.yul\":4468:4607   */\n    tag_139:\n        /* \"#utility.yul\":4557:4563   */\n      dup3\n        /* \"#utility.yul\":4552:4555   */\n      dup2\n        /* \"#utility.yul\":4547:4550   */\n      dup4\n        /* \"#utility.yul\":4541:4564   */\n      mcopy\n        /* \"#utility.yul\":4598:4599   */\n      0x00\n        /* \"#utility.yul\":4589:4595   */\n      dup4\n        /* \"#utility.yul\":4584:4587   */\n      dup4\n        /* \"#utility.yul\":4580:4596   */\n      add\n        /* \"#utility.yul\":4573:4600   */\n      mstore\n        /* \"#utility.yul\":4468:4607   */\n      pop\n      pop\n      pop\n      jump\t// out\n        /* \"#utility.yul\":4613:4990   */\n    tag_140:\n        /* \"#utility.yul\":4701:4704   */\n      0x00\n        /* \"#utility.yul\":4729:4768   */\n      tag_229\n        /* \"#utility.yul\":4762:4767   */\n      dup3\n        /* \"#utility.yul\":4729:4768   */\n      tag_137\n      jump\t// in\n    tag_229:\n        /* \"#utility.yul\":4784:4855   */\n      tag_230\n        /* \"#utility.yul\":4848:4854   */\n      dup2\n        /* \"#utility.yul\":4843:4846   */\n      dup6\n        /* \"#utility.yul\":4784:4855   */\n      tag_138\n      jump\t// in\n    tag_230:\n        /* \"#utility.yul\":4777:4855   */\n      swap4\n      pop\n        /* \"#utility.yul\":4864:4929   */\n      tag_231\n        /* \"#utility.yul\":4922:4928   */\n      dup2\n        /* \"#utility.yul\":4917:4920   */\n      dup6\n        /* \"#utility.yul\":4910:4914   */\n      0x20\n        /* \"#utility.yul\":4903:4908   */\n      dup7\n        /* \"#utility.yul\":4899:4915   */\n      add\n        /* \"#utility.yul\":4864:4929   */\n      tag_139\n      jump\t// in\n    tag_231:\n        /* \"#utility.yul\":4954:4983   */\n      tag_232\n        /* \"#utility.yul\":4976:4982   */\n      dup2\n        /* \"#utility.yul\":4954:4983   */\n      tag_124\n      jump\t// in\n    tag_232:\n        /* \"#utility.yul\":4949:4952   */\n      dup5\n        /* \"#utility.yul\":4945:4984   */\n      add\n        /* \"#utility.yul\":4938:4984   */\n      swap2\n      pop\n        /* \"#utility.yul\":4705:4990   */\n      pop\n        /* \"#utility.yul\":4613:4990   */\n      swap3\n      swap2\n      pop\n      pop\n      jump\t// out\n        /* \"#utility.yul\":4996:5309   */\n    tag_25:\n        /* \"#utility.yul\":5109:5113   */\n      0x00\n        /* \"#utility.yul\":5147:5149   */\n      0x20\n        /* \"#utility.yul\":5136:5145   */\n      dup3\n        /* \"#utility.yul\":5132:5150   */\n      add\n        /* \"#utility.yul\":5124:5150   */\n      swap1\n      pop\n        /* \"#utility.yul\":5196:5205   */\n      dup2\n        /* \"#utility.yul\":5190:5194   */\n      dup2\n        /* \"#utility.yul\":5186:5206   */\n      sub\n        /* \"#utility.yul\":5182:5183   */\n      0x00\n        /* \"#utility.yul\":5171:5180   */\n      dup4\n        /* \"#utility.yul\":5167:5184   */\n      add\n        /* \"#utility.yul\":5160:5207   */\n      mstore\n        /* \"#utility.yul\":5224:5302   */\n      tag_234\n        /* \"#utility.yul\":5297:5301   */\n      dup2\n        /* \"#utility.yul\":5288:5294   */\n      dup5\n        /* \"#utility.yul\":5224:5302   */\n      tag_140\n      jump\t// in\n    tag_234:\n        /* \"#utility.yul\":5216:5302   */\n      swap1\n      pop\n        /* \"#utility.yul\":4996:5309   */\n      swap3\n      swap2\n      pop\n      pop\n      jump\t// out\n        /* \"#utility.yul\":5315:5433   */\n    tag_141:\n        /* \"#utility.yul\":5402:5426   */\n      tag_236\n        /* \"#utility.yul\":5420:5425   */\n      dup2\n        /* \"#utility.yul\":5402:5426   */\n      tag_134\n      jump\t// in\n    tag_236:\n        /* \"#utility.yul\":5397:5400   */\n      dup3\n        /* \"#utility.yul\":5390:5427   */\n      mstore\n        /* \"#utility.yul\":5315:5433   */\n      pop\n      pop\n      jump\t// out\n        /* \"#utility.yul\":5439:5661   */\n    tag_34:\n        /* \"#utility.yul\":5532:5536   */\n      0x00\n        /* \"#utility.yul\":5570:5572   */\n      0x20\n        /* \"#utility.yul\":5559:5568   */\n      dup3\n        /* \"#utility.yul\":5555:5573   */\n      add\n        /* \"#utility.yul\":5547:5573   */\n      swap1\n      pop\n        /* \"#utility.yul\":5583:5654   */\n      tag_238\n        /* \"#utility.yul\":5651:5652   */\n      0x00\n        /* \"#utility.yul\":5640:5649   */\n      dup4\n        /* \"#utility.yul\":5636:5653   */\n      add\n        /* \"#utility.yul\":5627:5633   */\n      dup5\n        /* \"#utility.yul\":5583:5654   */\n      tag_141\n      jump\t// in\n    tag_238:\n        /* \"#utility.yul\":5439:5661   */\n      swap3\n      swap2\n      pop\n      pop\n      jump\t// out\n        /* \"#utility.yul\":5667:5793   */\n    tag_142:\n        /* \"#utility.yul\":5704:5711   */\n      0x00\n        /* \"#utility.yul\":5744:5786   */\n      0xffffffffffffffffffffffffffffffffffffffff\n        /* \"#utility.yul\":5737:5742   */\n      dup3\n        /* \"#utility.yul\":5733:5787   */\n      and\n        /* \"#utility.yul\":5722:5787   */\n      swap1\n      pop\n        /* \"#utility.yul\":5667:5793   */\n      swap2\n      swap1\n      pop\n      jump\t// out\n        /* \"#utility.yul\":5799:5895   */\n    tag_143:\n        /* \"#utility.yul\":5836:5843   */\n      0x00\n        /* \"#utility.yul\":5865:5889   */\n      tag_241\n        /* \"#utility.yul\":5883:5888   */\n      dup3\n        /* \"#utility.yul\":5865:5889   */\n      tag_142\n      jump\t// in\n    tag_241:\n        /* \"#utility.yul\":5854:5889   */\n      swap1\n      pop\n        /* \"#utility.yul\":5799:5895   */\n      swap2\n      swap1\n      pop\n      jump\t// out\n        /* \"#utility.yul\":5901:6019   */\n    tag_144:\n        /* \"#utility.yul\":5988:6012   */\n      tag_243\n        /* \"#utility.yul\":6006:6011   */\n      dup2\n        /* \"#utility.yul\":5988:6012   */\n      tag_143\n      jump\t// in\n    tag_243:\n        /* \"#utility.yul\":5983:5986   */\n      dup3\n        /* \"#utility.yul\":5976:6013   */\n      mstore\n        /* \"#utility.yul\":5901:6019   */\n      pop\n      pop\n      jump\t// out\n        /* \"#utility.yul\":6025:6247   */\n    tag_38:\n        /* \"#utility.yul\":6118:6122   */\n      0x00\n        /* \"#utility.yul\":6156:6158   */\n      0x20\n        /* \"#utility.yul\":6145:6154   */\n      dup3\n        /* \"#utility.yul\":6141:6159   */\n      add\n        /* \"#utility.yul\":6133:6159   */\n      swap1\n      pop\n        /* \"#utility.yul\":6169:6240   */\n      tag_245\n        /* \"#utility.yul\":6237:6238   */\n      0x00\n        /* \"#utility.yul\":6226:6235   */\n      dup4\n        /* \"#utility.yul\":6222:6239   */\n      add\n        /* \"#utility.yul\":6213:6219   */\n      dup5\n        /* \"#utility.yul\":6169:6240   */\n      tag_144\n      jump\t// in\n    tag_245:\n        /* \"#utility.yul\":6025:6247   */\n      swap3\n      swap2\n      pop\n      pop\n      jump\t// out\n        /* \"#utility.yul\":6253:6377   */\n    tag_145:\n        /* \"#utility.yul\":6330:6336   */\n      0x00\n        /* \"#utility.yul\":6364:6369   */\n      dup2\n        /* \"#utility.yul\":6358:6370   */\n      mload\n        /* \"#utility.yul\":6348:6370   */\n      swap1\n      pop\n        /* \"#utility.yul\":6253:6377   */\n      swap2\n      swap1\n      pop\n      jump\t// out\n        /* \"#utility.yul\":6383:6577   */\n    tag_146:\n        /* \"#utility.yul\":6492:6503   */\n      0x00\n        /* \"#utility.yul\":6526:6532   */\n      dup3\n        /* \"#utility.yul\":6521:6524   */\n      dup3\n        /* \"#utility.yul\":6514:6533   */\n      mstore\n        /* \"#utility.yul\":6566:6570   */\n      0x20\n        /* \"#utility.yul\":6561:6564   */\n      dup3\n        /* \"#utility.yul\":6557:6571   */\n      add\n        /* \"#utility.yul\":6542:6571   */\n      swap1\n      pop\n        /* \"#utility.yul\":6383:6577   */\n      swap3\n      swap2\n      pop\n      pop\n      jump\t// out\n        /* \"#utility.yul\":6583:6725   */\n    tag_147:\n        /* \"#utility.yul\":6660:6664   */\n      0x00\n        /* \"#utility.yul\":6683:6686   */\n      dup2\n        /* \"#utility.yul\":6675:6686   */\n      swap1\n      pop\n        /* \"#utility.yul\":6713:6717   */\n      0x20\n        /* \"#utility.yul\":6708:6711   */\n      dup3\n        /* \"#utility.yul\":6704:6718   */\n      add\n        /* \"#utility.yul\":6696:6718   */\n      swap1\n      pop\n        /* \"#utility.yul\":6583:6725   */\n      swap2\n      swap1\n      pop\n      jump\t// out\n        /* \"#utility.yul\":6731:6890   */\n    tag_148:\n        /* \"#utility.yul\":6805:6816   */\n      0x00\n        /* \"#utility.yul\":6839:6845   */\n      dup3\n        /* \"#utility.yul\":6834:6837   */\n      dup3\n        /* \"#utility.yul\":6827:6846   */\n      mstore\n        /* \"#utility.yul\":6879:6883   */\n      0x20\n        /* \"#utility.yul\":6874:6877   */\n      dup3\n        /* \"#utility.yul\":6870:6884   */\n      add\n        /* \"#utility.yul\":6855:6884   */\n      swap1\n      pop\n        /* \"#utility.yul\":6731:6890   */\n      swap3\n      swap2\n      pop\n      pop\n      jump\t// out\n        /* \"#utility.yul\":6896:7253   */\n    tag_149:\n        /* \"#utility.yul\":6974:6977   */\n      0x00\n        /* \"#utility.yul\":7002:7041   */\n      tag_251\n        /* \"#utility.yul\":7035:7040   */\n      dup3\n        /* \"#utility.yul\":7002:7041   */\n      tag_137\n      jump\t// in\n    tag_251:\n        /* \"#utility.yul\":7057:7118   */\n      tag_252\n        /* \"#utility.yul\":7111:7117   */\n      dup2\n        /* \"#utility.yul\":7106:7109   */\n      dup6\n        /* \"#utility.yul\":7057:7118   */\n      tag_148\n      jump\t// in\n    tag_252:\n        /* \"#utility.yul\":7050:7118   */\n      swap4\n      pop\n        /* \"#utility.yul\":7127:7192   */\n      tag_253\n        /* \"#utility.yul\":7185:7191   */\n      dup2\n        /* \"#utility.yul\":7180:7183   */\n      dup6\n        /* \"#utility.yul\":7173:7177   */\n      0x20\n        /* \"#utility.yul\":7166:7171   */\n      dup7\n        /* \"#utility.yul\":7162:7178   */\n      add\n        /* \"#utility.yul\":7127:7192   */\n      tag_139\n      jump\t// in\n    tag_253:\n        /* \"#utility.yul\":7217:7246   */\n      tag_254\n        /* \"#utility.yul\":7239:7245   */\n      dup2\n        /* \"#utility.yul\":7217:7246   */\n      tag_124\n      jump\t// in\n    tag_254:\n        /* \"#utility.yul\":7212:7215   */\n      dup5\n        /* \"#utility.yul\":7208:7247   */\n      add\n        /* \"#utility.yul\":7201:7247   */\n      swap2\n      pop\n        /* \"#utility.yul\":6978:7253   */\n      pop\n        /* \"#utility.yul\":6896:7253   */\n      swap3\n      swap2\n      pop\n      pop\n      jump\t// out\n        /* \"#utility.yul\":7259:7455   */\n    tag_150:\n        /* \"#utility.yul\":7348:7358   */\n      0x00\n        /* \"#utility.yul\":7383:7449   */\n      tag_256\n        /* \"#utility.yul\":7445:7448   */\n      dup4\n        /* \"#utility.yul\":7437:7443   */\n      dup4\n        /* \"#utility.yul\":7383:7449   */\n      tag_149\n      jump\t// in\n    tag_256:\n        /* \"#utility.yul\":7369:7449   */\n      swap1\n      pop\n        /* \"#utility.yul\":7259:7455   */\n      swap3\n      swap2\n      pop\n      pop\n      jump\t// out\n        /* \"#utility.yul\":7461:7584   */\n    tag_151:\n        /* \"#utility.yul\":7541:7545   */\n      0x00\n        /* \"#utility.yul\":7573:7577   */\n      0x20\n        /* \"#utility.yul\":7568:7571   */\n      dup3\n        /* \"#utility.yul\":7564:7578   */\n      add\n        /* \"#utility.yul\":7556:7578   */\n      swap1\n      pop\n        /* \"#utility.yul\":7461:7584   */\n      swap2\n      swap1\n      pop\n      jump\t// out\n        /* \"#utility.yul\":7618:8609   */\n    tag_152:\n        /* \"#utility.yul\":7757:7760   */\n      0x00\n        /* \"#utility.yul\":7786:7850   */\n      tag_259\n        /* \"#utility.yul\":7844:7849   */\n      dup3\n        /* \"#utility.yul\":7786:7850   */\n      tag_145\n      jump\t// in\n    tag_259:\n        /* \"#utility.yul\":7866:7962   */\n      tag_260\n        /* \"#utility.yul\":7955:7961   */\n      dup2\n        /* \"#utility.yul\":7950:7953   */\n      dup6\n        /* \"#utility.yul\":7866:7962   */\n      tag_146\n      jump\t// in\n    tag_260:\n        /* \"#utility.yul\":7859:7962   */\n      swap4\n      pop\n        /* \"#utility.yul\":7988:7991   */\n      dup4\n        /* \"#utility.yul\":8033:8037   */\n      0x20\n        /* \"#utility.yul\":8025:8031   */\n      dup3\n        /* \"#utility.yul\":8021:8038   */\n      mul\n        /* \"#utility.yul\":8016:8019   */\n      dup6\n        /* \"#utility.yul\":8012:8039   */\n      add\n        /* \"#utility.yul\":8063:8129   */\n      tag_261\n        /* \"#utility.yul\":8123:8128   */\n      dup6\n        /* \"#utility.yul\":8063:8129   */\n      tag_147\n      jump\t// in\n    tag_261:\n        /* \"#utility.yul\":8152:8159   */\n      dup1\n        /* \"#utility.yul\":8183:8184   */\n      0x00\n        /* \"#utility.yul\":8168:8564   */\n    tag_262:\n        /* \"#utility.yul\":8193:8199   */\n      dup6\n        /* \"#utility.yul\":8190:8191   */\n      dup2\n        /* \"#utility.yul\":8187:8200   */\n      lt\n        /* \"#utility.yul\":8168:8564   */\n      iszero\n      tag_264\n      jumpi\n        /* \"#utility.yul\":8264:8273   */\n      dup5\n        /* \"#utility.yul\":8258:8262   */\n      dup5\n        /* \"#utility.yul\":8254:8274   */\n      sub\n        /* \"#utility.yul\":8249:8252   */\n      dup10\n        /* \"#utility.yul\":8242:8275   */\n      mstore\n        /* \"#utility.yul\":8315:8321   */\n      dup2\n        /* \"#utility.yul\":8309:8322   */\n      mload\n        /* \"#utility.yul\":8343:8427   */\n      tag_265\n        /* \"#utility.yul\":8422:8426   */\n      dup6\n        /* \"#utility.yul\":8407:8420   */\n      dup3\n        /* \"#utility.yul\":8343:8427   */\n      tag_150\n      jump\t// in\n    tag_265:\n        /* \"#utility.yul\":8335:8427   */\n      swap5\n      pop\n        /* \"#utility.yul\":8450:8520   */\n      tag_266\n        /* \"#utility.yul\":8513:8519   */\n      dup4\n        /* \"#utility.yul\":8450:8520   */\n      tag_151\n      jump\t// in\n    tag_266:\n        /* \"#utility.yul\":8440:8520   */\n      swap3\n      pop\n        /* \"#utility.yul\":8549:8553   */\n      0x20\n        /* \"#utility.yul\":8544:8547   */\n      dup11\n        /* \"#utility.yul\":8540:8554   */\n      add\n        /* \"#utility.yul\":8533:8554   */\n      swap10\n      pop\n        /* \"#utility.yul\":8228:8564   */\n      pop\n        /* \"#utility.yul\":8215:8216   */\n      0x01\n        /* \"#utility.yul\":8212:8213   */\n      dup2\n        /* \"#utility.yul\":8208:8217   */\n      add\n        /* \"#utility.yul\":8203:8217   */\n      swap1\n      pop\n        /* \"#utility.yul\":8168:8564   */\n      jump(tag_262)\n    tag_264:\n        /* \"#utility.yul\":8172:8186   */\n      pop\n        /* \"#utility.yul\":8580:8584   */\n      dup3\n        /* \"#utility.yul\":8573:8584   */\n      swap8\n      pop\n        /* \"#utility.yul\":8600:8603   */\n      dup8\n        /* \"#utility.yul\":8593:8603   */\n      swap6\n      pop\n        /* \"#utility.yul\":7762:8609   */\n      pop\n      pop\n      pop\n      pop\n      pop\n        /* \"#utility.yul\":7618:8609   */\n      swap3\n      swap2\n      pop\n      pop\n      jump\t// out\n        /* \"#utility.yul\":8615:9028   */\n    tag_48:\n        /* \"#utility.yul\":8778:8782   */\n      0x00\n        /* \"#utility.yul\":8816:8818   */\n      0x20\n        /* \"#utility.yul\":8805:8814   */\n      dup3\n        /* \"#utility.yul\":8801:8819   */\n      add\n        /* \"#utility.yul\":8793:8819   */\n      swap1\n      pop\n        /* \"#utility.yul\":8865:8874   */\n      dup2\n        /* \"#utility.yul\":8859:8863   */\n      dup2\n        /* \"#utility.yul\":8855:8875   */\n      sub\n        /* \"#utility.yul\":8851:8852   */\n      0x00\n        /* \"#utility.yul\":8840:8849   */\n      dup4\n        /* \"#utility.yul\":8836:8853   */\n      add\n        /* \"#utility.yul\":8829:8876   */\n      mstore\n        /* \"#utility.yul\":8893:9021   */\n      tag_268\n        /* \"#utility.yul\":9016:9020   */\n      dup2\n        /* \"#utility.yul\":9007:9013   */\n      dup5\n        /* \"#utility.yul\":8893:9021   */\n      tag_152\n      jump\t// in\n    tag_268:\n        /* \"#utility.yul\":8885:9021   */\n      swap1\n      pop\n        /* \"#utility.yul\":8615:9028   */\n      swap3\n      swap2\n      pop\n      pop\n      jump\t// out\n        /* \"#utility.yul\":9034:9156   */\n    tag_153:\n        /* \"#utility.yul\":9107:9131   */\n      tag_270\n        /* \"#utility.yul\":9125:9130   */\n      dup2\n        /* \"#utility.yul\":9107:9131   */\n      tag_143\n      jump\t// in\n    tag_270:\n        /* \"#utility.yul\":9100:9105   */\n      dup2\n        /* \"#utility.yul\":9097:9132   */\n      eq\n        /* \"#utility.yul\":9087:9150   */\n      tag_271\n      jumpi\n        /* \"#utility.yul\":9146:9147   */\n      0x00\n        /* \"#utility.yul\":9143:9144   */\n      dup1\n        /* \"#utility.yul\":9136:9148   */\n      revert\n        /* \"#utility.yul\":9087:9150   */\n    tag_271:\n        /* \"#utility.yul\":9034:9156   */\n      pop\n      jump\t// out\n        /* \"#utility.yul\":9162:9301   */\n    tag_154:\n        /* \"#utility.yul\":9208:9213   */\n      0x00\n        /* \"#utility.yul\":9246:9252   */\n      dup2\n        /* \"#utility.yul\":9233:9253   */\n      calldataload\n        /* \"#utility.yul\":9224:9253   */\n      swap1\n      pop\n        /* \"#utility.yul\":9262:9295   */\n      tag_273\n        /* \"#utility.yul\":9289:9294   */\n      dup2\n        /* \"#utility.yul\":9262:9295   */\n      tag_153\n      jump\t// in\n    tag_273:\n        /* \"#utility.yul\":9162:9301   */\n      swap3\n      swap2\n      pop\n      pop\n      jump\t// out\n        /* \"#utility.yul\":9307:9636   */\n    tag_51:\n        /* \"#utility.yul\":9366:9372   */\n      0x00\n        /* \"#utility.yul\":9415:9417   */\n      0x20\n        /* \"#utility.yul\":9403:9412   */\n      dup3\n        /* \"#utility.yul\":9394:9401   */\n      dup5\n        /* \"#utility.yul\":9390:9413   */\n      sub\n        /* \"#utility.yul\":9386:9418   */\n      slt\n        /* \"#utility.yul\":9383:9502   */\n      iszero\n      tag_275\n      jumpi\n        /* \"#utility.yul\":9421:9500   */\n      tag_276\n      tag_120\n      jump\t// in\n    tag_276:\n        /* \"#utility.yul\":9383:9502   */\n    tag_275:\n        /* \"#utility.yul\":9541:9542   */\n      0x00\n        /* \"#utility.yul\":9566:9619   */\n      tag_277\n        /* \"#utility.yul\":9611:9618   */\n      dup5\n        /* \"#utility.yul\":9602:9608   */\n      dup3\n        /* \"#utility.yul\":9591:9600   */\n      dup6\n        /* \"#utility.yul\":9587:9609   */\n      add\n        /* \"#utility.yul\":9566:9619   */\n      tag_154\n      jump\t// in\n    tag_277:\n        /* \"#utility.yul\":9556:9619   */\n      swap2\n      pop\n        /* \"#utility.yul\":9512:9629   */\n      pop\n        /* \"#utility.yul\":9307:9636   */\n      swap3\n      swap2\n      pop\n      pop\n      jump\t// out\n        /* \"#utility.yul\":9642:9822   */\n    tag_59:\n        /* \"#utility.yul\":9690:9767   */\n      0x4e487b7100000000000000000000000000000000000000000000000000000000\n        /* \"#utility.yul\":9687:9688   */\n      0x00\n        /* \"#utility.yul\":9680:9768   */\n      mstore\n        /* \"#utility.yul\":9787:9791   */\n      0x32\n        /* \"#utility.yul\":9784:9785   */\n      0x04\n        /* \"#utility.yul\":9777:9792   */\n      mstore\n        /* \"#utility.yul\":9811:9815   */\n      0x24\n        /* \"#utility.yul\":9808:9809   */\n      0x00\n        /* \"#utility.yul\":9801:9816   */\n      revert\n        /* \"#utility.yul\":9828:10008   */\n    tag_155:\n        /* \"#utility.yul\":9876:9953   */\n      0x4e487b7100000000000000000000000000000000000000000000000000000000\n        /* \"#utility.yul\":9873:9874   */\n      0x00\n        /* \"#utility.yul\":9866:9954   */\n      mstore\n        /* \"#utility.yul\":9973:9977   */\n      0x22\n        /* \"#utility.yul\":9970:9971   */\n      0x04\n        /* \"#utility.yul\":9963:9978   */\n      mstore\n        /* \"#utility.yul\":9997:10001   */\n      0x24\n        /* \"#utility.yul\":9994:9995   */\n      0x00\n        /* \"#utility.yul\":9987:10002   */\n      revert\n        /* \"#utility.yul\":10014:10334   */\n    tag_69:\n        /* \"#utility.yul\":10058:10064   */\n      0x00\n        /* \"#utility.yul\":10095:10096   */\n      0x02\n        /* \"#utility.yul\":10089:10093   */\n      dup3\n        /* \"#utility.yul\":10085:10097   */\n      div\n        /* \"#utility.yul\":10075:10097   */\n      swap1\n      pop\n        /* \"#utility.yul\":10142:10143   */\n      0x01\n        /* \"#utility.yul\":10136:10140   */\n      dup3\n        /* \"#utility.yul\":10132:10144   */\n      and\n        /* \"#utility.yul\":10163:10181   */\n      dup1\n        /* \"#utility.yul\":10153:10234   */\n      tag_281\n      jumpi\n        /* \"#utility.yul\":10219:10223   */\n      0x7f\n        /* \"#utility.yul\":10211:10217   */\n      dup3\n        /* \"#utility.yul\":10207:10224   */\n      and\n        /* \"#utility.yul\":10197:10224   */\n      swap2\n      pop\n        /* \"#utility.yul\":10153:10234   */\n    tag_281:\n        /* \"#utility.yul\":10281:10283   */\n      0x20\n        /* \"#utility.yul\":10273:10279   */\n      dup3\n        /* \"#utility.yul\":10270:10284   */\n      lt\n        /* \"#utility.yul\":10250:10268   */\n      dup2\n        /* \"#utility.yul\":10247:10285   */\n      sub\n        /* \"#utility.yul\":10244:10328   */\n      tag_282\n      jumpi\n        /* \"#utility.yul\":10300:10318   */\n      tag_283\n      tag_155\n      jump\t// in\n    tag_283:\n        /* \"#utility.yul\":10244:10328   */\n    tag_282:\n        /* \"#utility.yul\":10065:10334   */\n      pop\n        /* \"#utility.yul\":10014:10334   */\n      swap2\n      swap1\n      pop\n      jump\t// out\n        /* \"#utility.yul\":10340:10488   */\n    tag_156:\n        /* \"#utility.yul\":10442:10453   */\n      0x00\n        /* \"#utility.yul\":10479:10482   */\n      dup2\n        /* \"#utility.yul\":10464:10482   */\n      swap1\n      pop\n        /* \"#utility.yul\":10340:10488   */\n      swap3\n      swap2\n      pop\n      pop\n      jump\t// out\n        /* \"#utility.yul\":10494:10635   */\n    tag_157:\n        /* \"#utility.yul\":10543:10547   */\n      0x00\n        /* \"#utility.yul\":10566:10569   */\n      dup2\n        /* \"#utility.yul\":10558:10569   */\n      swap1\n      pop\n        /* \"#utility.yul\":10589:10592   */\n      dup2\n        /* \"#utility.yul\":10586:10587   */\n      0x00\n        /* \"#utility.yul\":10579:10593   */\n      mstore\n        /* \"#utility.yul\":10623:10627   */\n      0x20\n        /* \"#utility.yul\":10620:10621   */\n      0x00\n        /* \"#utility.yul\":10610:10628   */\n      keccak256\n        /* \"#utility.yul\":10602:10628   */\n      swap1\n      pop\n        /* \"#utility.yul\":10494:10635   */\n      swap2\n      swap1\n      pop\n      jump\t// out\n        /* \"#utility.yul\":10665:11539   */\n    tag_158:\n        /* \"#utility.yul\":10768:10771   */\n      0x00\n        /* \"#utility.yul\":10805:10810   */\n      dup2\n        /* \"#utility.yul\":10799:10811   */\n      sload\n        /* \"#utility.yul\":10834:10870   */\n      tag_287\n        /* \"#utility.yul\":10860:10869   */\n      dup2\n        /* \"#utility.yul\":10834:10870   */\n      tag_69\n      jump\t// in\n    tag_287:\n        /* \"#utility.yul\":10886:10975   */\n      tag_288\n        /* \"#utility.yul\":10968:10974   */\n      dup2\n        /* \"#utility.yul\":10963:10966   */\n      dup7\n        /* \"#utility.yul\":10886:10975   */\n      tag_156\n      jump\t// in\n    tag_288:\n        /* \"#utility.yul\":10879:10975   */\n      swap5\n      pop\n        /* \"#utility.yul\":11006:11007   */\n      0x01\n        /* \"#utility.yul\":10995:11004   */\n      dup3\n        /* \"#utility.yul\":10991:11008   */\n      and\n        /* \"#utility.yul\":11022:11023   */\n      0x00\n        /* \"#utility.yul\":11017:11183   */\n      dup2\n      eq\n      tag_290\n      jumpi\n        /* \"#utility.yul\":11197:11198   */\n      0x01\n        /* \"#utility.yul\":11192:11533   */\n      dup2\n      eq\n      tag_291\n      jumpi\n        /* \"#utility.yul\":10984:11533   */\n      jump(tag_289)\n        /* \"#utility.yul\":11017:11183   */\n    tag_290:\n        /* \"#utility.yul\":11101:11105   */\n      0xff\n        /* \"#utility.yul\":11097:11106   */\n      not\n        /* \"#utility.yul\":11086:11095   */\n      dup4\n        /* \"#utility.yul\":11082:11107   */\n      and\n        /* \"#utility.yul\":11077:11080   */\n      dup7\n        /* \"#utility.yul\":11070:11108   */\n      mstore\n        /* \"#utility.yul\":11163:11169   */\n      dup2\n        /* \"#utility.yul\":11156:11170   */\n      iszero\n        /* \"#utility.yul\":11149:11171   */\n      iszero\n        /* \"#utility.yul\":11141:11147   */\n      dup3\n        /* \"#utility.yul\":11137:11172   */\n      mul\n        /* \"#utility.yul\":11132:11135   */\n      dup7\n        /* \"#utility.yul\":11128:11173   */\n      add\n        /* \"#utility.yul\":11121:11173   */\n      swap4\n      pop\n        /* \"#utility.yul\":11017:11183   */\n      jump(tag_289)\n        /* \"#utility.yul\":11192:11533   */\n    tag_291:\n        /* \"#utility.yul\":11259:11297   */\n      tag_292\n        /* \"#utility.yul\":11291:11296   */\n      dup6\n        /* \"#utility.yul\":11259:11297   */\n      tag_157\n      jump\t// in\n    tag_292:\n        /* \"#utility.yul\":11319:11320   */\n      0x00\n        /* \"#utility.yul\":11333:11487   */\n    tag_293:\n        /* \"#utility.yul\":11347:11353   */\n      dup4\n        /* \"#utility.yul\":11344:11345   */\n      dup2\n        /* \"#utility.yul\":11341:11354   */\n      lt\n        /* \"#utility.yul\":11333:11487   */\n      iszero\n      tag_295\n      jumpi\n        /* \"#utility.yul\":11421:11428   */\n      dup2\n        /* \"#utility.yul\":11415:11429   */\n      sload\n        /* \"#utility.yul\":11411:11412   */\n      dup2\n        /* \"#utility.yul\":11406:11409   */\n      dup10\n        /* \"#utility.yul\":11402:11413   */\n      add\n        /* \"#utility.yul\":11395:11430   */\n      mstore\n        /* \"#utility.yul\":11471:11472   */\n      0x01\n        /* \"#utility.yul\":11462:11469   */\n      dup3\n        /* \"#utility.yul\":11458:11473   */\n      add\n        /* \"#utility.yul\":11447:11473   */\n      swap2\n      pop\n        /* \"#utility.yul\":11369:11373   */\n      0x20\n        /* \"#utility.yul\":11366:11367   */\n      dup2\n        /* \"#utility.yul\":11362:11374   */\n      add\n        /* \"#utility.yul\":11357:11374   */\n      swap1\n      pop\n        /* \"#utility.yul\":11333:11487   */\n      jump(tag_293)\n    tag_295:\n        /* \"#utility.yul\":11516:11522   */\n      dup4\n        /* \"#utility.yul\":11511:11514   */\n      dup9\n        /* \"#utility.yul\":11507:11523   */\n      add\n        /* \"#utility.yul\":11500:11523   */\n      swap6\n      pop\n        /* \"#utility.yul\":11199:11533   */\n      pop\n      pop\n        /* \"#utility.yul\":10984:11533   */\n    tag_289:\n      pop\n        /* \"#utility.yul\":10772:11539   */\n      pop\n      pop\n        /* \"#utility.yul\":10665:11539   */\n      swap3\n      swap2\n      pop\n      pop\n      jump\t// out\n        /* \"#utility.yul\":11545:11814   */\n    tag_62:\n        /* \"#utility.yul\":11674:11677   */\n      0x00\n        /* \"#utility.yul\":11696:11788   */\n      tag_297\n        /* \"#utility.yul\":11784:11787   */\n      dup3\n        /* \"#utility.yul\":11775:11781   */\n      dup5\n        /* \"#utility.yul\":11696:11788   */\n      tag_158\n      jump\t// in\n    tag_297:\n        /* \"#utility.yul\":11689:11788   */\n      swap2\n      pop\n        /* \"#utility.yul\":11805:11808   */\n      dup2\n        /* \"#utility.yul\":11798:11808   */\n      swap1\n      pop\n        /* \"#utility.yul\":11545:11814   */\n      swap3\n      swap2\n      pop\n      pop\n      jump\t// out\n        /* \"#utility.yul\":11820:12210   */\n    tag_159:\n        /* \"#utility.yul\":11926:11929   */\n      0x00\n        /* \"#utility.yul\":11954:11993   */\n      tag_299\n        /* \"#utility.yul\":11987:11992   */\n      dup3\n        /* \"#utility.yul\":11954:11993   */\n      tag_137\n      jump\t// in\n    tag_299:\n        /* \"#utility.yul\":12009:12098   */\n      tag_300\n        /* \"#utility.yul\":12091:12097   */\n      dup2\n        /* \"#utility.yul\":12086:12089   */\n      dup6\n        /* \"#utility.yul\":12009:12098   */\n      tag_156\n      jump\t// in\n    tag_300:\n        /* \"#utility.yul\":12002:12098   */\n      swap4\n      pop\n        /* \"#utility.yul\":12107:12172   */\n      tag_301\n        /* \"#utility.yul\":12165:12171   */\n      dup2\n        /* \"#utility.yul\":12160:12163   */\n      dup6\n        /* \"#utility.yul\":12153:12157   */\n      0x20\n        /* \"#utility.yul\":12146:12151   */\n      dup7\n        /* \"#utility.yul\":12142:12158   */\n      add\n        /* \"#utility.yul\":12107:12172   */\n      tag_139\n      jump\t// in\n    tag_301:\n        /* \"#utility.yul\":12197:12203   */\n      dup1\n        /* \"#utility.yul\":12192:12195   */\n      dup5\n        /* \"#utility.yul\":12188:12204   */\n      add\n        /* \"#utility.yul\":12181:12204   */\n      swap2\n      pop\n        /* \"#utility.yul\":11930:12210   */\n      pop\n        /* \"#utility.yul\":11820:12210   */\n      swap3\n      swap2\n      pop\n      pop\n      jump\t// out\n        /* \"#utility.yul\":12216:12491   */\n    tag_64:\n        /* \"#utility.yul\":12348:12351   */\n      0x00\n        /* \"#utility.yul\":12370:12465   */\n      tag_303\n        /* \"#utility.yul\":12461:12464   */\n      dup3\n        /* \"#utility.yul\":12452:12458   */\n      dup5\n        /* \"#utility.yul\":12370:12465   */\n      tag_159\n      jump\t// in\n    tag_303:\n        /* \"#utility.yul\":12363:12465   */\n      swap2\n      pop\n        /* \"#utility.yul\":12482:12485   */\n      dup2\n        /* \"#utility.yul\":12475:12485   */\n      swap1\n      pop\n        /* \"#utility.yul\":12216:12491   */\n      swap3\n      swap2\n      pop\n      pop\n      jump\t// out\n        /* \"#utility.yul\":12497:12590   */\n    tag_160:\n        /* \"#utility.yul\":12534:12540   */\n      0x00\n        /* \"#utility.yul\":12581:12583   */\n      0x20\n        /* \"#utility.yul\":12576:12578   */\n      0x1f\n        /* \"#utility.yul\":12569:12574   */\n      dup4\n        /* \"#utility.yul\":12565:12579   */\n      add\n        /* \"#utility.yul\":12561:12584   */\n      div\n        /* \"#utility.yul\":12551:12584   */\n      swap1\n      pop\n        /* \"#utility.yul\":12497:12590   */\n      swap2\n      swap1\n      pop\n      jump\t// out\n        /* \"#utility.yul\":12596:12703   */\n    tag_161:\n        /* \"#utility.yul\":12640:12648   */\n      0x00\n        /* \"#utility.yul\":12690:12695   */\n      dup3\n        /* \"#utility.yul\":12684:12688   */\n      dup3\n        /* \"#utility.yul\":12680:12696   */\n      shl\n        /* \"#utility.yul\":12659:12696   */\n      swap1\n      pop\n        /* \"#utility.yul\":12596:12703   */\n      swap3\n      swap2\n      pop\n      pop\n      jump\t// out\n        /* \"#utility.yul\":12709:13102   */\n    tag_162:\n        /* \"#utility.yul\":12778:12784   */\n      0x00\n        /* \"#utility.yul\":12828:12829   */\n      0x08\n        /* \"#utility.yul\":12816:12826   */\n      dup4\n        /* \"#utility.yul\":12812:12830   */\n      mul\n        /* \"#utility.yul\":12851:12948   */\n      tag_307\n        /* \"#utility.yul\":12881:12947   */\n      0xffffffffffffffffffffffffffffffffffffffffffffffffffffffffffffffff\n        /* \"#utility.yul\":12870:12879   */\n      dup3\n        /* \"#utility.yul\":12851:12948   */\n      tag_161\n      jump\t// in\n    tag_307:\n        /* \"#utility.yul\":12969:13008   */\n      tag_308\n        /* \"#utility.yul\":12999:13007   */\n      dup7\n        /* \"#utility.yul\":12988:12997   */\n      dup4\n        /* \"#utility.yul\":12969:13008   */\n      tag_161\n      jump\t// in\n    tag_308:\n        /* \"#utility.yul\":12957:13008   */\n      swap6\n      pop\n        /* \"#utility.yul\":13041:13045   */\n      dup1\n        /* \"#utility.yul\":13037:13046   */\n      not\n        /* \"#utility.yul\":13030:13035   */\n      dup5\n        /* \"#utility.yul\":13026:13047   */\n      and\n        /* \"#utility.yul\":13017:13047   */\n      swap4\n      pop\n        /* \"#utility.yul\":13090:13094   */\n      dup1\n        /* \"#utility.yul\":13080:13088   */\n      dup7\n        /* \"#utility.yul\":13076:13095   */\n      and\n        /* \"#utility.yul\":13069:13074   */\n      dup5\n        /* \"#utility.yul\":13066:13096   */\n      or\n        /* \"#utility.yul\":13056:13096   */\n      swap3\n      pop\n        /* \"#utility.yul\":12785:13102   */\n      pop\n      pop\n        /* \"#utility.yul\":12709:13102   */\n      swap4\n      swap3\n      pop\n      pop\n      pop\n      jump\t// out\n        /* \"#utility.yul\":13108:13168   */\n    tag_163:\n        /* \"#utility.yul\":13136:13139   */\n      0x00\n        /* \"#utility.yul\":13157:13162   */\n      dup2\n        /* \"#utility.yul\":13150:13162   */\n      swap1\n      pop\n        /* \"#utility.yul\":13108:13168   */\n      swap2\n      swap1\n      pop\n      jump\t// out\n        /* \"#utility.yul\":13174:13316   */\n    tag_164:\n        /* \"#utility.yul\":13224:13233   */\n      0x00\n        /* \"#utility.yul\":13257:13310   */\n      tag_311\n        /* \"#utility.yul\":13275:13309   */\n      tag_312\n        /* \"#utility.yul\":13284:13308   */\n      tag_313\n        /* \"#utility.yul\":13302:13307   */\n      dup5\n        /* \"#utility.yul\":13284:13308   */\n      tag_134\n      jump\t// in\n    tag_313:\n        /* \"#utility.yul\":13275:13309   */\n      tag_163\n      jump\t// in\n    tag_312:\n        /* \"#utility.yul\":13257:13310   */\n      tag_134\n      jump\t// in\n    tag_311:\n        /* \"#utility.yul\":13244:13310   */\n      swap1\n      pop\n        /* \"#utility.yul\":13174:13316   */\n      swap2\n      swap1\n      pop\n      jump\t// out\n        /* \"#utility.yul\":13322:13397   */\n    tag_165:\n        /* \"#utility.yul\":13365:13368   */\n      0x00\n        /* \"#utility.yul\":13386:13391   */\n      dup2\n        /* \"#utility.yul\":13379:13391   */\n      swap1\n      pop\n        /* \"#utility.yul\":13322:13397   */\n      swap2\n      swap1\n      pop\n      jump\t// out\n        /* \"#utility.yul\":13403:13672   */\n    tag_166:\n        /* \"#utility.yul\":13513:13552   */\n      tag_316\n        /* \"#utility.yul\":13544:13551   */\n      dup4\n        /* \"#utility.yul\":13513:13552   */\n      tag_164\n      jump\t// in\n    tag_316:\n        /* \"#utility.yul\":13574:13665   */\n      tag_317\n        /* \"#utility.yul\":13623:13664   */\n      tag_318\n        /* \"#utility.yul\":13647:13663   */\n      dup3\n        /* \"#utility.yul\":13623:13664   */\n      tag_165\n      jump\t// in\n    tag_318:\n        /* \"#utility.yul\":13615:13621   */\n      dup5\n        /* \"#utility.yul\":13608:13612   */\n      dup5\n        /* \"#utility.yul\":13602:13613   */\n      sload\n        /* \"#utility.yul\":13574:13665   */\n      tag_162\n      jump\t// in\n    tag_317:\n        /* \"#utility.yul\":13568:13572   */\n      dup3\n        /* \"#utility.yul\":13561:13666   */\n      sstore\n        /* \"#utility.yul\":13479:13672   */\n      pop\n        /* \"#utility.yul\":13403:13672   */\n      pop\n      pop\n      pop\n      jump\t// out\n        /* \"#utility.yul\":13678:13751   */\n    tag_167:\n        /* \"#utility.yul\":13723:13726   */\n      0x00\n        /* \"#utility.yul\":13678:13751   */\n      swap1\n      jump\t// out\n        /* \"#utility.yul\":13757:13946   */\n    tag_168:\n        /* \"#utility.yul\":13834:13866   */\n      tag_321\n      tag_167\n      jump\t// in\n    tag_321:\n        /* \"#utility.yul\":13875:13940   */\n      tag_322\n        /* \"#utility.yul\":13933:13939   */\n      dup2\n        /* \"#utility.yul\":13925:13931   */\n      dup5\n        /* \"#utility.yul\":13919:13923   */\n      dup5\n        /* \"#utility.yul\":13875:13940   */\n      tag_166\n      jump\t// in\n    tag_322:\n        /* \"#utility.yul\":13810:13946   */\n      pop\n        /* \"#utility.yul\":13757:13946   */\n      pop\n      pop\n      jump\t// out\n        /* \"#utility.yul\":13952:14138   */\n    tag_169:\n        /* \"#utility.yul\":14012:14132   */\n    tag_324:\n        /* \"#utility.yul\":14029:14032   */\n      dup2\n        /* \"#utility.yul\":14022:14027   */\n      dup2\n        /* \"#utility.yul\":14019:14033   */\n      lt\n        /* \"#utility.yul\":14012:14132   */\n      iszero\n      tag_326\n      jumpi\n        /* \"#utility.yul\":14083:14122   */\n      tag_327\n        /* \"#utility.yul\":14120:14121   */\n      0x00\n        /* \"#utility.yul\":14113:14118   */\n      dup3\n        /* \"#utility.yul\":14083:14122   */\n      tag_168\n      jump\t// in\n    tag_327:\n        /* \"#utility.yul\":14056:14057   */\n      0x01\n        /* \"#utility.yul\":14049:14054   */\n      dup2\n        /* \"#utility.yul\":14045:14058   */\n      add\n        /* \"#utility.yul\":14036:14058   */\n      swap1\n      pop\n        /* \"#utility.yul\":14012:14132   */\n      jump(tag_324)\n    tag_326:\n        /* \"#utility.yul\":13952:14138   */\n      pop\n      pop\n      jump\t// out\n        /* \"#utility.yul\":14144:14687   */\n    tag_170:\n        /* \"#utility.yul\":14245:14247   */\n      0x1f\n        /* \"#utility.yul\":14240:14243   */\n      dup3\n        /* \"#utility.yul\":14237:14248   */\n      gt\n        /* \"#utility.yul\":14234:14680   */\n      iszero\n      tag_329\n      jumpi\n        /* \"#utility.yul\":14279:14317   */\n      tag_330\n        /* \"#utility.yul\":14311:14316   */\n      dup2\n        /* \"#utility.yul\":14279:14317   */\n      tag_157\n      jump\t// in\n    tag_330:\n        /* \"#utility.yul\":14363:14392   */\n      tag_331\n        /* \"#utility.yul\":14381:14391   */\n      dup5\n        /* \"#utility.yul\":14363:14392   */\n      tag_160\n      jump\t// in\n    tag_331:\n        /* \"#utility.yul\":14353:14361   */\n      dup2\n        /* \"#utility.yul\":14349:14393   */\n      add\n        /* \"#utility.yul\":14546:14548   */\n      0x20\n        /* \"#utility.yul\":14534:14544   */\n      dup6\n        /* \"#utility.yul\":14531:14549   */\n      lt\n        /* \"#utility.yul\":14528:14577   */\n      iszero\n      tag_332\n      jumpi\n        /* \"#utility.yul\":14567:14575   */\n      dup2\n        /* \"#utility.yul\":14552:14575   */\n      swap1\n      pop\n        /* \"#utility.yul\":14528:14577   */\n    tag_332:\n        /* \"#utility.yul\":14590:14670   */\n      tag_333\n        /* \"#utility.yul\":14646:14668   */\n      tag_334\n        /* \"#utility.yul\":14664:14667   */\n      dup6\n        /* \"#utility.yul\":14646:14668   */\n      tag_160\n      jump\t// in\n    tag_334:\n        /* \"#utility.yul\":14636:14644   */\n      dup4\n        /* \"#utility.yul\":14632:14669   */\n      add\n        /* \"#utility.yul\":14619:14630   */\n      dup3\n        /* \"#utility.yul\":14590:14670   */\n      tag_169\n      jump\t// in\n    tag_333:\n        /* \"#utility.yul\":14249:14680   */\n      pop\n      pop\n        /* \"#utility.yul\":14234:14680   */\n    tag_329:\n        /* \"#utility.yul\":14144:14687   */\n      pop\n      pop\n      pop\n      jump\t// out\n        /* \"#utility.yul\":14693:14810   */\n    tag_171:\n        /* \"#utility.yul\":14747:14755   */\n      0x00\n        /* \"#utility.yul\":14797:14802   */\n      dup3\n        /* \"#utility.yul\":14791:14795   */\n      dup3\n        /* \"#utility.yul\":14787:14803   */\n      shr\n        /* \"#utility.yul\":14766:14803   */\n      swap1\n      pop\n        /* \"#utility.yul\":14693:14810   */\n      swap3\n      swap2\n      pop\n      pop\n      jump\t// out\n        /* \"#utility.yul\":14816:14985   */\n    tag_172:\n        /* \"#utility.yul\":14860:14866   */\n      0x00\n        /* \"#utility.yul\":14893:14944   */\n      tag_337\n        /* \"#utility.yul\":14941:14942   */\n      0x00\n        /* \"#utility.yul\":14937:14943   */\n      not\n        /* \"#utility.yul\":14929:14934   */\n      dup5\n        /* \"#utility.yul\":14926:14927   */\n      0x08\n        /* \"#utility.yul\":14922:14935   */\n      mul\n        /* \"#utility.yul\":14893:14944   */\n      tag_171\n      jump\t// in\n    tag_337:\n        /* \"#utility.yul\":14889:14945   */\n      not\n        /* \"#utility.yul\":14974:14978   */\n      dup1\n        /* \"#utility.yul\":14968:14972   */\n      dup4\n        /* \"#utility.yul\":14964:14979   */\n      and\n        /* \"#utility.yul\":14954:14979   */\n      swap2\n      pop\n        /* \"#utility.yul\":14867:14985   */\n      pop\n        /* \"#utility.yul\":14816:14985   */\n      swap3\n      swap2\n      pop\n      pop\n      jump\t// out\n        /* \"#utility.yul\":14990:15285   */\n    tag_173:\n        /* \"#utility.yul\":15066:15070   */\n      0x00\n        /* \"#utility.yul\":15212:15241   */\n      tag_339\n        /* \"#utility.yul\":15237:15240   */\n      dup4\n        /* \"#utility.yul\":15231:15235   */\n      dup4\n        /* \"#utility.yul\":15212:15241   */\n      tag_172\n      jump\t// in\n    tag_339:\n        /* \"#utility.yul\":15204:15241   */\n      swap2\n      pop\n        /* \"#utility.yul\":15274:15277   */\n      dup3\n        /* \"#utility.yul\":15271:15272   */\n      0x02\n        /* \"#utility.yul\":15267:15278   */\n      mul\n        /* \"#utility.yul\":15261:15265   */\n      dup3\n        /* \"#utility.yul\":15258:15279   */\n      or\n        /* \"#utility.yul\":15250:15279   */\n      swap1\n      pop\n        /* \"#utility.yul\":14990:15285   */\n      swap3\n      swap2\n      pop\n      pop\n      jump\t// out\n        /* \"#utility.yul\":15290:16685   */\n    tag_91:\n        /* \"#utility.yul\":15407:15444   */\n      tag_341\n        /* \"#utility.yul\":15440:15443   */\n      dup3\n        /* \"#utility.yul\":15407:15444   */\n      tag_137\n      jump\t// in\n    tag_341:\n        /* \"#utility.yul\":15509:15527   */\n      0xffffffffffffffff\n        /* \"#utility.yul\":15501:15507   */\n      dup2\n        /* \"#utility.yul\":15498:15528   */\n      gt\n        /* \"#utility.yul\":15495:15551   */\n      iszero\n      tag_342\n      jumpi\n        /* \"#utility.yul\":15531:15549   */\n      tag_343\n      tag_125\n      jump\t// in\n    tag_343:\n        /* \"#utility.yul\":15495:15551   */\n    tag_342:\n        /* \"#utility.yul\":15575:15613   */\n      tag_344\n        /* \"#utility.yul\":15607:15611   */\n      dup3\n        /* \"#utility.yul\":15601:15612   */\n      sload\n        /* \"#utility.yul\":15575:15613   */\n      tag_69\n      jump\t// in\n    tag_344:\n        /* \"#utility.yul\":15660:15727   */\n      tag_345\n        /* \"#utility.yul\":15720:15726   */\n      dup3\n        /* \"#utility.yul\":15712:15718   */\n      dup3\n        /* \"#utility.yul\":15706:15710   */\n      dup6\n        /* \"#utility.yul\":15660:15727   */\n      tag_170\n      jump\t// in\n    tag_345:\n        /* \"#utility.yul\":15754:15755   */\n      0x00\n        /* \"#utility.yul\":15778:15782   */\n      0x20\n        /* \"#utility.yul\":15765:15782   */\n      swap1\n      pop\n        /* \"#utility.yul\":15810:15812   */\n      0x1f\n        /* \"#utility.yul\":15802:15808   */\n      dup4\n        /* \"#utility.yul\":15799:15813   */\n      gt\n        /* \"#utility.yul\":15827:15828   */\n      0x01\n        /* \"#utility.yul\":15822:16440   */\n      dup2\n      eq\n      tag_347\n      jumpi\n        /* \"#utility.yul\":16484:16485   */\n      0x00\n        /* \"#utility.yul\":16501:16507   */\n      dup5\n        /* \"#utility.yul\":16498:16575   */\n      iszero\n      tag_348\n      jumpi\n        /* \"#utility.yul\":16550:16559   */\n      dup3\n        /* \"#utility.yul\":16545:16548   */\n      dup8\n        /* \"#utility.yul\":16541:16560   */\n      add\n        /* \"#utility.yul\":16535:16561   */\n      mload\n        /* \"#utility.yul\":16526:16561   */\n      swap1\n      pop\n        /* \"#utility.yul\":16498:16575   */\n    tag_348:\n        /* \"#utility.yul\":16601:16668   */\n      tag_349\n        /* \"#utility.yul\":16661:16667   */\n      dup6\n        /* \"#utility.yul\":16654:16659   */\n      dup3\n        /* \"#utility.yul\":16601:16668   */\n      tag_173\n      jump\t// in\n    tag_349:\n        /* \"#utility.yul\":16595:16599   */\n      dup7\n        /* \"#utility.yul\":16588:16669   */\n      sstore\n        /* \"#utility.yul\":16457:16679   */\n      pop\n        /* \"#utility.yul\":15792:16679   */\n      jump(tag_346)\n        /* \"#utility.yul\":15822:16440   */\n    tag_347:\n        /* \"#utility.yul\":15874:15878   */\n      0x1f\n        /* \"#utility.yul\":15870:15879   */\n      not\n        /* \"#utility.yul\":15862:15868   */\n      dup5\n        /* \"#utility.yul\":15858:15880   */\n      and\n        /* \"#utility.yul\":15908:15945   */\n      tag_350\n        /* \"#utility.yul\":15940:15944   */\n      dup7\n        /* \"#utility.yul\":15908:15945   */\n      tag_157\n      jump\t// in\n    tag_350:\n        /* \"#utility.yul\":15967:15968   */\n      0x00\n        /* \"#utility.yul\":15981:16189   */\n    tag_351:\n        /* \"#utility.yul\":15995:16002   */\n      dup3\n        /* \"#utility.yul\":15992:15993   */\n      dup2\n        /* \"#utility.yul\":15989:16003   */\n      lt\n        /* \"#utility.yul\":15981:16189   */\n      iszero\n      tag_353\n      jumpi\n        /* \"#utility.yul\":16074:16083   */\n      dup5\n        /* \"#utility.yul\":16069:16072   */\n      dup10\n        /* \"#utility.yul\":16065:16084   */\n      add\n        /* \"#utility.yul\":16059:16085   */\n      mload\n        /* \"#utility.yul\":16051:16057   */\n      dup3\n        /* \"#utility.yul\":16044:16086   */\n      sstore\n        /* \"#utility.yul\":16125:16126   */\n      0x01\n        /* \"#utility.yul\":16117:16123   */\n      dup3\n        /* \"#utility.yul\":16113:16127   */\n      add\n        /* \"#utility.yul\":16103:16127   */\n      swap2\n      pop\n        /* \"#utility.yul\":16172:16174   */\n      0x20\n        /* \"#utility.yul\":16161:16170   */\n      dup6\n        /* \"#utility.yul\":16157:16175   */\n      add\n        /* \"#utility.yul\":16144:16175   */\n      swap5\n      pop\n        /* \"#utility.yul\":16018:16022   */\n      0x20\n        /* \"#utility.yul\":16015:16016   */\n      dup2\n        /* \"#utility.yul\":16011:16023   */\n      add\n        /* \"#utility.yul\":16006:16023   */\n      swap1\n      pop\n        /* \"#utility.yul\":15981:16189   */\n      jump(tag_351)\n    tag_353:\n        /* \"#utility.yul\":16217:16223   */\n      dup7\n        /* \"#utility.yul\":16208:16215   */\n      dup4\n        /* \"#utility.yul\":16205:16224   */\n      lt\n        /* \"#utility.yul\":16202:16381   */\n      iszero\n      tag_354\n      jumpi\n        /* \"#utility.yul\":16275:16284   */\n      dup5\n        /* \"#utility.yul\":16270:16273   */\n      dup10\n        /* \"#utility.yul\":16266:16285   */\n      add\n        /* \"#utility.yul\":16260:16286   */\n      mload\n        /* \"#utility.yul\":16318:16366   */\n      tag_355\n        /* \"#utility.yul\":16360:16364   */\n      0x1f\n        /* \"#utility.yul\":16352:16358   */\n      dup10\n        /* \"#utility.yul\":16348:16365   */\n      and\n        /* \"#utility.yul\":16337:16346   */\n      dup3\n        /* \"#utility.yul\":16318:16366   */\n      tag_172\n      jump\t// in\n    tag_355:\n        /* \"#utility.yul\":16310:16316   */\n      dup4\n        /* \"#utility.yul\":16303:16367   */\n      sstore\n        /* \"#utility.yul\":16225:16381   */\n      pop\n        /* \"#utility.yul\":16202:16381   */\n    tag_354:\n        /* \"#utility.yul\":16427:16428   */\n      0x01\n        /* \"#utility.yul\":16423:16424   */\n      0x02\n        /* \"#utility.yul\":16415:16421   */\n      dup9\n        /* \"#utility.yul\":16411:16425   */\n      mul\n        /* \"#utility.yul\":16407:16429   */\n      add\n        /* \"#utility.yul\":16401:16405   */\n      dup9\n        /* \"#utility.yul\":16394:16430   */\n      sstore\n        /* \"#utility.yul\":15829:16440   */\n      pop\n      pop\n      pop\n        /* \"#utility.yul\":15792:16679   */\n    tag_346:\n      pop\n        /* \"#utility.yul\":15382:16685   */\n      pop\n      pop\n      pop\n        /* \"#utility.yul\":15290:16685   */\n      pop\n      pop\n      jump\t// out\n\n    auxdata: 0xa2646970667358221220db160a57f47c7d1a0b6fefdc505718e0335756a910be7eb9823eff5321d4e28f64736f6c634300081a0033\n}\n",
				"bytecode": {
					"linkReferences": {},
					"object": "608060405234801561000f575f80fd5b5060405161167438038061167483398181016040528101906100319190610343565b335f73ffffffffffffffffffffffffffffffffffffffff168173ffffffffffffffffffffffffffffffffffffffff16036100a2575f6040517f1e4fbdf700000000000000000000000000000000000000000000000000000000815260040161009991906103dc565b60405180910390fd5b6100b18161010260201b60201c565b5081600190816100c19190610602565b50600282908060018154018082558091505060019003905f5260205f20015f9091909190915090816100f39190610602565b508060038190555050506106d1565b5f805f9054906101000a900473ffffffffffffffffffffffffffffffffffffffff169050815f806101000a81548173ffffffffffffffffffffffffffffffffffffffff021916908373ffffffffffffffffffffffffffffffffffffffff1602179055508173ffffffffffffffffffffffffffffffffffffffff168173ffffffffffffffffffffffffffffffffffffffff167f8be0079c531659141344cd1fd0a4f28419497f9722a3daafe3b4186f6b6457e060405160405180910390a35050565b5f604051905090565b5f80fd5b5f80fd5b5f80fd5b5f80fd5b5f601f19601f8301169050919050565b7f4e487b71000000000000000000000000000000000000000000000000000000005f52604160045260245ffd5b610222826101dc565b810181811067ffffffffffffffff82111715610241576102406101ec565b5b80604052505050565b5f6102536101c3565b905061025f8282610219565b919050565b5f67ffffffffffffffff82111561027e5761027d6101ec565b5b610287826101dc565b9050602081019050919050565b8281835e5f83830152505050565b5f6102b46102af84610264565b61024a565b9050828152602081018484840111156102d0576102cf6101d8565b5b6102db848285610294565b509392505050565b5f82601f8301126102f7576102f66101d4565b5b81516103078482602086016102a2565b91505092915050565b5f819050919050565b61032281610310565b811461032c575f80fd5b50565b5f8151905061033d81610319565b92915050565b5f8060408385031215610359576103586101cc565b5b5f83015167ffffffffffffffff811115610376576103756101d0565b5b610382858286016102e3565b92505060206103938582860161032f565b9150509250929050565b5f73ffffffffffffffffffffffffffffffffffffffff82169050919050565b5f6103c68261039d565b9050919050565b6103d6816103bc565b82525050565b5f6020820190506103ef5f8301846103cd565b92915050565b5f81519050919050565b7f4e487b71000000000000000000000000000000000000000000000000000000005f52602260045260245ffd5b5f600282049050600182168061044357607f821691505b602082108103610456576104556103ff565b5b50919050565b5f819050815f5260205f209050919050565b5f6020601f8301049050919050565b5f82821b905092915050565b5f600883026104b87fffffffffffffffffffffffffffffffffffffffffffffffffffffffffffffffff8261047d565b6104c2868361047d565b95508019841693508086168417925050509392505050565b5f819050919050565b5f819050919050565b5f6105066105016104fc846104da565b6104e3565b6104da565b9050919050565b5f819050919050565b61051f836104ec565b61053361052b8261050d565b848454610489565b825550505050565b5f90565b61054761053b565b610552818484610516565b505050565b5b818110156105755761056a5f8261053f565b600181019050610558565b5050565b601f8211156105ba5761058b8161045c565b6105948461046e565b810160208510156105a3578190505b6105b76105af8561046e565b830182610557565b50505b505050565b5f82821c905092915050565b5f6105da5f19846008026105bf565b1980831691505092915050565b5f6105f283836105cb565b9150826002028217905092915050565b61060b826103f5565b67ffffffffffffffff811115610624576106236101ec565b5b61062e825461042c565b610639828285610579565b5f60209050601f83116001811461066a575f8415610658578287015190505b61066285826105e7565b8655506106c9565b601f1984166106788661045c565b5f5b8281101561069f5784890151825560018201915060208501945060208101905061067a565b868310156106bc57848901516106b8601f8916826105cb565b8355505b6001600288020188555050505b505050505050565b610f96806106de5f395ff3fe608060405234801561000f575f80fd5b506004361061009c575f3560e01c80638da5cb5b116100645780638da5cb5b146101465780639681944c14610164578063b89bca2614610180578063cd838f0f1461019c578063f2fde38b146101ba5761009c565b80632e3d616e146100a05780634622ab03146100d057806365ac232014610100578063715018a61461011e57806373ff93a214610128575b5f80fd5b6100ba60048036038101906100b59190610834565b6101d6565b6040516100c79190610895565b60405180910390f35b6100ea60048036038101906100e591906108e1565b610278565b6040516100f7919061096c565b60405180910390f35b61010861031e565b604051610115919061096c565b60405180910390f35b6101266103aa565b005b6101306103bd565b60405161013d919061099b565b60405180910390f35b61014e6103c9565b60405161015b91906109f3565b60405180910390f35b61017e60048036038101906101799190610834565b6103f0565b005b61019a60048036038101906101959190610834565b61040b565b005b6101a4610440565b6040516101b19190610b0f565b60405180910390f35b6101d460048036038101906101cf9190610b59565b610514565b005b5f805f90505b60028054905081101561026e57600281815481106101fd576101fc610b84565b5b905f5260205f20016040516020016102159190610caa565b604051602081830303815290604052805190602001208360405160200161023c9190610cf0565b6040516020818303038152906040528051906020012003610261576001915050610273565b80806001019150506101dc565b505f90505b919050565b60028181548110610287575f80fd5b905f5260205f20015f91509050805461029f90610bde565b80601f01602080910402602001604051908101604052809291908181526020018280546102cb90610bde565b80156103165780601f106102ed57610100808354040283529160200191610316565b820191905f5260205f20905b8154815290600101906020018083116102f957829003601f168201915b505050505081565b6001805461032b90610bde565b80601f016020809104026020016040519081016040528092919081815260200182805461035790610bde565b80156103a25780601f10610379576101008083540402835291602001916103a2565b820191905f5260205f20905b81548152906001019060200180831161038557829003601f168201915b505050505081565b6103b2610598565b6103bb5f61061f565b565b5f600280549050905090565b5f805f9054906101000a900473ffffffffffffffffffffffffffffffffffffffff16905090565b6103f8610598565b80600190816104079190610e91565b5050565b600281908060018154018082558091505060019003905f5260205f20015f90919091909150908161043c9190610e91565b5050565b60606002805480602002602001604051908101604052809291908181526020015f905b8282101561050b578382905f5260205f2001805461048090610bde565b80601f01602080910402602001604051908101604052809291908181526020018280546104ac90610bde565b80156104f75780601f106104ce576101008083540402835291602001916104f7565b820191905f5260205f20905b8154815290600101906020018083116104da57829003601f168201915b505050505081526020019060010190610463565b50505050905090565b61051c610598565b5f73ffffffffffffffffffffffffffffffffffffffff168173ffffffffffffffffffffffffffffffffffffffff160361058c575f6040517f1e4fbdf700000000000000000000000000000000000000000000000000000000815260040161058391906109f3565b60405180910390fd5b6105958161061f565b50565b6105a06106e0565b73ffffffffffffffffffffffffffffffffffffffff166105be6103c9565b73ffffffffffffffffffffffffffffffffffffffff161461061d576105e16106e0565b6040517f118cdaa700000000000000000000000000000000000000000000000000000000815260040161061491906109f3565b60405180910390fd5b565b5f805f9054906101000a900473ffffffffffffffffffffffffffffffffffffffff169050815f806101000a81548173ffffffffffffffffffffffffffffffffffffffff021916908373ffffffffffffffffffffffffffffffffffffffff1602179055508173ffffffffffffffffffffffffffffffffffffffff168173ffffffffffffffffffffffffffffffffffffffff167f8be0079c531659141344cd1fd0a4f28419497f9722a3daafe3b4186f6b6457e060405160405180910390a35050565b5f33905090565b5f604051905090565b5f80fd5b5f80fd5b5f80fd5b5f80fd5b5f601f19601f8301169050919050565b7f4e487b71000000000000000000000000000000000000000000000000000000005f52604160045260245ffd5b61074682610700565b810181811067ffffffffffffffff8211171561076557610764610710565b5b80604052505050565b5f6107776106e7565b9050610783828261073d565b919050565b5f67ffffffffffffffff8211156107a2576107a1610710565b5b6107ab82610700565b9050602081019050919050565b828183375f83830152505050565b5f6107d86107d384610788565b61076e565b9050828152602081018484840111156107f4576107f36106fc565b5b6107ff8482856107b8565b509392505050565b5f82601f83011261081b5761081a6106f8565b5b813561082b8482602086016107c6565b91505092915050565b5f60208284031215610849576108486106f0565b5b5f82013567ffffffffffffffff811115610866576108656106f4565b5b61087284828501610807565b91505092915050565b5f8115159050919050565b61088f8161087b565b82525050565b5f6020820190506108a85f830184610886565b92915050565b5f819050919050565b6108c0816108ae565b81146108ca575f80fd5b50565b5f813590506108db816108b7565b92915050565b5f602082840312156108f6576108f56106f0565b5b5f610903848285016108cd565b91505092915050565b5f81519050919050565b5f82825260208201905092915050565b8281835e5f83830152505050565b5f61093e8261090c565b6109488185610916565b9350610958818560208601610926565b61096181610700565b840191505092915050565b5f6020820190508181035f8301526109848184610934565b905092915050565b610995816108ae565b82525050565b5f6020820190506109ae5f83018461098c565b92915050565b5f73ffffffffffffffffffffffffffffffffffffffff82169050919050565b5f6109dd826109b4565b9050919050565b6109ed816109d3565b82525050565b5f602082019050610a065f8301846109e4565b92915050565b5f81519050919050565b5f82825260208201905092915050565b5f819050602082019050919050565b5f82825260208201905092915050565b5f610a4f8261090c565b610a598185610a35565b9350610a69818560208601610926565b610a7281610700565b840191505092915050565b5f610a888383610a45565b905092915050565b5f602082019050919050565b5f610aa682610a0c565b610ab08185610a16565b935083602082028501610ac285610a26565b805f5b85811015610afd5784840389528151610ade8582610a7d565b9450610ae983610a90565b925060208a01995050600181019050610ac5565b50829750879550505050505092915050565b5f6020820190508181035f830152610b278184610a9c565b905092915050565b610b38816109d3565b8114610b42575f80fd5b50565b5f81359050610b5381610b2f565b92915050565b5f60208284031215610b6e57610b6d6106f0565b5b5f610b7b84828501610b45565b91505092915050565b7f4e487b71000000000000000000000000000000000000000000000000000000005f52603260045260245ffd5b7f4e487b71000000000000000000000000000000000000000000000000000000005f52602260045260245ffd5b5f6002820490506001821680610bf557607f821691505b602082108103610c0857610c07610bb1565b5b50919050565b5f81905092915050565b5f819050815f5260205f209050919050565b5f8154610c3681610bde565b610c408186610c0e565b9450600182165f8114610c5a5760018114610c6f57610ca1565b60ff1983168652811515820286019350610ca1565b610c7885610c18565b5f5b83811015610c9957815481890152600182019150602081019050610c7a565b838801955050505b50505092915050565b5f610cb58284610c2a565b915081905092915050565b5f610cca8261090c565b610cd48185610c0e565b9350610ce4818560208601610926565b80840191505092915050565b5f610cfb8284610cc0565b915081905092915050565b5f6020601f8301049050919050565b5f82821b905092915050565b5f60088302610d507fffffffffffffffffffffffffffffffffffffffffffffffffffffffffffffffff82610d15565b610d5a8683610d15565b95508019841693508086168417925050509392505050565b5f819050919050565b5f610d95610d90610d8b846108ae565b610d72565b6108ae565b9050919050565b5f819050919050565b610dae83610d7b565b610dc2610dba82610d9c565b848454610d21565b825550505050565b5f90565b610dd6610dca565b610de1818484610da5565b505050565b5b81811015610e0457610df95f82610dce565b600181019050610de7565b5050565b601f821115610e4957610e1a81610c18565b610e2384610d06565b81016020851015610e32578190505b610e46610e3e85610d06565b830182610de6565b50505b505050565b5f82821c905092915050565b5f610e695f1984600802610e4e565b1980831691505092915050565b5f610e818383610e5a565b9150826002028217905092915050565b610e9a8261090c565b67ffffffffffffffff811115610eb357610eb2610710565b5b610ebd8254610bde565b610ec8828285610e08565b5f60209050601f831160018114610ef9575f8415610ee7578287015190505b610ef18582610e76565b865550610f58565b601f198416610f0786610c18565b5f5b82811015610f2e57848901518255600182019150602085019450602081019050610f09565b86831015610f4b5784890151610f47601f891682610e5a565b8355505b6001600288020188555050505b50505050505056fea2646970667358221220db160a57f47c7d1a0b6fefdc505718e0335756a910be7eb9823eff5321d4e28f64736f6c634300081a0033",
					"opcodes": "PUSH1 0x80 PUSH1 0x40 MSTORE CALLVALUE DUP1 ISZERO PUSH2 0xF JUMPI PUSH0 DUP1 REVERT JUMPDEST POP PUSH1 0x40 MLOAD PUSH2 0x1674 CODESIZE SUB DUP1 PUSH2 0x1674 DUP4 CODECOPY DUP2 DUP2 ADD PUSH1 0x40 MSTORE DUP2 ADD SWAP1 PUSH2 0x31 SWAP2 SWAP1 PUSH2 0x343 JUMP JUMPDEST CALLER PUSH0 PUSH20 0xFFFFFFFFFFFFFFFFFFFFFFFFFFFFFFFFFFFFFFFF AND DUP2 PUSH20 0xFFFFFFFFFFFFFFFFFFFFFFFFFFFFFFFFFFFFFFFF AND SUB PUSH2 0xA2 JUMPI PUSH0 PUSH1 0x40 MLOAD PUSH32 0x1E4FBDF700000000000000000000000000000000000000000000000000000000 DUP2 MSTORE PUSH1 0x4 ADD PUSH2 0x99 SWAP2 SWAP1 PUSH2 0x3DC JUMP JUMPDEST PUSH1 0x40 MLOAD DUP1 SWAP2 SUB SWAP1 REVERT JUMPDEST PUSH2 0xB1 DUP2 PUSH2 0x102 PUSH1 0x20 SHL PUSH1 0x20 SHR JUMP JUMPDEST POP DUP2 PUSH1 0x1 SWAP1 DUP2 PUSH2 0xC1 SWAP2 SWAP1 PUSH2 0x602 JUMP JUMPDEST POP PUSH1 0x2 DUP3 SWAP1 DUP1 PUSH1 0x1 DUP2 SLOAD ADD DUP1 DUP3 SSTORE DUP1 SWAP2 POP POP PUSH1 0x1 SWAP1 SUB SWAP1 PUSH0 MSTORE PUSH1 0x20 PUSH0 KECCAK256 ADD PUSH0 SWAP1 SWAP2 SWAP1 SWAP2 SWAP1 SWAP2 POP SWAP1 DUP2 PUSH2 0xF3 SWAP2 SWAP1 PUSH2 0x602 JUMP JUMPDEST POP DUP1 PUSH1 0x3 DUP2 SWAP1 SSTORE POP POP POP PUSH2 0x6D1 JUMP JUMPDEST PUSH0 DUP1 PUSH0 SWAP1 SLOAD SWAP1 PUSH2 0x100 EXP SWAP1 DIV PUSH20 0xFFFFFFFFFFFFFFFFFFFFFFFFFFFFFFFFFFFFFFFF AND SWAP1 POP DUP2 PUSH0 DUP1 PUSH2 0x100 EXP DUP2 SLOAD DUP2 PUSH20 0xFFFFFFFFFFFFFFFFFFFFFFFFFFFFFFFFFFFFFFFF MUL NOT AND SWAP1 DUP4 PUSH20 0xFFFFFFFFFFFFFFFFFFFFFFFFFFFFFFFFFFFFFFFF AND MUL OR SWAP1 SSTORE POP DUP2 PUSH20 0xFFFFFFFFFFFFFFFFFFFFFFFFFFFFFFFFFFFFFFFF AND DUP2 PUSH20 0xFFFFFFFFFFFFFFFFFFFFFFFFFFFFFFFFFFFFFFFF AND PUSH32 0x8BE0079C531659141344CD1FD0A4F28419497F9722A3DAAFE3B4186F6B6457E0 PUSH1 0x40 MLOAD PUSH1 0x40 MLOAD DUP1 SWAP2 SUB SWAP1 LOG3 POP POP JUMP JUMPDEST PUSH0 PUSH1 0x40 MLOAD SWAP1 POP SWAP1 JUMP JUMPDEST PUSH0 DUP1 REVERT JUMPDEST PUSH0 DUP1 REVERT JUMPDEST PUSH0 DUP1 REVERT JUMPDEST PUSH0 DUP1 REVERT JUMPDEST PUSH0 PUSH1 0x1F NOT PUSH1 0x1F DUP4 ADD AND SWAP1 POP SWAP2 SWAP1 POP JUMP JUMPDEST PUSH32 0x4E487B7100000000000000000000000000000000000000000000000000000000 PUSH0 MSTORE PUSH1 0x41 PUSH1 0x4 MSTORE PUSH1 0x24 PUSH0 REVERT JUMPDEST PUSH2 0x222 DUP3 PUSH2 0x1DC JUMP JUMPDEST DUP2 ADD DUP2 DUP2 LT PUSH8 0xFFFFFFFFFFFFFFFF DUP3 GT OR ISZERO PUSH2 0x241 JUMPI PUSH2 0x240 PUSH2 0x1EC JUMP JUMPDEST JUMPDEST DUP1 PUSH1 0x40 MSTORE POP POP POP JUMP JUMPDEST PUSH0 PUSH2 0x253 PUSH2 0x1C3 JUMP JUMPDEST SWAP1 POP PUSH2 0x25F DUP3 DUP3 PUSH2 0x219 JUMP JUMPDEST SWAP2 SWAP1 POP JUMP JUMPDEST PUSH0 PUSH8 0xFFFFFFFFFFFFFFFF DUP3 GT ISZERO PUSH2 0x27E JUMPI PUSH2 0x27D PUSH2 0x1EC JUMP JUMPDEST JUMPDEST PUSH2 0x287 DUP3 PUSH2 0x1DC JUMP JUMPDEST SWAP1 POP PUSH1 0x20 DUP2 ADD SWAP1 POP SWAP2 SWAP1 POP JUMP JUMPDEST DUP3 DUP2 DUP4 MCOPY PUSH0 DUP4 DUP4 ADD MSTORE POP POP POP JUMP JUMPDEST PUSH0 PUSH2 0x2B4 PUSH2 0x2AF DUP5 PUSH2 0x264 JUMP JUMPDEST PUSH2 0x24A JUMP JUMPDEST SWAP1 POP DUP3 DUP2 MSTORE PUSH1 0x20 DUP2 ADD DUP5 DUP5 DUP5 ADD GT ISZERO PUSH2 0x2D0 JUMPI PUSH2 0x2CF PUSH2 0x1D8 JUMP JUMPDEST JUMPDEST PUSH2 0x2DB DUP5 DUP3 DUP6 PUSH2 0x294 JUMP JUMPDEST POP SWAP4 SWAP3 POP POP POP JUMP JUMPDEST PUSH0 DUP3 PUSH1 0x1F DUP4 ADD SLT PUSH2 0x2F7 JUMPI PUSH2 0x2F6 PUSH2 0x1D4 JUMP JUMPDEST JUMPDEST DUP2 MLOAD PUSH2 0x307 DUP5 DUP3 PUSH1 0x20 DUP7 ADD PUSH2 0x2A2 JUMP JUMPDEST SWAP2 POP POP SWAP3 SWAP2 POP POP JUMP JUMPDEST PUSH0 DUP2 SWAP1 POP SWAP2 SWAP1 POP JUMP JUMPDEST PUSH2 0x322 DUP2 PUSH2 0x310 JUMP JUMPDEST DUP2 EQ PUSH2 0x32C JUMPI PUSH0 DUP1 REVERT JUMPDEST POP JUMP JUMPDEST PUSH0 DUP2 MLOAD SWAP1 POP PUSH2 0x33D DUP2 PUSH2 0x319 JUMP JUMPDEST SWAP3 SWAP2 POP POP JUMP JUMPDEST PUSH0 DUP1 PUSH1 0x40 DUP4 DUP6 SUB SLT ISZERO PUSH2 0x359 JUMPI PUSH2 0x358 PUSH2 0x1CC JUMP JUMPDEST JUMPDEST PUSH0 DUP4 ADD MLOAD PUSH8 0xFFFFFFFFFFFFFFFF DUP2 GT ISZERO PUSH2 0x376 JUMPI PUSH2 0x375 PUSH2 0x1D0 JUMP JUMPDEST JUMPDEST PUSH2 0x382 DUP6 DUP3 DUP7 ADD PUSH2 0x2E3 JUMP JUMPDEST SWAP3 POP POP PUSH1 0x20 PUSH2 0x393 DUP6 DUP3 DUP7 ADD PUSH2 0x32F JUMP JUMPDEST SWAP2 POP POP SWAP3 POP SWAP3 SWAP1 POP JUMP JUMPDEST PUSH0 PUSH20 0xFFFFFFFFFFFFFFFFFFFFFFFFFFFFFFFFFFFFFFFF DUP3 AND SWAP1 POP SWAP2 SWAP1 POP JUMP JUMPDEST PUSH0 PUSH2 0x3C6 DUP3 PUSH2 0x39D JUMP JUMPDEST SWAP1 POP SWAP2 SWAP1 POP JUMP JUMPDEST PUSH2 0x3D6 DUP2 PUSH2 0x3BC JUMP JUMPDEST DUP3 MSTORE POP POP JUMP JUMPDEST PUSH0 PUSH1 0x20 DUP3 ADD SWAP1 POP PUSH2 0x3EF PUSH0 DUP4 ADD DUP5 PUSH2 0x3CD JUMP JUMPDEST SWAP3 SWAP2 POP POP JUMP JUMPDEST PUSH0 DUP2 MLOAD SWAP1 POP SWAP2 SWAP1 POP JUMP JUMPDEST PUSH32 0x4E487B7100000000000000000000000000000000000000000000000000000000 PUSH0 MSTORE PUSH1 0x22 PUSH1 0x4 MSTORE PUSH1 0x24 PUSH0 REVERT JUMPDEST PUSH0 PUSH1 0x2 DUP3 DIV SWAP1 POP PUSH1 0x1 DUP3 AND DUP1 PUSH2 0x443 JUMPI PUSH1 0x7F DUP3 AND SWAP2 POP JUMPDEST PUSH1 0x20 DUP3 LT DUP2 SUB PUSH2 0x456 JUMPI PUSH2 0x455 PUSH2 0x3FF JUMP JUMPDEST JUMPDEST POP SWAP2 SWAP1 POP JUMP JUMPDEST PUSH0 DUP2 SWAP1 POP DUP2 PUSH0 MSTORE PUSH1 0x20 PUSH0 KECCAK256 SWAP1 POP SWAP2 SWAP1 POP JUMP JUMPDEST PUSH0 PUSH1 0x20 PUSH1 0x1F DUP4 ADD DIV SWAP1 POP SWAP2 SWAP1 POP JUMP JUMPDEST PUSH0 DUP3 DUP3 SHL SWAP1 POP SWAP3 SWAP2 POP POP JUMP JUMPDEST PUSH0 PUSH1 0x8 DUP4 MUL PUSH2 0x4B8 PUSH32 0xFFFFFFFFFFFFFFFFFFFFFFFFFFFFFFFFFFFFFFFFFFFFFFFFFFFFFFFFFFFFFFFF DUP3 PUSH2 0x47D JUMP JUMPDEST PUSH2 0x4C2 DUP7 DUP4 PUSH2 0x47D JUMP JUMPDEST SWAP6 POP DUP1 NOT DUP5 AND SWAP4 POP DUP1 DUP7 AND DUP5 OR SWAP3 POP POP POP SWAP4 SWAP3 POP POP POP JUMP JUMPDEST PUSH0 DUP2 SWAP1 POP SWAP2 SWAP1 POP JUMP JUMPDEST PUSH0 DUP2 SWAP1 POP SWAP2 SWAP1 POP JUMP JUMPDEST PUSH0 PUSH2 0x506 PUSH2 0x501 PUSH2 0x4FC DUP5 PUSH2 0x4DA JUMP JUMPDEST PUSH2 0x4E3 JUMP JUMPDEST PUSH2 0x4DA JUMP JUMPDEST SWAP1 POP SWAP2 SWAP1 POP JUMP JUMPDEST PUSH0 DUP2 SWAP1 POP SWAP2 SWAP1 POP JUMP JUMPDEST PUSH2 0x51F DUP4 PUSH2 0x4EC JUMP JUMPDEST PUSH2 0x533 PUSH2 0x52B DUP3 PUSH2 0x50D JUMP JUMPDEST DUP5 DUP5 SLOAD PUSH2 0x489 JUMP JUMPDEST DUP3 SSTORE POP POP POP POP JUMP JUMPDEST PUSH0 SWAP1 JUMP JUMPDEST PUSH2 0x547 PUSH2 0x53B JUMP JUMPDEST PUSH2 0x552 DUP2 DUP5 DUP5 PUSH2 0x516 JUMP JUMPDEST POP POP POP JUMP JUMPDEST JUMPDEST DUP2 DUP2 LT ISZERO PUSH2 0x575 JUMPI PUSH2 0x56A PUSH0 DUP3 PUSH2 0x53F JUMP JUMPDEST PUSH1 0x1 DUP2 ADD SWAP1 POP PUSH2 0x558 JUMP JUMPDEST POP POP JUMP JUMPDEST PUSH1 0x1F DUP3 GT ISZERO PUSH2 0x5BA JUMPI PUSH2 0x58B DUP2 PUSH2 0x45C JUMP JUMPDEST PUSH2 0x594 DUP5 PUSH2 0x46E JUMP JUMPDEST DUP2 ADD PUSH1 0x20 DUP6 LT ISZERO PUSH2 0x5A3 JUMPI DUP2 SWAP1 POP JUMPDEST PUSH2 0x5B7 PUSH2 0x5AF DUP6 PUSH2 0x46E JUMP JUMPDEST DUP4 ADD DUP3 PUSH2 0x557 JUMP JUMPDEST POP POP JUMPDEST POP POP POP JUMP JUMPDEST PUSH0 DUP3 DUP3 SHR SWAP1 POP SWAP3 SWAP2 POP POP JUMP JUMPDEST PUSH0 PUSH2 0x5DA PUSH0 NOT DUP5 PUSH1 0x8 MUL PUSH2 0x5BF JUMP JUMPDEST NOT DUP1 DUP4 AND SWAP2 POP POP SWAP3 SWAP2 POP POP JUMP JUMPDEST PUSH0 PUSH2 0x5F2 DUP4 DUP4 PUSH2 0x5CB JUMP JUMPDEST SWAP2 POP DUP3 PUSH1 0x2 MUL DUP3 OR SWAP1 POP SWAP3 SWAP2 POP POP JUMP JUMPDEST PUSH2 0x60B DUP3 PUSH2 0x3F5 JUMP JUMPDEST PUSH8 0xFFFFFFFFFFFFFFFF DUP2 GT ISZERO PUSH2 0x624 JUMPI PUSH2 0x623 PUSH2 0x1EC JUMP JUMPDEST JUMPDEST PUSH2 0x62E DUP3 SLOAD PUSH2 0x42C JUMP JUMPDEST PUSH2 0x639 DUP3 DUP3 DUP6 PUSH2 0x579 JUMP JUMPDEST PUSH0 PUSH1 0x20 SWAP1 POP PUSH1 0x1F DUP4 GT PUSH1 0x1 DUP2 EQ PUSH2 0x66A JUMPI PUSH0 DUP5 ISZERO PUSH2 0x658 JUMPI DUP3 DUP8 ADD MLOAD SWAP1 POP JUMPDEST PUSH2 0x662 DUP6 DUP3 PUSH2 0x5E7 JUMP JUMPDEST DUP7 SSTORE POP PUSH2 0x6C9 JUMP JUMPDEST PUSH1 0x1F NOT DUP5 AND PUSH2 0x678 DUP7 PUSH2 0x45C JUMP JUMPDEST PUSH0 JUMPDEST DUP3 DUP2 LT ISZERO PUSH2 0x69F JUMPI DUP5 DUP10 ADD MLOAD DUP3 SSTORE PUSH1 0x1 DUP3 ADD SWAP2 POP PUSH1 0x20 DUP6 ADD SWAP5 POP PUSH1 0x20 DUP2 ADD SWAP1 POP PUSH2 0x67A JUMP JUMPDEST DUP7 DUP4 LT ISZERO PUSH2 0x6BC JUMPI DUP5 DUP10 ADD MLOAD PUSH2 0x6B8 PUSH1 0x1F DUP10 AND DUP3 PUSH2 0x5CB JUMP JUMPDEST DUP4 SSTORE POP JUMPDEST PUSH1 0x1 PUSH1 0x2 DUP9 MUL ADD DUP9 SSTORE POP POP POP JUMPDEST POP POP POP POP POP POP JUMP JUMPDEST PUSH2 0xF96 DUP1 PUSH2 0x6DE PUSH0 CODECOPY PUSH0 RETURN INVALID PUSH1 0x80 PUSH1 0x40 MSTORE CALLVALUE DUP1 ISZERO PUSH2 0xF JUMPI PUSH0 DUP1 REVERT JUMPDEST POP PUSH1 0x4 CALLDATASIZE LT PUSH2 0x9C JUMPI PUSH0 CALLDATALOAD PUSH1 0xE0 SHR DUP1 PUSH4 0x8DA5CB5B GT PUSH2 0x64 JUMPI DUP1 PUSH4 0x8DA5CB5B EQ PUSH2 0x146 JUMPI DUP1 PUSH4 0x9681944C EQ PUSH2 0x164 JUMPI DUP1 PUSH4 0xB89BCA26 EQ PUSH2 0x180 JUMPI DUP1 PUSH4 0xCD838F0F EQ PUSH2 0x19C JUMPI DUP1 PUSH4 0xF2FDE38B EQ PUSH2 0x1BA JUMPI PUSH2 0x9C JUMP JUMPDEST DUP1 PUSH4 0x2E3D616E EQ PUSH2 0xA0 JUMPI DUP1 PUSH4 0x4622AB03 EQ PUSH2 0xD0 JUMPI DUP1 PUSH4 0x65AC2320 EQ PUSH2 0x100 JUMPI DUP1 PUSH4 0x715018A6 EQ PUSH2 0x11E JUMPI DUP1 PUSH4 0x73FF93A2 EQ PUSH2 0x128 JUMPI JUMPDEST PUSH0 DUP1 REVERT JUMPDEST PUSH2 0xBA PUSH1 0x4 DUP1 CALLDATASIZE SUB DUP2 ADD SWAP1 PUSH2 0xB5 SWAP2 SWAP1 PUSH2 0x834 JUMP JUMPDEST PUSH2 0x1D6 JUMP JUMPDEST PUSH1 0x40 MLOAD PUSH2 0xC7 SWAP2 SWAP1 PUSH2 0x895 JUMP JUMPDEST PUSH1 0x40 MLOAD DUP1 SWAP2 SUB SWAP1 RETURN JUMPDEST PUSH2 0xEA PUSH1 0x4 DUP1 CALLDATASIZE SUB DUP2 ADD SWAP1 PUSH2 0xE5 SWAP2 SWAP1 PUSH2 0x8E1 JUMP JUMPDEST PUSH2 0x278 JUMP JUMPDEST PUSH1 0x40 MLOAD PUSH2 0xF7 SWAP2 SWAP1 PUSH2 0x96C JUMP JUMPDEST PUSH1 0x40 MLOAD DUP1 SWAP2 SUB SWAP1 RETURN JUMPDEST PUSH2 0x108 PUSH2 0x31E JUMP JUMPDEST PUSH1 0x40 MLOAD PUSH2 0x115 SWAP2 SWAP1 PUSH2 0x96C JUMP JUMPDEST PUSH1 0x40 MLOAD DUP1 SWAP2 SUB SWAP1 RETURN JUMPDEST PUSH2 0x126 PUSH2 0x3AA JUMP JUMPDEST STOP JUMPDEST PUSH2 0x130 PUSH2 0x3BD JUMP JUMPDEST PUSH1 0x40 MLOAD PUSH2 0x13D SWAP2 SWAP1 PUSH2 0x99B JUMP JUMPDEST PUSH1 0x40 MLOAD DUP1 SWAP2 SUB SWAP1 RETURN JUMPDEST PUSH2 0x14E PUSH2 0x3C9 JUMP JUMPDEST PUSH1 0x40 MLOAD PUSH2 0x15B SWAP2 SWAP1 PUSH2 0x9F3 JUMP JUMPDEST PUSH1 0x40 MLOAD DUP1 SWAP2 SUB SWAP1 RETURN JUMPDEST PUSH2 0x17E PUSH1 0x4 DUP1 CALLDATASIZE SUB DUP2 ADD SWAP1 PUSH2 0x179 SWAP2 SWAP1 PUSH2 0x834 JUMP JUMPDEST PUSH2 0x3F0 JUMP JUMPDEST STOP JUMPDEST PUSH2 0x19A PUSH1 0x4 DUP1 CALLDATASIZE SUB DUP2 ADD SWAP1 PUSH2 0x195 SWAP2 SWAP1 PUSH2 0x834 JUMP JUMPDEST PUSH2 0x40B JUMP JUMPDEST STOP JUMPDEST PUSH2 0x1A4 PUSH2 0x440 JUMP JUMPDEST PUSH1 0x40 MLOAD PUSH2 0x1B1 SWAP2 SWAP1 PUSH2 0xB0F JUMP JUMPDEST PUSH1 0x40 MLOAD DUP1 SWAP2 SUB SWAP1 RETURN JUMPDEST PUSH2 0x1D4 PUSH1 0x4 DUP1 CALLDATASIZE SUB DUP2 ADD SWAP1 PUSH2 0x1CF SWAP2 SWAP1 PUSH2 0xB59 JUMP JUMPDEST PUSH2 0x514 JUMP JUMPDEST STOP JUMPDEST PUSH0 DUP1 PUSH0 SWAP1 POP JUMPDEST PUSH1 0x2 DUP1 SLOAD SWAP1 POP DUP2 LT ISZERO PUSH2 0x26E JUMPI PUSH1 0x2 DUP2 DUP2 SLOAD DUP2 LT PUSH2 0x1FD JUMPI PUSH2 0x1FC PUSH2 0xB84 JUMP JUMPDEST JUMPDEST SWAP1 PUSH0 MSTORE PUSH1 0x20 PUSH0 KECCAK256 ADD PUSH1 0x40 MLOAD PUSH1 0x20 ADD PUSH2 0x215 SWAP2 SWAP1 PUSH2 0xCAA JUMP JUMPDEST PUSH1 0x40 MLOAD PUSH1 0x20 DUP2 DUP4 SUB SUB DUP2 MSTORE SWAP1 PUSH1 0x40 MSTORE DUP1 MLOAD SWAP1 PUSH1 0x20 ADD KECCAK256 DUP4 PUSH1 0x40 MLOAD PUSH1 0x20 ADD PUSH2 0x23C SWAP2 SWAP1 PUSH2 0xCF0 JUMP JUMPDEST PUSH1 0x40 MLOAD PUSH1 0x20 DUP2 DUP4 SUB SUB DUP2 MSTORE SWAP1 PUSH1 0x40 MSTORE DUP1 MLOAD SWAP1 PUSH1 0x20 ADD KECCAK256 SUB PUSH2 0x261 JUMPI PUSH1 0x1 SWAP2 POP POP PUSH2 0x273 JUMP JUMPDEST DUP1 DUP1 PUSH1 0x1 ADD SWAP2 POP POP PUSH2 0x1DC JUMP JUMPDEST POP PUSH0 SWAP1 POP JUMPDEST SWAP2 SWAP1 POP JUMP JUMPDEST PUSH1 0x2 DUP2 DUP2 SLOAD DUP2 LT PUSH2 0x287 JUMPI PUSH0 DUP1 REVERT JUMPDEST SWAP1 PUSH0 MSTORE PUSH1 0x20 PUSH0 KECCAK256 ADD PUSH0 SWAP2 POP SWAP1 POP DUP1 SLOAD PUSH2 0x29F SWAP1 PUSH2 0xBDE JUMP JUMPDEST DUP1 PUSH1 0x1F ADD PUSH1 0x20 DUP1 SWAP2 DIV MUL PUSH1 0x20 ADD PUSH1 0x40 MLOAD SWAP1 DUP2 ADD PUSH1 0x40 MSTORE DUP1 SWAP3 SWAP2 SWAP1 DUP2 DUP2 MSTORE PUSH1 0x20 ADD DUP3 DUP1 SLOAD PUSH2 0x2CB SWAP1 PUSH2 0xBDE JUMP JUMPDEST DUP1 ISZERO PUSH2 0x316 JUMPI DUP1 PUSH1 0x1F LT PUSH2 0x2ED JUMPI PUSH2 0x100 DUP1 DUP4 SLOAD DIV MUL DUP4 MSTORE SWAP2 PUSH1 0x20 ADD SWAP2 PUSH2 0x316 JUMP JUMPDEST DUP3 ADD SWAP2 SWAP1 PUSH0 MSTORE PUSH1 0x20 PUSH0 KECCAK256 SWAP1 JUMPDEST DUP2 SLOAD DUP2 MSTORE SWAP1 PUSH1 0x1 ADD SWAP1 PUSH1 0x20 ADD DUP1 DUP4 GT PUSH2 0x2F9 JUMPI DUP3 SWAP1 SUB PUSH1 0x1F AND DUP3 ADD SWAP2 JUMPDEST POP POP POP POP POP DUP2 JUMP JUMPDEST PUSH1 0x1 DUP1 SLOAD PUSH2 0x32B SWAP1 PUSH2 0xBDE JUMP JUMPDEST DUP1 PUSH1 0x1F ADD PUSH1 0x20 DUP1 SWAP2 DIV MUL PUSH1 0x20 ADD PUSH1 0x40 MLOAD SWAP1 DUP2 ADD PUSH1 0x40 MSTORE DUP1 SWAP3 SWAP2 SWAP1 DUP2 DUP2 MSTORE PUSH1 0x20 ADD DUP3 DUP1 SLOAD PUSH2 0x357 SWAP1 PUSH2 0xBDE JUMP JUMPDEST DUP1 ISZERO PUSH2 0x3A2 JUMPI DUP1 PUSH1 0x1F LT PUSH2 0x379 JUMPI PUSH2 0x100 DUP1 DUP4 SLOAD DIV MUL DUP4 MSTORE SWAP2 PUSH1 0x20 ADD SWAP2 PUSH2 0x3A2 JUMP JUMPDEST DUP3 ADD SWAP2 SWAP1 PUSH0 MSTORE PUSH1 0x20 PUSH0 KECCAK256 SWAP1 JUMPDEST DUP2 SLOAD DUP2 MSTORE SWAP1 PUSH1 0x1 ADD SWAP1 PUSH1 0x20 ADD DUP1 DUP4 GT PUSH2 0x385 JUMPI DUP3 SWAP1 SUB PUSH1 0x1F AND DUP3 ADD SWAP2 JUMPDEST POP POP POP POP POP DUP2 JUMP JUMPDEST PUSH2 0x3B2 PUSH2 0x598 JUMP JUMPDEST PUSH2 0x3BB PUSH0 PUSH2 0x61F JUMP JUMPDEST JUMP JUMPDEST PUSH0 PUSH1 0x2 DUP1 SLOAD SWAP1 POP SWAP1 POP SWAP1 JUMP JUMPDEST PUSH0 DUP1 PUSH0 SWAP1 SLOAD SWAP1 PUSH2 0x100 EXP SWAP1 DIV PUSH20 0xFFFFFFFFFFFFFFFFFFFFFFFFFFFFFFFFFFFFFFFF AND SWAP1 POP SWAP1 JUMP JUMPDEST PUSH2 0x3F8 PUSH2 0x598 JUMP JUMPDEST DUP1 PUSH1 0x1 SWAP1 DUP2 PUSH2 0x407 SWAP2 SWAP1 PUSH2 0xE91 JUMP JUMPDEST POP POP JUMP JUMPDEST PUSH1 0x2 DUP2 SWAP1 DUP1 PUSH1 0x1 DUP2 SLOAD ADD DUP1 DUP3 SSTORE DUP1 SWAP2 POP POP PUSH1 0x1 SWAP1 SUB SWAP1 PUSH0 MSTORE PUSH1 0x20 PUSH0 KECCAK256 ADD PUSH0 SWAP1 SWAP2 SWAP1 SWAP2 SWAP1 SWAP2 POP SWAP1 DUP2 PUSH2 0x43C SWAP2 SWAP1 PUSH2 0xE91 JUMP JUMPDEST POP POP JUMP JUMPDEST PUSH1 0x60 PUSH1 0x2 DUP1 SLOAD DUP1 PUSH1 0x20 MUL PUSH1 0x20 ADD PUSH1 0x40 MLOAD SWAP1 DUP2 ADD PUSH1 0x40 MSTORE DUP1 SWAP3 SWAP2 SWAP1 DUP2 DUP2 MSTORE PUSH1 0x20 ADD PUSH0 SWAP1 JUMPDEST DUP3 DUP3 LT ISZERO PUSH2 0x50B JUMPI DUP4 DUP3 SWAP1 PUSH0 MSTORE PUSH1 0x20 PUSH0 KECCAK256 ADD DUP1 SLOAD PUSH2 0x480 SWAP1 PUSH2 0xBDE JUMP JUMPDEST DUP1 PUSH1 0x1F ADD PUSH1 0x20 DUP1 SWAP2 DIV MUL PUSH1 0x20 ADD PUSH1 0x40 MLOAD SWAP1 DUP2 ADD PUSH1 0x40 MSTORE DUP1 SWAP3 SWAP2 SWAP1 DUP2 DUP2 MSTORE PUSH1 0x20 ADD DUP3 DUP1 SLOAD PUSH2 0x4AC SWAP1 PUSH2 0xBDE JUMP JUMPDEST DUP1 ISZERO PUSH2 0x4F7 JUMPI DUP1 PUSH1 0x1F LT PUSH2 0x4CE JUMPI PUSH2 0x100 DUP1 DUP4 SLOAD DIV MUL DUP4 MSTORE SWAP2 PUSH1 0x20 ADD SWAP2 PUSH2 0x4F7 JUMP JUMPDEST DUP3 ADD SWAP2 SWAP1 PUSH0 MSTORE PUSH1 0x20 PUSH0 KECCAK256 SWAP1 JUMPDEST DUP2 SLOAD DUP2 MSTORE SWAP1 PUSH1 0x1 ADD SWAP1 PUSH1 0x20 ADD DUP1 DUP4 GT PUSH2 0x4DA JUMPI DUP3 SWAP1 SUB PUSH1 0x1F AND DUP3 ADD SWAP2 JUMPDEST POP POP POP POP POP DUP2 MSTORE PUSH1 0x20 ADD SWAP1 PUSH1 0x1 ADD SWAP1 PUSH2 0x463 JUMP JUMPDEST POP POP POP POP SWAP1 POP SWAP1 JUMP JUMPDEST PUSH2 0x51C PUSH2 0x598 JUMP JUMPDEST PUSH0 PUSH20 0xFFFFFFFFFFFFFFFFFFFFFFFFFFFFFFFFFFFFFFFF AND DUP2 PUSH20 0xFFFFFFFFFFFFFFFFFFFFFFFFFFFFFFFFFFFFFFFF AND SUB PUSH2 0x58C JUMPI PUSH0 PUSH1 0x40 MLOAD PUSH32 0x1E4FBDF700000000000000000000000000000000000000000000000000000000 DUP2 MSTORE PUSH1 0x4 ADD PUSH2 0x583 SWAP2 SWAP1 PUSH2 0x9F3 JUMP JUMPDEST PUSH1 0x40 MLOAD DUP1 SWAP2 SUB SWAP1 REVERT JUMPDEST PUSH2 0x595 DUP2 PUSH2 0x61F JUMP JUMPDEST POP JUMP JUMPDEST PUSH2 0x5A0 PUSH2 0x6E0 JUMP JUMPDEST PUSH20 0xFFFFFFFFFFFFFFFFFFFFFFFFFFFFFFFFFFFFFFFF AND PUSH2 0x5BE PUSH2 0x3C9 JUMP JUMPDEST PUSH20 0xFFFFFFFFFFFFFFFFFFFFFFFFFFFFFFFFFFFFFFFF AND EQ PUSH2 0x61D JUMPI PUSH2 0x5E1 PUSH2 0x6E0 JUMP JUMPDEST PUSH1 0x40 MLOAD PUSH32 0x118CDAA700000000000000000000000000000000000000000000000000000000 DUP2 MSTORE PUSH1 0x4 ADD PUSH2 0x614 SWAP2 SWAP1 PUSH2 0x9F3 JUMP JUMPDEST PUSH1 0x40 MLOAD DUP1 SWAP2 SUB SWAP1 REVERT JUMPDEST JUMP JUMPDEST PUSH0 DUP1 PUSH0 SWAP1 SLOAD SWAP1 PUSH2 0x100 EXP SWAP1 DIV PUSH20 0xFFFFFFFFFFFFFFFFFFFFFFFFFFFFFFFFFFFFFFFF AND SWAP1 POP DUP2 PUSH0 DUP1 PUSH2 0x100 EXP DUP2 SLOAD DUP2 PUSH20 0xFFFFFFFFFFFFFFFFFFFFFFFFFFFFFFFFFFFFFFFF MUL NOT AND SWAP1 DUP4 PUSH20 0xFFFFFFFFFFFFFFFFFFFFFFFFFFFFFFFFFFFFFFFF AND MUL OR SWAP1 SSTORE POP DUP2 PUSH20 0xFFFFFFFFFFFFFFFFFFFFFFFFFFFFFFFFFFFFFFFF AND DUP2 PUSH20 0xFFFFFFFFFFFFFFFFFFFFFFFFFFFFFFFFFFFFFFFF AND PUSH32 0x8BE0079C531659141344CD1FD0A4F28419497F9722A3DAAFE3B4186F6B6457E0 PUSH1 0x40 MLOAD PUSH1 0x40 MLOAD DUP1 SWAP2 SUB SWAP1 LOG3 POP POP JUMP JUMPDEST PUSH0 CALLER SWAP1 POP SWAP1 JUMP JUMPDEST PUSH0 PUSH1 0x40 MLOAD SWAP1 POP SWAP1 JUMP JUMPDEST PUSH0 DUP1 REVERT JUMPDEST PUSH0 DUP1 REVERT JUMPDEST PUSH0 DUP1 REVERT JUMPDEST PUSH0 DUP1 REVERT JUMPDEST PUSH0 PUSH1 0x1F NOT PUSH1 0x1F DUP4 ADD AND SWAP1 POP SWAP2 SWAP1 POP JUMP JUMPDEST PUSH32 0x4E487B7100000000000000000000000000000000000000000000000000000000 PUSH0 MSTORE PUSH1 0x41 PUSH1 0x4 MSTORE PUSH1 0x24 PUSH0 REVERT JUMPDEST PUSH2 0x746 DUP3 PUSH2 0x700 JUMP JUMPDEST DUP2 ADD DUP2 DUP2 LT PUSH8 0xFFFFFFFFFFFFFFFF DUP3 GT OR ISZERO PUSH2 0x765 JUMPI PUSH2 0x764 PUSH2 0x710 JUMP JUMPDEST JUMPDEST DUP1 PUSH1 0x40 MSTORE POP POP POP JUMP JUMPDEST PUSH0 PUSH2 0x777 PUSH2 0x6E7 JUMP JUMPDEST SWAP1 POP PUSH2 0x783 DUP3 DUP3 PUSH2 0x73D JUMP JUMPDEST SWAP2 SWAP1 POP JUMP JUMPDEST PUSH0 PUSH8 0xFFFFFFFFFFFFFFFF DUP3 GT ISZERO PUSH2 0x7A2 JUMPI PUSH2 0x7A1 PUSH2 0x710 JUMP JUMPDEST JUMPDEST PUSH2 0x7AB DUP3 PUSH2 0x700 JUMP JUMPDEST SWAP1 POP PUSH1 0x20 DUP2 ADD SWAP1 POP SWAP2 SWAP1 POP JUMP JUMPDEST DUP3 DUP2 DUP4 CALLDATACOPY PUSH0 DUP4 DUP4 ADD MSTORE POP POP POP JUMP JUMPDEST PUSH0 PUSH2 0x7D8 PUSH2 0x7D3 DUP5 PUSH2 0x788 JUMP JUMPDEST PUSH2 0x76E JUMP JUMPDEST SWAP1 POP DUP3 DUP2 MSTORE PUSH1 0x20 DUP2 ADD DUP5 DUP5 DUP5 ADD GT ISZERO PUSH2 0x7F4 JUMPI PUSH2 0x7F3 PUSH2 0x6FC JUMP JUMPDEST JUMPDEST PUSH2 0x7FF DUP5 DUP3 DUP6 PUSH2 0x7B8 JUMP JUMPDEST POP SWAP4 SWAP3 POP POP POP JUMP JUMPDEST PUSH0 DUP3 PUSH1 0x1F DUP4 ADD SLT PUSH2 0x81B JUMPI PUSH2 0x81A PUSH2 0x6F8 JUMP JUMPDEST JUMPDEST DUP2 CALLDATALOAD PUSH2 0x82B DUP5 DUP3 PUSH1 0x20 DUP7 ADD PUSH2 0x7C6 JUMP JUMPDEST SWAP2 POP POP SWAP3 SWAP2 POP POP JUMP JUMPDEST PUSH0 PUSH1 0x20 DUP3 DUP5 SUB SLT ISZERO PUSH2 0x849 JUMPI PUSH2 0x848 PUSH2 0x6F0 JUMP JUMPDEST JUMPDEST PUSH0 DUP3 ADD CALLDATALOAD PUSH8 0xFFFFFFFFFFFFFFFF DUP2 GT ISZERO PUSH2 0x866 JUMPI PUSH2 0x865 PUSH2 0x6F4 JUMP JUMPDEST JUMPDEST PUSH2 0x872 DUP5 DUP3 DUP6 ADD PUSH2 0x807 JUMP JUMPDEST SWAP2 POP POP SWAP3 SWAP2 POP POP JUMP JUMPDEST PUSH0 DUP2 ISZERO ISZERO SWAP1 POP SWAP2 SWAP1 POP JUMP JUMPDEST PUSH2 0x88F DUP2 PUSH2 0x87B JUMP JUMPDEST DUP3 MSTORE POP POP JUMP JUMPDEST PUSH0 PUSH1 0x20 DUP3 ADD SWAP1 POP PUSH2 0x8A8 PUSH0 DUP4 ADD DUP5 PUSH2 0x886 JUMP JUMPDEST SWAP3 SWAP2 POP POP JUMP JUMPDEST PUSH0 DUP2 SWAP1 POP SWAP2 SWAP1 POP JUMP JUMPDEST PUSH2 0x8C0 DUP2 PUSH2 0x8AE JUMP JUMPDEST DUP2 EQ PUSH2 0x8CA JUMPI PUSH0 DUP1 REVERT JUMPDEST POP JUMP JUMPDEST PUSH0 DUP2 CALLDATALOAD SWAP1 POP PUSH2 0x8DB DUP2 PUSH2 0x8B7 JUMP JUMPDEST SWAP3 SWAP2 POP POP JUMP JUMPDEST PUSH0 PUSH1 0x20 DUP3 DUP5 SUB SLT ISZERO PUSH2 0x8F6 JUMPI PUSH2 0x8F5 PUSH2 0x6F0 JUMP JUMPDEST JUMPDEST PUSH0 PUSH2 0x903 DUP5 DUP3 DUP6 ADD PUSH2 0x8CD JUMP JUMPDEST SWAP2 POP POP SWAP3 SWAP2 POP POP JUMP JUMPDEST PUSH0 DUP2 MLOAD SWAP1 POP SWAP2 SWAP1 POP JUMP JUMPDEST PUSH0 DUP3 DUP3 MSTORE PUSH1 0x20 DUP3 ADD SWAP1 POP SWAP3 SWAP2 POP POP JUMP JUMPDEST DUP3 DUP2 DUP4 MCOPY PUSH0 DUP4 DUP4 ADD MSTORE POP POP POP JUMP JUMPDEST PUSH0 PUSH2 0x93E DUP3 PUSH2 0x90C JUMP JUMPDEST PUSH2 0x948 DUP2 DUP6 PUSH2 0x916 JUMP JUMPDEST SWAP4 POP PUSH2 0x958 DUP2 DUP6 PUSH1 0x20 DUP7 ADD PUSH2 0x926 JUMP JUMPDEST PUSH2 0x961 DUP2 PUSH2 0x700 JUMP JUMPDEST DUP5 ADD SWAP2 POP POP SWAP3 SWAP2 POP POP JUMP JUMPDEST PUSH0 PUSH1 0x20 DUP3 ADD SWAP1 POP DUP2 DUP2 SUB PUSH0 DUP4 ADD MSTORE PUSH2 0x984 DUP2 DUP5 PUSH2 0x934 JUMP JUMPDEST SWAP1 POP SWAP3 SWAP2 POP POP JUMP JUMPDEST PUSH2 0x995 DUP2 PUSH2 0x8AE JUMP JUMPDEST DUP3 MSTORE POP POP JUMP JUMPDEST PUSH0 PUSH1 0x20 DUP3 ADD SWAP1 POP PUSH2 0x9AE PUSH0 DUP4 ADD DUP5 PUSH2 0x98C JUMP JUMPDEST SWAP3 SWAP2 POP POP JUMP JUMPDEST PUSH0 PUSH20 0xFFFFFFFFFFFFFFFFFFFFFFFFFFFFFFFFFFFFFFFF DUP3 AND SWAP1 POP SWAP2 SWAP1 POP JUMP JUMPDEST PUSH0 PUSH2 0x9DD DUP3 PUSH2 0x9B4 JUMP JUMPDEST SWAP1 POP SWAP2 SWAP1 POP JUMP JUMPDEST PUSH2 0x9ED DUP2 PUSH2 0x9D3 JUMP JUMPDEST DUP3 MSTORE POP POP JUMP JUMPDEST PUSH0 PUSH1 0x20 DUP3 ADD SWAP1 POP PUSH2 0xA06 PUSH0 DUP4 ADD DUP5 PUSH2 0x9E4 JUMP JUMPDEST SWAP3 SWAP2 POP POP JUMP JUMPDEST PUSH0 DUP2 MLOAD SWAP1 POP SWAP2 SWAP1 POP JUMP JUMPDEST PUSH0 DUP3 DUP3 MSTORE PUSH1 0x20 DUP3 ADD SWAP1 POP SWAP3 SWAP2 POP POP JUMP JUMPDEST PUSH0 DUP2 SWAP1 POP PUSH1 0x20 DUP3 ADD SWAP1 POP SWAP2 SWAP1 POP JUMP JUMPDEST PUSH0 DUP3 DUP3 MSTORE PUSH1 0x20 DUP3 ADD SWAP1 POP SWAP3 SWAP2 POP POP JUMP JUMPDEST PUSH0 PUSH2 0xA4F DUP3 PUSH2 0x90C JUMP JUMPDEST PUSH2 0xA59 DUP2 DUP6 PUSH2 0xA35 JUMP JUMPDEST SWAP4 POP PUSH2 0xA69 DUP2 DUP6 PUSH1 0x20 DUP7 ADD PUSH2 0x926 JUMP JUMPDEST PUSH2 0xA72 DUP2 PUSH2 0x700 JUMP JUMPDEST DUP5 ADD SWAP2 POP POP SWAP3 SWAP2 POP POP JUMP JUMPDEST PUSH0 PUSH2 0xA88 DUP4 DUP4 PUSH2 0xA45 JUMP JUMPDEST SWAP1 POP SWAP3 SWAP2 POP POP JUMP JUMPDEST PUSH0 PUSH1 0x20 DUP3 ADD SWAP1 POP SWAP2 SWAP1 POP JUMP JUMPDEST PUSH0 PUSH2 0xAA6 DUP3 PUSH2 0xA0C JUMP JUMPDEST PUSH2 0xAB0 DUP2 DUP6 PUSH2 0xA16 JUMP JUMPDEST SWAP4 POP DUP4 PUSH1 0x20 DUP3 MUL DUP6 ADD PUSH2 0xAC2 DUP6 PUSH2 0xA26 JUMP JUMPDEST DUP1 PUSH0 JUMPDEST DUP6 DUP2 LT ISZERO PUSH2 0xAFD JUMPI DUP5 DUP5 SUB DUP10 MSTORE DUP2 MLOAD PUSH2 0xADE DUP6 DUP3 PUSH2 0xA7D JUMP JUMPDEST SWAP5 POP PUSH2 0xAE9 DUP4 PUSH2 0xA90 JUMP JUMPDEST SWAP3 POP PUSH1 0x20 DUP11 ADD SWAP10 POP POP PUSH1 0x1 DUP2 ADD SWAP1 POP PUSH2 0xAC5 JUMP JUMPDEST POP DUP3 SWAP8 POP DUP8 SWAP6 POP POP POP POP POP POP SWAP3 SWAP2 POP POP JUMP JUMPDEST PUSH0 PUSH1 0x20 DUP3 ADD SWAP1 POP DUP2 DUP2 SUB PUSH0 DUP4 ADD MSTORE PUSH2 0xB27 DUP2 DUP5 PUSH2 0xA9C JUMP JUMPDEST SWAP1 POP SWAP3 SWAP2 POP POP JUMP JUMPDEST PUSH2 0xB38 DUP2 PUSH2 0x9D3 JUMP JUMPDEST DUP2 EQ PUSH2 0xB42 JUMPI PUSH0 DUP1 REVERT JUMPDEST POP JUMP JUMPDEST PUSH0 DUP2 CALLDATALOAD SWAP1 POP PUSH2 0xB53 DUP2 PUSH2 0xB2F JUMP JUMPDEST SWAP3 SWAP2 POP POP JUMP JUMPDEST PUSH0 PUSH1 0x20 DUP3 DUP5 SUB SLT ISZERO PUSH2 0xB6E JUMPI PUSH2 0xB6D PUSH2 0x6F0 JUMP JUMPDEST JUMPDEST PUSH0 PUSH2 0xB7B DUP5 DUP3 DUP6 ADD PUSH2 0xB45 JUMP JUMPDEST SWAP2 POP POP SWAP3 SWAP2 POP POP JUMP JUMPDEST PUSH32 0x4E487B7100000000000000000000000000000000000000000000000000000000 PUSH0 MSTORE PUSH1 0x32 PUSH1 0x4 MSTORE PUSH1 0x24 PUSH0 REVERT JUMPDEST PUSH32 0x4E487B7100000000000000000000000000000000000000000000000000000000 PUSH0 MSTORE PUSH1 0x22 PUSH1 0x4 MSTORE PUSH1 0x24 PUSH0 REVERT JUMPDEST PUSH0 PUSH1 0x2 DUP3 DIV SWAP1 POP PUSH1 0x1 DUP3 AND DUP1 PUSH2 0xBF5 JUMPI PUSH1 0x7F DUP3 AND SWAP2 POP JUMPDEST PUSH1 0x20 DUP3 LT DUP2 SUB PUSH2 0xC08 JUMPI PUSH2 0xC07 PUSH2 0xBB1 JUMP JUMPDEST JUMPDEST POP SWAP2 SWAP1 POP JUMP JUMPDEST PUSH0 DUP2 SWAP1 POP SWAP3 SWAP2 POP POP JUMP JUMPDEST PUSH0 DUP2 SWAP1 POP DUP2 PUSH0 MSTORE PUSH1 0x20 PUSH0 KECCAK256 SWAP1 POP SWAP2 SWAP1 POP JUMP JUMPDEST PUSH0 DUP2 SLOAD PUSH2 0xC36 DUP2 PUSH2 0xBDE JUMP JUMPDEST PUSH2 0xC40 DUP2 DUP7 PUSH2 0xC0E JUMP JUMPDEST SWAP5 POP PUSH1 0x1 DUP3 AND PUSH0 DUP2 EQ PUSH2 0xC5A JUMPI PUSH1 0x1 DUP2 EQ PUSH2 0xC6F JUMPI PUSH2 0xCA1 JUMP JUMPDEST PUSH1 0xFF NOT DUP4 AND DUP7 MSTORE DUP2 ISZERO ISZERO DUP3 MUL DUP7 ADD SWAP4 POP PUSH2 0xCA1 JUMP JUMPDEST PUSH2 0xC78 DUP6 PUSH2 0xC18 JUMP JUMPDEST PUSH0 JUMPDEST DUP4 DUP2 LT ISZERO PUSH2 0xC99 JUMPI DUP2 SLOAD DUP2 DUP10 ADD MSTORE PUSH1 0x1 DUP3 ADD SWAP2 POP PUSH1 0x20 DUP2 ADD SWAP1 POP PUSH2 0xC7A JUMP JUMPDEST DUP4 DUP9 ADD SWAP6 POP POP POP JUMPDEST POP POP POP SWAP3 SWAP2 POP POP JUMP JUMPDEST PUSH0 PUSH2 0xCB5 DUP3 DUP5 PUSH2 0xC2A JUMP JUMPDEST SWAP2 POP DUP2 SWAP1 POP SWAP3 SWAP2 POP POP JUMP JUMPDEST PUSH0 PUSH2 0xCCA DUP3 PUSH2 0x90C JUMP JUMPDEST PUSH2 0xCD4 DUP2 DUP6 PUSH2 0xC0E JUMP JUMPDEST SWAP4 POP PUSH2 0xCE4 DUP2 DUP6 PUSH1 0x20 DUP7 ADD PUSH2 0x926 JUMP JUMPDEST DUP1 DUP5 ADD SWAP2 POP POP SWAP3 SWAP2 POP POP JUMP JUMPDEST PUSH0 PUSH2 0xCFB DUP3 DUP5 PUSH2 0xCC0 JUMP JUMPDEST SWAP2 POP DUP2 SWAP1 POP SWAP3 SWAP2 POP POP JUMP JUMPDEST PUSH0 PUSH1 0x20 PUSH1 0x1F DUP4 ADD DIV SWAP1 POP SWAP2 SWAP1 POP JUMP JUMPDEST PUSH0 DUP3 DUP3 SHL SWAP1 POP SWAP3 SWAP2 POP POP JUMP JUMPDEST PUSH0 PUSH1 0x8 DUP4 MUL PUSH2 0xD50 PUSH32 0xFFFFFFFFFFFFFFFFFFFFFFFFFFFFFFFFFFFFFFFFFFFFFFFFFFFFFFFFFFFFFFFF DUP3 PUSH2 0xD15 JUMP JUMPDEST PUSH2 0xD5A DUP7 DUP4 PUSH2 0xD15 JUMP JUMPDEST SWAP6 POP DUP1 NOT DUP5 AND SWAP4 POP DUP1 DUP7 AND DUP5 OR SWAP3 POP POP POP SWAP4 SWAP3 POP POP POP JUMP JUMPDEST PUSH0 DUP2 SWAP1 POP SWAP2 SWAP1 POP JUMP JUMPDEST PUSH0 PUSH2 0xD95 PUSH2 0xD90 PUSH2 0xD8B DUP5 PUSH2 0x8AE JUMP JUMPDEST PUSH2 0xD72 JUMP JUMPDEST PUSH2 0x8AE JUMP JUMPDEST SWAP1 POP SWAP2 SWAP1 POP JUMP JUMPDEST PUSH0 DUP2 SWAP1 POP SWAP2 SWAP1 POP JUMP JUMPDEST PUSH2 0xDAE DUP4 PUSH2 0xD7B JUMP JUMPDEST PUSH2 0xDC2 PUSH2 0xDBA DUP3 PUSH2 0xD9C JUMP JUMPDEST DUP5 DUP5 SLOAD PUSH2 0xD21 JUMP JUMPDEST DUP3 SSTORE POP POP POP POP JUMP JUMPDEST PUSH0 SWAP1 JUMP JUMPDEST PUSH2 0xDD6 PUSH2 0xDCA JUMP JUMPDEST PUSH2 0xDE1 DUP2 DUP5 DUP5 PUSH2 0xDA5 JUMP JUMPDEST POP POP POP JUMP JUMPDEST JUMPDEST DUP2 DUP2 LT ISZERO PUSH2 0xE04 JUMPI PUSH2 0xDF9 PUSH0 DUP3 PUSH2 0xDCE JUMP JUMPDEST PUSH1 0x1 DUP2 ADD SWAP1 POP PUSH2 0xDE7 JUMP JUMPDEST POP POP JUMP JUMPDEST PUSH1 0x1F DUP3 GT ISZERO PUSH2 0xE49 JUMPI PUSH2 0xE1A DUP2 PUSH2 0xC18 JUMP JUMPDEST PUSH2 0xE23 DUP5 PUSH2 0xD06 JUMP JUMPDEST DUP2 ADD PUSH1 0x20 DUP6 LT ISZERO PUSH2 0xE32 JUMPI DUP2 SWAP1 POP JUMPDEST PUSH2 0xE46 PUSH2 0xE3E DUP6 PUSH2 0xD06 JUMP JUMPDEST DUP4 ADD DUP3 PUSH2 0xDE6 JUMP JUMPDEST POP POP JUMPDEST POP POP POP JUMP JUMPDEST PUSH0 DUP3 DUP3 SHR SWAP1 POP SWAP3 SWAP2 POP POP JUMP JUMPDEST PUSH0 PUSH2 0xE69 PUSH0 NOT DUP5 PUSH1 0x8 MUL PUSH2 0xE4E JUMP JUMPDEST NOT DUP1 DUP4 AND SWAP2 POP POP SWAP3 SWAP2 POP POP JUMP JUMPDEST PUSH0 PUSH2 0xE81 DUP4 DUP4 PUSH2 0xE5A JUMP JUMPDEST SWAP2 POP DUP3 PUSH1 0x2 MUL DUP3 OR SWAP1 POP SWAP3 SWAP2 POP POP JUMP JUMPDEST PUSH2 0xE9A DUP3 PUSH2 0x90C JUMP JUMPDEST PUSH8 0xFFFFFFFFFFFFFFFF DUP2 GT ISZERO PUSH2 0xEB3 JUMPI PUSH2 0xEB2 PUSH2 0x710 JUMP JUMPDEST JUMPDEST PUSH2 0xEBD DUP3 SLOAD PUSH2 0xBDE JUMP JUMPDEST PUSH2 0xEC8 DUP3 DUP3 DUP6 PUSH2 0xE08 JUMP JUMPDEST PUSH0 PUSH1 0x20 SWAP1 POP PUSH1 0x1F DUP4 GT PUSH1 0x1 DUP2 EQ PUSH2 0xEF9 JUMPI PUSH0 DUP5 ISZERO PUSH2 0xEE7 JUMPI DUP3 DUP8 ADD MLOAD SWAP1 POP JUMPDEST PUSH2 0xEF1 DUP6 DUP3 PUSH2 0xE76 JUMP JUMPDEST DUP7 SSTORE POP PUSH2 0xF58 JUMP JUMPDEST PUSH1 0x1F NOT DUP5 AND PUSH2 0xF07 DUP7 PUSH2 0xC18 JUMP JUMPDEST PUSH0 JUMPDEST DUP3 DUP2 LT ISZERO PUSH2 0xF2E JUMPI DUP5 DUP10 ADD MLOAD DUP3 SSTORE PUSH1 0x1 DUP3 ADD SWAP2 POP PUSH1 0x20 DUP6 ADD SWAP5 POP PUSH1 0x20 DUP2 ADD SWAP1 POP PUSH2 0xF09 JUMP JUMPDEST DUP7 DUP4 LT ISZERO PUSH2 0xF4B JUMPI DUP5 DUP10 ADD MLOAD PUSH2 0xF47 PUSH1 0x1F DUP10 AND DUP3 PUSH2 0xE5A JUMP JUMPDEST DUP4 SSTORE POP JUMPDEST PUSH1 0x1 PUSH1 0x2 DUP9 MUL ADD DUP9 SSTORE POP POP POP JUMPDEST POP POP POP POP POP POP JUMP INVALID LOG2 PUSH5 0x6970667358 0x22 SLT KECCAK256 0xDB AND EXP JUMPI DELEGATECALL PUSH29 0x7D1A0B6FEFDC505718E0335756A910BE7EB9823EFF5321D4E28F64736F PUSH13 0x634300081A0033000000000000 "
				},
				"gasEstimates": {
					"creation": {
						"codeDepositCost": "798000",
						"executionCost": "infinite",
						"totalCost": "infinite"
					},
					"external": {
						"addMyName(string)": "infinite",
						"changeOwnersName(string)": "infinite",
						"getNames()": "infinite",
						"isAdded(string)": "infinite",
						"nameCount()": "2529",
						"names(uint256)": "infinite",
						"owner()": "2515",
						"ownerName()": "infinite",
						"renounceOwnership()": "infinite",
						"transferOwnership(address)": "infinite"
					}
				},
				"methodIdentifiers": {
					"addMyName(string)": "b89bca26",
					"changeOwnersName(string)": "9681944c",
					"getNames()": "cd838f0f",
					"isAdded(string)": "2e3d616e",
					"nameCount()": "73ff93a2",
					"names(uint256)": "4622ab03",
					"owner()": "8da5cb5b",
					"ownerName()": "65ac2320",
					"renounceOwnership()": "715018a6",
					"transferOwnership(address)": "f2fde38b"
				}
			},
			"storageLayout": {
				"storage": [
					{
						"astId": 8,
						"contract": "contracts/Names.sol:Names",
						"label": "_owner",
						"offset": 0,
						"slot": "0",
						"type": "t_address"
					},
					{
						"astId": 184,
						"contract": "contracts/Names.sol:Names",
						"label": "ownerName",
						"offset": 0,
						"slot": "1",
						"type": "t_string_storage"
					},
					{
						"astId": 187,
						"contract": "contracts/Names.sol:Names",
						"label": "names",
						"offset": 0,
						"slot": "2",
						"type": "t_array(t_string_storage)dyn_storage"
					},
					{
						"astId": 189,
						"contract": "contracts/Names.sol:Names",
						"label": "luckyNumber",
						"offset": 0,
						"slot": "3",
						"type": "t_int256"
					}
				],
				"types": {
					"t_address": {
						"encoding": "inplace",
						"label": "address",
						"numberOfBytes": "20"
					},
					"t_array(t_string_storage)dyn_storage": {
						"base": "t_string_storage",
						"encoding": "dynamic_array",
						"label": "string[]",
						"numberOfBytes": "32"
					},
					"t_int256": {
						"encoding": "inplace",
						"label": "int256",
						"numberOfBytes": "32"
					},
					"t_string_storage": {
						"encoding": "bytes",
						"label": "string",
						"numberOfBytes": "32"
					}
				}
			},
			"userdoc": {
				"kind": "user",
				"methods": {},
				"version": 1
			}
		}
	}
}